380565       L563           TF201120110927ISERE                         VOREPPE                                                          C000000000000000000000000000000000000000000000000159000000000000000000000000000002110000                                                                                     
380565       L563A1         PVOREPPE                       2212011083120111015                               0424300002616000000000000021300000000000000000000111900000000000000000000000000000000000G071400000000000000822000000000000000000000000000PAYS VOIRONNAIS               CCC L563 243800984     L563       
380565 000001L563C1         22102441011140000037742000000001463     COMMUNE DE VOREPPE                                            MAIRIE                          1 PL CHARLES DE GAULLE                                          38340 VOREPPE                   P 00000000000000000000                    HCNTBON   
380565 000001L563N1         0000062400000624000006240000000000000000000006240000000000000000000016980000204100000000000002350000026500000000        000000000000072100000000000000000000003262000000000000000000000000000000000000000000000000000000000000000000002234000022340000279200000000000000000               
380565 000001L563P1B0340080BFAUBOURG DU PONT              00000000000000000000000000000000000000000000000000          00000000000000001556          000000000000000000000000000000000000         000000000000000000000000174         000000174P                                                                       
380565 000001L563P1B0340080CFAUBOURG DU PONT              00000000000000000000000000000000000000000000000000          00000000000000000850          000000000000000000000000000000000000         000000000000000000000000095         000000095P                                                                       
380565 000001L563P100209001 PL  ARMAND PUGNOT             00000088340000000000000000883400000088340000000000          00000000000000008834          000002311000000000000000188000001405         000000000000000000000000989         000004893P                                                                       
380565 000001L563P100210110 IMP ARTHUR RIMBAUD            00000011970000000000000000119700000011970000000000          00000000000000001197          000000313000000000000000025000000190         000000000000000000000000134         000000662P                                                                       
380565 000001L563P100330548 RUE DE BOURG VIEUX            00000000000000000000000000000000000000000000000000          00000000000000001616          000000000000000000000000000000000000         000000000000000000000000181         000000181P                                                                       
380565 000001L563P100340135 RUE BEYLE STENDHAL            00000034710000000000000000347100000034710000000000          00000000000000003471          000000908000000000000000074000000552         000000000000000000000000388         000001922P                                                                       
380565 000001L563P100340213 RUE BEYLE STENDHAL            00000020340000000000000000203400000020340000000000          00000000000000002034          000000532000000000000000043000000323         000000000000000000000000228         000001126P                                                                       
380565 000001L563P100400005 RUE DU CARRE                  00000023200000000000000000232000000023200000000000          00000000000000002320          000000607000000000000000049000000369         000000000000000000000000260         000001285P                                                                       
380565 000001L563P101209001 QUAI DES CHARTREUX            00000006500000000000000000065000000006500000000000          00000000000000000650          000000170000000000000000014000000103         000000000000000000000000073         000000360P                                                                       
380565 000001L563P102500072 AV  HENRI CHAPAYS             00000000000000000000000000000000000000000000000000          00000000000000002580          000000000000000000000000000000000000         000000000000000000000000289         000000289P                                                                       
380565 000001L563P102560349 AV  HONORE DE BALZAC          00000009320000000000000000093200000009320000000000          00000000000000000932          000000244000000000000000020000000148         000000000000000000000000104         000000516P                                                                       
380565 000001L563P102560351 AV  HONORE DE BALZAC          00000008630000000000000000086300000008630000000000          00000000000000000863          000000226000000000000000018000000137         000000000000000000000000097         000000478P                                                                       
380565 000001L563P102560365 AV  HONORE DE BALZAC          00000018500000000000000000185000000018500000000000          00000000000000001850          000000484000000000000000039000000294         000000000000000000000000207         000001024P                                                                       
380565 000001L563P102830294 RUE JEAN MOULIN               00000000000000000000000000000000000000000000000000          00000000000000002694          000000000000000000000000000000000000         000000000000000000000000301         000000301P                                                                       
380565 000001L563P102860390 CHE JULES RENARD              00000027260000000000000000272600000027260000000000          00000000000000000000          000000713000000000000000058000000433         000000000000000000000000000         000001204                                                                        
380565 000001L563P103490445 RUE DE NARDAN                 00000012110000000000000000121100000012110000000000          00000000000000001211          000000317000000000000000026000000193         000000000000000000000000136         000000672P                                                                       
380565 000001L563P103890055 RUE DU PEUIL                  00000328600000000000000003286000000328600000000000          00000000000000027314          000008596000000000000000700000005225         000000000000000000000003056         000017577P                                                                       
380565 000001L563P104950075 CHE DES SEITES                00000004670000000000000000046700000004670000000000          00000000000000000467          000000122000000000000000010000000074         000000000000000000000000052         000000258P                                                                       
380565 000002L563C1         22102441011140000012479000000000370SA   CONSTRUCTIONS MECANIQUES D    VOREPPE                                                          AV HENRI CHAPAYS                                               38340 VOREPPE                   P 00000000000000000000                    HC TBON   
380565 000002L563N1         0000000000000000000000000000000000000000000000000000000000000000000000000000000100000000000000000000000000000000        000000000000000000000000000000000000000001000000000000000000000000000000000000000000000000000000000000000000000001000000010000000100000000000000000               
380565 000002L563P102500570 AV  HENRI CHAPAYS             00000010960000000000000000109600000010960000000000          00000000000000001096          000000287000000000000000023000000174         000000000000000000000000123         000000607P                                                                       
380565 000002L563P103039002 IMP LAVOISIER                 00000260270000000000000002602700000260270000000000          00000000000000000000          000006809000000000000000554000004138         000000000000000000000000000         000011501                                                                        
380565 000003L563C1         22102441011140000100270000000003866EPIC OPAC DE L'ISERE                                                                               47 AV MARIE REYNOARD                                            38035 GRENOBLE CEDEX 2          P 00000000000000000000                    H   BO    
380565 000003L563P100320015 CHE DES BUIS                  00000086190000000000000000861900000086190000000000          00000000000000008619          000002255000000000000000184000001370         000000000000000000000000964         000004773P                                                                       
380565 000003L563P100320031 CHE DES BUIS                  00000083600000000000000000836000000083600000000000          00000000000000008360          000002187000000000000000178000001329         000000000000000000000000935         000004629P                                                                       
380565 000003L563P100340122 RUE BEYLE STENDHAL            00000063800000000000000000638000000063800000000000          00000000000000006380          000001669000000000000000136000001014         000000000000000000000000714         000003533P                                                                       
380565 000003L563P102469001 ALL DES FUSAINS               00000033210000000000000000332100000033210000000000          00000000000000003321          000000869000000000000000071000000528         000000000000000000000000372         000001840P                                                                       
380565 000003L563P102720384 AV  JACQUES PREVERT           00000498710000000000000004927500000492750000000000          00000000000000049871          000013046000000000000001050000007835         000000000000000000000005581         000027512P                                                                       
380565 000003L563P102840015 RUE JEAN PREVOST              00000579130000000000000005791300000579130000000000          00000000000000057913          000015150000000000000001234000009208         000000000000000000000006480         000032072P                                                                       
380565 000003L563P105170030 RUE THEODORE RAVANAT          00000187990000000000000001879900000187990000000000          00000000000000018799          000004918000000000000000400000002989         000000000000000000000002104         000010411P                                                                       
380565 000003L563P105170060 RUE THEODORE RAVANAT          00000191670000000000000001916700000191670000000000          00000000000000019167          000005014000000000000000408000003048         000000000000000000000002145         000010615P                                                                       
380565 000003L563P105509001 RUE DE VOLOUISE               00000018400000000000000000184000000018400000000000          00000000000000001840          000000481000000000000000039000000293         000000000000000000000000206         000001019P                                                                       
380565 000004L563C1         22102441011140000000052000000000002     HOSPICE DE VOREPPE            ETABLISSEMENT PUBLIC            MAISON DE RETRAITE              1 PL DENISE GREY                                                38340 VOREPPE                   P 00000000000000000000                       T  N   
380565 000004L563N1         0000000000000000000000000000000000000000000000000000000000000000000000590000003400000000000000040000000000000000        000000000000001200000000000000000000000050000000000000000000000000000000000000000000000000000000000000000000000047000000470000005900000000000000000               
380565 000005L563C1         22102441011140000005069000000000196SA   S A DU CLOS DE SAINT NIZIE                                                                    94 CHE SAINTE CLAIRE                                            38340 VOREPPE                   P 00000000000000000000                    H  TBON   
380565 000005L563N1         0000000000000000000000000000000000000000000000000000000000000000000000010000015900000000000000180000000000000000        000000000000005900000000000000000000000236000000000000000000000000000000000000000000000000000000000000000000000223000002230000027800000000000000000               
380565 000005L563P104840094 CHE SAINTE CLAIRE             00000083740000000000000000837400000083740000000000          00000000000000008374          000002191000000000000000178000001331         000000000000000000000000937         000004637P                                                                       
380565 000006L563C1         22102441011140000020034000000000770SC   S C I DES PORTIERES                                                                           55 RUE DE PLEIN SOLEIL                                          38340 VOREPPE                   P 00000000000000000000                    H N BON   
380565 000006L563N1         0000001300000013000000130000000000000000000000130000000000000000000000000000000900000000000000010000000600000000        000000000000000300000000000000000000000019000000000000000000000000000000000000000000000000000000000000000000000000000000000000000000000000000000000               
380565 000006L563P104160463 RUE DU PORT                   00000312510000000000000003125100000312510000000000          00000000000000031251          000008175000000000000000666000004969         000000000000000000000003497         000017307P                                                                       
380565 000006L563P104169006 RUE DU PORT                   00000001840000000000000000018400000001840000000000          00000000000000000184          000000048000000000000000004000000029         000000000000000000000000021         000000102P                                                                       
380565 000006L563P104169007 RUE DU PORT                   00000001840000000000000000018400000001840000000000          00000000000000000184          000000048000000000000000004000000029         000000000000000000000000021         000000102P                                                                       
380565 000006L563P104169008 RUE DU PORT                   00000001840000000000000000018400000001840000000000          00000000000000000184          000000048000000000000000004000000029         000000000000000000000000021         000000102P                                                                       
380565 000006L563P104169009 RUE DU PORT                   00000001840000000000000000018400000001840000000000          00000000000000000184          000000048000000000000000004000000029         000000000000000000000000021         000000102P                                                                       
380565 000006L563P104169010 RUE DU PORT                   00000001840000000000000000018400000001840000000000          00000000000000000184          000000048000000000000000004000000029         000000000000000000000000021         000000102P                                                                       
380565 000006L563P104169011 RUE DU PORT                   00000001840000000000000000018400000001840000000000          00000000000000000184          000000048000000000000000004000000029         000000000000000000000000021         000000102P                                                                       
380565 000006L563P104169012 RUE DU PORT                   00000001840000000000000000018400000001840000000000          00000000000000000184          000000048000000000000000004000000029         000000000000000000000000021         000000102P                                                                       
380565 000006L563P104169013 RUE DU PORT                   00000001840000000000000000018400000001840000000000          00000000000000000184          000000048000000000000000004000000029         000000000000000000000000021         000000102P                                                                       
380565 000006L563P104169014 RUE DU PORT                   00000001840000000000000000018400000001840000000000          00000000000000000184          000000048000000000000000004000000029         000000000000000000000000021         000000102P                                                                       
380565 000006L563P104169015 RUE DU PORT                   00000001840000000000000000018400000001840000000000          00000000000000000184          000000048000000000000000004000000029         000000000000000000000000021         000000102P                                                                       
380565 000006L563P104169016 RUE DU PORT                   00000001840000000000000000018400000001840000000000          00000000000000000184          000000048000000000000000004000000029         000000000000000000000000021         000000102P                                                                       
380565 000006L563P104169017 RUE DU PORT                   00000001840000000000000000018400000001840000000000          00000000000000000184          000000048000000000000000004000000029         000000000000000000000000021         000000102P                                                                       
380565 000006L563P104169018 RUE DU PORT                   00000003680000000000000000036800000003680000000000          00000000000000000368          000000096000000000000000008000000059         000000000000000000000000041         000000204P                                                                       
380565 000006L563P104169020 RUE DU PORT                   00000001840000000000000000018400000001840000000000          00000000000000000184          000000048000000000000000004000000029         000000000000000000000000021         000000102P                                                                       
380565 000006L563P104169021 RUE DU PORT                   00000001840000000000000000018400000001840000000000          00000000000000000184          000000048000000000000000004000000029         000000000000000000000000021         000000102P                                                                       
380565 000006L563P104169022 RUE DU PORT                   00000001840000000000000000018400000001840000000000          00000000000000000184          000000048000000000000000004000000029         000000000000000000000000021         000000102P                                                                       
380565 000006L563P104169023 RUE DU PORT                   00000001840000000000000000018400000001840000000000          00000000000000000184          000000048000000000000000004000000029         000000000000000000000000021         000000102P                                                                       
380565 000006L563P104169024 RUE DU PORT                   00000001840000000000000000018400000001840000000000          00000000000000000184          000000048000000000000000004000000029         000000000000000000000000021         000000102P                                                                       
380565 000007L563C1         22102441011140000000000010000000000     S C I DE VILLENEUVE                                                                           10 RUE HUMBERT 2                                                38000 GRENOBLE                  P 00000000000000000000                      N   ND  
380565 000007L563N1         0000000100000001000000010000000000000000000000010000000000000000000000000000000100000000000000000000000000000000        000000000000000000000000000000000000000001000000000000000000000000000000000000000000000000000000000000000000000000000000000000000000000000000000000               
380565 000008L563C1         22102441011140000000000030000000000SC   S C PARTICULIERE RACIN                                                                        1 RUE DE PARADIS                                                75010 PARIS                     P 00000000000000000000                       T  ND  
380565 000008L563N1         0000000000000000000000000000000000000000000000000000000000000000000000000000000200000000000000000000000000000000        000000000000000100000000000000000000000003000000000000000000000000000000000000000000000000000000000000000000000003000000030000000300000000000000000               
380565 000009L563C1         22102441011140000000610000000000025     ASS BEAUREGARD FOYERS ET      INTERNATS D EDUCATION SPECIALISE                                9 PL SAINT-BRUNO                                                38000 GRENOBLE                  P 00000000000000000000                       T  N   
380565 000009L563N1         0000000000000000000000000000000000000000000000000000000000000000000000000000039400000000000000450000000000000000        000000000000014600000000000000000000000585000000000000000000000000000000000000000000000000000000000000000000000552000005520000069000000000000000000               
380565 000010L563C1         22102441011140000000144000000000006SA   TRANSPORT FERNAND LELY ET     FILS                                                            37 RUE PIERRE SEMARD                                            38600 FONTAINE                  P 00000000000000000000                       T  N   
380565 000010L563N1         0000000000000000000000000000000000000000000000000000000000000000000001620000009300000000000000110000000000000000        000000000000003400000000000000000000000138000000000000000000000000000000000000000000000000000000000000000000000130000001300000016200000000000000000               
380565 000011L563C1         22102441011140000000215000000000009     SYNDICAT DE PIQUE PIERRE                                                                      2 CHE DES MARRONNIERS                                           38100 GRENOBLE                  P 00000000000000000000                       T  N   
380565 000011L563N1         0000000000000000000000000000000000000000000000000000000000000000000000000000013900000000000000160000000000000000        000000000000005100000000000000000000000206000000000000000000000000000000000000000000000000000000000000000000000195000001950000024400000000000000000               
380565 000012L563C1         22102441011140000000016000000000000     SYNDICAT DE VOREPPE A         MOIRANS                                                         2 CHE DES MARRONNIERS                                           38100 GRENOBLE                  P 00000000000000000000                       T  N   
380565 000012L563N1         0000000000000000000000000000000000000000000000000000000000000000000000000000001100000000000000010000000000000000        000000000000000400000000000000000000000016000000000000000000000000000000000000000000000000000000000000000000000016000000160000002100000000000000000               
380565 000013L563C1         22102441011140000002163000000000083     SYNDICAT ECLESIASTIQUE DE     GRENOBLE                        CHEZ AEP                        402 RUE DE NARDAN                                               38340 VOREPPE                   P 00000000000000000000                    HC TBON   
380565 000013L563N1         0000000000000000000000000000000000000000000000000000000000000000000000000000000100000000000000000000000000000000        000000000000000000000000000000000000000001000000000000000000000000000000000000000000000000000000000000000000000001000000010000000100000000000000000               
380565 000013L563P103490402 RUE DE NARDAN                 00000013040000000000000000130400000013040000000000          00000000000000001304          000000341000000000000000028000000207         000000000000000000000000146         000000722P                                                                       
380565 000013L563P103490408 RUE DE NARDAN                 00000024510000000000000000245100000024510000000000          00000000000000002451          000000641000000000000000052000000390         000000000000000000000000274         000001357P                                                                       
380565 000014L563C1         22102441011140000026735000000000779SA   DISTRIBUTION ALPINE DU        VERRE DAVER                                                     BP 34                                                           38340 VOREPPE                   P 00000000000000000000                     C  B     
380565 000014L563P102430086 RUE EMILE ROMANET             00000587380000000000000005873800000587380000000000          00000000000000000000          000015366000000000000001251000009339         000000000000000000000000000         000025956                                                                        
380565 000015L563C1         22102441011140000001083000000000032SCA  COOPERATIVE DAUPHINOISE                                                                       42 RUE DU ONZE NOVEMBRE                                         38200 VIENNE                    P 00000000000000000000                     C  B     
380565 000015L563P103159001 RUE LOUIS VICAT               00000023790000000000000000237900000023790000000000          00000000000000000000          000000622000000000000000051000000378         000000000000000000000000000         000001051                                                                        
380565 000016L563C1         22102441011140000002069000000000081SARL DAUPHI MAREE                                                                                  428 RUE EMILE ROMANET                                           38340 VOREPPE                   P 00000000000000000000                    HC  BO    
380565 000016L563P102430428 RUE EMILE ROMANET             00000016270000000000000000162700000016270000000000          00000000000000001627          000000426000000000000000035000000259         000000000000000000000000182         000000902P                                                                       
380565 000016L563P102439001 RUE EMILE ROMANET             00000019600000000000000000196000000019600000000000          00000000000000001960          000000513000000000000000042000000312         000000000000000000000000219         000001086P                                                                       
380565 000017L563C1         22102441011140000003605000000000139     SCI LOC ARTISAN                                                                               BP 235                                                          38400 ST MARTIN D HERES         P 00000000000000000000                     C  BO    
380565 000017L563P104650419 RUE DE LA RESISTANCE          00000062600000000000000000626000000062600000000000          00000000000000006260          000001638000000000000000133000000995         000000000000000000000000700         000003466P                                                                       
380565 000018L563C1         22102441011140000006395000000000187     SCI DE BRANDEGAUDIERE                                                                         BP 142                                                          38343 VOREPPE CEDEX             P 00000000000000000000                     C TB N   
380565 000018L563N1         0000000000000000000000000000000000000000000000000000000000000000000000000000006600000000000000080000000000000000        000000000000002400000000000000000000000098000000000000000000000000000000000000000000000000000000000000000000000092000000920000011500000000000000000               
380565 000018L563P100309001 CHE DES BLOCKHAUS             00000138270000000000000001382700000138270000000000          00000000000000000000          000003617000000000000000295000002198         000000000000000000000000000         000006110                                                                        
380565 000019L563C1         22102441011140000014522000000000560SCI  S C I DE L HOIRIE                                                                             241 CHE DES BLOCKHAUS                                           38340 VOREPPE                   P 00000000000000000000                    H   BO    
380565 000019L563P102560442 AV  HONORE DE BALZAC          00000130370000000000000001303700000130370000000000          00000000000000013037          000003410000000000000000278000002073         000000000000000000000001459         000007220P                                                                       
380565 000019L563P102560470 AV  HONORE DE BALZAC          00000121750000000000000001217500000121750000000000          00000000000000012175          000003185000000000000000259000001936         000000000000000000000001362         000006742P                                                                       
380565 000020L563C1         22102441011140000015843000000000611SCI  LE VERCORS                                                    PISANCON                        799 RN 532                                                      26300 CHATUZANGE LE GOUBET      P 00000000000000000000                    HC  BO    
380565 000020L563P102430305 RUE EMILE ROMANET             00000275030000000000000002750300000275030000000000          00000000000000027503          000007195000000000000000586000004373         000000000000000000000003078         000015232P                                                                       
380565 000021L563C1         22102441011140000007576000000000292     S C I LES METALLIERS                                          CHEZ MME CURTA                  LA GELE                                                         26380 PEYRINS                   P 00000000000000000000                     C  BO    
380565 000021L563P105290172 RUE VAUCANSON                 00000131530000000000000001315300000131530000000000          00000000000000013153          000003441000000000000000280000002091         000000000000000000000001472         000007284P                                                                       
380565 000022L563C1         22102441011140000007625000000000294SCI  CADO                                                          CHEZ M CARROT MARCEL            104 IMP DE SAUVIOU                                              83140 SIX FOURS LES PLAGES      P 00000000000000000000                     C  BO    
380565 000022L563P102480039 RUE DE LA GARE                00000132360000000000000001323600000132360000000000          00000000000000013236          000003463000000000000000282000002105         000000000000000000000001481         000007331P                                                                       
380565 000023L563C1         22102441011140000019428000000000566SCI  VOREPPE USINE                                                 IMMOBILIER FRANCE REGIE         24 PL GRENETTE                                                  38000 GRENOBLE                  P 00000000000000000000                     C  B     
380565 000023L563P103100085 RUE LOUIS ARMAND              00000426830000000000000004268300000426830000000000          00000000000000000000          000011166000000000000000909000006787         000000000000000000000000000         000018862                                                                        
380565 000024L563C1         22102441011140000001062000000000042SYMI SIVOM AMENAGEMENT MOIRANS     VOREPPE                         PAR CAPV                        40 RUE MAINSSIEUX                                               38500 VOIRON                    P 00000000000000000000                      NT  N   
380565 000024L563N1         0000009600000096000000960000000000000000000000960000000000000000000000000000066300000000000000760000004100000000        000000000000024000000000000000000000001020000000000000000000000000000000000000000000000000000000000000000000000832000008320000104000000000000000000               
380565 000025L563C1         22102441011140000039288000000001515SCI  DU CHAMP DE LA COUR                                           PAR M  REPELLIN JACQUES         18 AV ALSACE LORRAINE                                           38000 GRENOBLE                  P 00000000000000000000                     C  BO    
380565 000025L563P102500557 AV  HENRI CHAPAYS             00000682080000000000000006820800000682080000000000          00000000000000068208          000017843000000000000001453000010845         000000000000000000000007632         000037773P                                                                       
380565 000026L563C1         22102441011140000016734000000000645SCI  DAUPHINOISE                                                   PAR M RICHARD JEAN FRANCOIS     29 RUE DE LA CROIX-ROUSSE                                       38500 VOIRON                    P 00000000000000000000                    HC  BO    
380565 000026L563P102430511 RUE EMILE ROMANET             00000290530000000000000002905300000290530000000000          00000000000000029053          000007600000000000000000619000004619         000000000000000000000003251         000016089P                                                                       
380565 000027L563C1         22102441011140000000367000000000011SAS  TDF                                                           SECTEUR FISCAL                  106 AV MARX DORMOY                                              92120 MONTROUGE                 P 00000000000000000000                     C  B     
380565 000027L563P103890221 RUE DU PEUIL                  00000008080000000000000000080800000008080000000000          00000000000000000000          000000211000000000000000017000000128         000000000000000000000000000         000000356                                                                        
380565 000028L563C1         22102441011140000000000060000000000     COMMUNE DE VOREPPE                                            MAIRIE                          1 PL CHARLES DE GAULLE                                          38340 VOREPPE                   E 00000000000000000000                       T  ND  
380565 000028L563C2                                                 ASS D EDUCATION POPULAIRE     DE VOREPPE                                                      40 RUE MOUILLE SOL                                              38340 VOREPPE                   P                     0000                          
380565 000028L563N1         0000000000000000000000000000000000000000000000000000000000000000000000000000000400000000000000000000000000000000        000000000000000200000000000000000000000006000000000000000000000000000000000000000000000000000000000000000000000006000000060000000800000000000000000               
380565 000029L563C1         22102441011140000004901000000000143SA   SMAG STE DE MATERIAUX         AGGLOMERES GRENOBLOIS                                           126 CHE DE L ILE DU PONT                                        38340 VOREPPE                   P 00000000000000000000                     C  B     
380565 000029L563P101739001 CHE DES DIGUES                00000107670000000000000001076700000107670000000000          00000000000000000000          000002817000000000000000229000001712         000000000000000000000000000         000004758                                                                        
380565 000030L563C1         22102441011140000101731000000002972SA   STEPAN EUROPE                                                                                 BP 127                                                          38340 VOREPPE CEDEX             P 00000000000000000000                    HC TBON   
380565 000030L563N1         0000000000000000000000000000000000000000000000000000000000000000000000020000016200000000000000190000000000000000        000000000000006000000000000000000000000241000000000000000000000000000000000000000000000000000000000000000000000227000002270000028400000000000000000               
380565 000030L563P102560374 AV  HONORE DE BALZAC          00000012730000000000000000127300000012730000000000          00000000000000001273          000000333000000000000000027000000202         000000000000000000000000142         000000704P                                                                       
380565 000030L563P102859002 CHE JONGKING                  00002221390000000000000022213900002199390000000000          00000000000000000000          000058112000000000000004732000034970         000000000000000000000000000         000097814                                                                        
380565 000031L563C1         22102441011140000007655000000000295     SCI LA TIVOLIERE                                              PAR M MOREL                     270 RUE EMILE ROMANET                                           38340 VOREPPE                   P 00000000000000000000                     C  BO    
380565 000031L563P102430270 RUE EMILE ROMANET             00000132900000000000000001329000000132900000000000          00000000000000013290          000003477000000000000000283000002113         000000000000000000000001487         000007360P                                                                       
380565 000032L563C1         22102441011140000002156000000000083SCI  DIS BRO                                                                                       35 CHE DES LILAS                                                38340 VOREPPE                   P 00000000000000000000                    H N BON   
380565 000032L563N1         0000001200000012000000120000000000000000000000120000000000000000000000000000000900000000000000010000000500000000        000000000000000300000000000000000000000018000000000000000000000000000000000000000000000000000000000000000000000000000000000000000000000000000000000               
380565 000032L563P100370446 RUE DU BOUTET                 00000013360000000000000000133600000013360000000000          00000000000000001336          000000349000000000000000028000000212         000000000000000000000000149         000000738P                                                                       
380565 000032L563P103050035 CHE DES LILAS                 00000023770000000000000000237700000023770000000000          00000000000000002377          000000622000000000000000051000000378         000000000000000000000000266         000001317P                                                                       
380565 000033L563C1         22102441011140000007117000000000275     SCI DES JACQUINS                                                                              LES JACQUINS                                                    38340 VOREPPE                   P 00000000000000000000                    H   BO    
380565 000033L563P102940062 IMP JEAN DE LA FONTAINE       00000123550000000000000001235500000123550000000000          00000000000000012355          000003232000000000000000263000001964         000000000000000000000001383         000006842P                                                                       
380565 000034L563C1         22102441011140000000000010000000000SA   PROCIVIS ALPES-DAUPHINE                                                                       21 BD MAL FOCH                                                  38100 GRENOBLE                  P 00000000000000000000                       T  ND  
380565 000034L563N1         0000000000000000000000000000000000000000000000000000000000000000000000010000000100000000000000000000000000000000        000000000000000000000000000000000000000001000000000000000000000000000000000000000000000000000000000000000000000001000000010000000100000000000000000               
380565 000035L563C1         22102441011140000000000080000000000     ASS DIOCESAINE DE GRENOBLE                                                                    12 PLACE LAVALETTE                                              38028 GRENOBLE CEDEX 1          P 00000000000000000000                       T  ND  
380565 000035L563N1         0000000000000000000000000000000000000000000000000000000000000000000000000000000500000000000000010000000000000000        000000000000000200000000000000000000000008000000000000000000000000000000000000000000000000000000000000000000000007000000070000000900000000000000000               
380565 000036L563C1         22102441011140000002898000000000112SCI  LES LAURIERS                                                                                  799 ROUTE NATIONALE 532                                         26300 BOURG DE PEAGE            P 00000000000000000000                     C  BO    
380565 000036L563P102430359 RUE EMILE ROMANET             00000050320000000000000000503200000050320000000000          00000000000000005032          000001316000000000000000107000000800         000000000000000000000000563         000002786P                                                                       
380565 000037L563C1         22102441011140000077957000000002277SAS  ALUMINIUM PECHINEY                                                                            725 RUE ARISTIDE BERGES                                         38340 VOREPPE                   P 00000000000000000000                     CNTB N   
380565 000037L563N1         0000059900000599000005990000000000000000000005990000000000000000000000000000043100000000000000500000025400000000        000000000000012800000000000000000000000863000000000000000000000000000000000000000000000000000000000000000000000005000000050000000600000000000000000               
380565 000037L563P100150725 RUE ARISTIDE BERGES           00001693070000000000000016930700001693070000000000          00000000000000000000          000044291000000000000003606000026920         000000000000000000000000000         000074817                                                                        
380565 000038L563C1         22102441011140000016278000000000628SCI  MGB IMMOBILIERE                                                                               BP 136                                                          38343 VOREPPE CEDEX             P 00000000000000000000                     C  BO    
380565 000038L563P102920925 RTE DE L ISERE                00000282590000000000000002825900000282590000000000          00000000000000028259          000007393000000000000000602000004493         000000000000000000000003162         000015650P                                                                       
380565 000039L563C1         22102441011140000000000010000000000     SYNDICAT DU LOTISSEMENT LE    PEUPLIERS 2                                                     SAINT VINCENT DU PLATRE                                         38340 VOREPPE                   P 00000000000000000000                      N   ND  
380565 000039L563N1         0000000100000001000000010000000000000000000000010000000000000000000000000000000100000000000000000000000000000000        000000000000000000000000000000000000000001000000000000000000000000000000000000000000000000000000000000000000000000000000000000000000000000000000000               
380565 000040L563C1         22102441011140000002693000000000104SCI  DE LA RUE DE LA               RESISTANCE                                                      105 RUE DE LA RESISTANCE                                        38340 VOREPPE                   P 00000000000000000000                    HC  BO    
380565 000040L563P104650105 RUE DE LA RESISTANCE          00000046740000000000000000467400000046740000000000          00000000000000004674          000001223000000000000000100000000743         000000000000000000000000523         000002589P                                                                       
380565 000041L563C1         22102441011140000001443000000000055SAS  BLANDINO ET MAZZILLI BM                                                                       LES BALMES                                                      38340 VOREPPE                   P 00000000000000000000                    HCNTBON   
380565 000041L563N1         0000033900000339000003390000000000000000000003390000000000000000000000000000025000000000000000290000014400000000        000000000000007400000000000000000000000497000000000000000000000000000000000000000000000000000000000000000000000011000000110000001400000000000000000               
380565 000041L563P101209002 QUAI DES CHARTREUX            00000005720000000000000000057200000005720000000000          00000000000000000572          000000150000000000000000012000000091         000000000000000000000000064         000000317P                                                                       
380565 000041L563P102500322 AV  HENRI CHAPAYS             00000010350000000000000000103500000010350000000000          00000000000000001035          000000271000000000000000022000000165         000000000000000000000000116         000000574P                                                                       
380565 000042L563C1         22102441011140000000013000000000000SARL ENTREPRISE FAVRE                                                                              2 RUE DE SORNIN                                                 38360 SASSENAGE                 P 00000000000000000000                       T  N   
380565 000042L563N1         0000000000000000000000000000000000000000000000000000000000000000000000000000000900000000000000010000000000000000        000000000000000300000000000000000000000013000000000000000000000000000000000000000000000000000000000000000000000012000000120000001400000000000000000               
380565 000043L563C1         22102441011140000000000020000000000     ASSOCIATION SYNDICALE LIBR    DES RESIDENCES DE VOLOUISE      PAR FONTAINE GUY                ALLE XAVIER PICHAT                                              38340 VOREPPE                   P 00000000000000000000                      N   ND  
380565 000043L563N1         0000000200000002000000020000000000000000000000020000000000000000000000000000000100000000000000000000000100000000        000000000000000000000000000000000000000002000000000000000000000000000000000000000000000000000000000000000000000000000000000000000000000000000000000               
380565 000044L563C1         22102441011140000140022000000004125SA   RADIALL                                                                                       101 RUE PHILIBERT HOFFMANN                                      93110 ROSNY SOUS BOIS           P 00000000000000000000                    HC  BO    
380565 000044L563P100159001 RUE ARISTIDE BERGES           00000057720000000000000000577200000057720000000000          00000000000000005772          000001510000000000000000123000000918         000000000000000000000000646         000003197P                                                                       
380565 000044L563P102430522 RUE EMILE ROMANET             00000401300000000000000004013000000401300000000000          00000000000000002835          000010498000000000000000855000006381         000000000000000000000000317         000018051P                                                                       
380565 000044L563P102430642 RUE EMILE ROMANET             00002613230000000000000026132300002561080000000000          00000000000000000000          000068362000000000000005566000040721         000000000000000000000000000         000114649                                                                        
380565 000045L563C1         22102441011140000014043000000000927SA   SDH                                                           BP 128                          34 AV DE GRUGLIASCO                                             38130 ECHIROLLES                P 00000000000000000000                    H NT ON   
380565 000045L563N1         0000215300002153000021530000000000000000000021530000000000000000000000000000158900000000000001830000091400000000        000000000000047400000000000000000000003160000000000000000000000000000000000000000000000000000000000000000000000073000000730000009200000000000000000               
380565 000045L563P105810012 ALL DU 19 MARS 1962           00000000000000000000000000000000000000000000000000          00000000000000001437          000000000000000000000000000000000000         000000000000000000000000161         000000161P                                                                       
380565 000045L563P105810014 ALL DU 19 MARS 1962           00000000000000000000000000000000000000000000000000          00000000000000001437          000000000000000000000000000000000000         000000000000000000000000161         000000161P                                                                       
380565 000045L563P105810026 ALL DU 19 MARS 1962           00000000000000000000000000000000000000000000000000          00000000000000001437          000000000000000000000000000000000000         000000000000000000000000161         000000161P                                                                       
380565 000045L563P105810028 ALL DU 19 MARS 1962           00000000000000000000000000000000000000000000000000          00000000000000001437          000000000000000000000000000000000000         000000000000000000000000161         000000161P                                                                       
380565 000045L563P105810044 ALL DU 19 MARS 1962           00000000000000000000000000000000000000000000000000          00000000000000001437          000000000000000000000000000000000000         000000000000000000000000161         000000161P                                                                       
380565 000045L563P105810046 ALL DU 19 MARS 1962           00000000000000000000000000000000000000000000000000          00000000000000001437          000000000000000000000000000000000000         000000000000000000000000161         000000161P                                                                       
380565 000045L563P105810055 ALL DU 19 MARS 1962           00000000000000000000000000000000000000000000000000          00000000000000001286          000000000000000000000000000000000000         000000000000000000000000144         000000144P                                                                       
380565 000045L563P105810060 ALL DU 19 MARS 1962           00000000000000000000000000000000000000000000000000          00000000000000001437          000000000000000000000000000000000000         000000000000000000000000161         000000161P                                                                       
380565 000045L563P105810062 ALL DU 19 MARS 1962           00000000000000000000000000000000000000000000000000          00000000000000001437          000000000000000000000000000000000000         000000000000000000000000161         000000161P                                                                       
380565 000045L563P105810067 ALL DU 19 MARS 1962           00000000000000000000000000000000000000000000000000          00000000000000001286          000000000000000000000000000000000000         000000000000000000000000144         000000144P                                                                       
380565 000045L563P105810069 ALL DU 19 MARS 1962           00000000000000000000000000000000000000000000000000          00000000000000001437          000000000000000000000000000000000000         000000000000000000000000161         000000161P                                                                       
380565 000045L563P105810078 ALL DU 19 MARS 1962           00000000000000000000000000000000000000000000000000          00000000000000001437          000000000000000000000000000000000000         000000000000000000000000161         000000161P                                                                       
380565 000045L563P105810080 ALL DU 19 MARS 1962           00000000000000000000000000000000000000000000000000          00000000000000001437          000000000000000000000000000000000000         000000000000000000000000161         000000161P                                                                       
380565 000045L563P105810085 ALL DU 19 MARS 1962           00000000000000000000000000000000000000000000000000          00000000000000001437          000000000000000000000000000000000000         000000000000000000000000161         000000161P                                                                       
380565 000045L563P105810087 ALL DU 19 MARS 1962           00000000000000000000000000000000000000000000000000          00000000000000001286          000000000000000000000000000000000000         000000000000000000000000144         000000144P                                                                       
380565 000045L563P105810096 ALL DU 19 MARS 1962           00000000000000000000000000000000000000000000000000          00000000000000001437          000000000000000000000000000000000000         000000000000000000000000161         000000161P                                                                       
380565 000045L563P105810097 ALL DU 19 MARS 1962           00000000000000000000000000000000000000000000000000          00000000000000001286          000000000000000000000000000000000000         000000000000000000000000144         000000144P                                                                       
380565 000045L563P105810098 ALL DU 19 MARS 1962           00000000000000000000000000000000000000000000000000          00000000000000001437          000000000000000000000000000000000000         000000000000000000000000161         000000161P                                                                       
380565 000045L563P105810099 ALL DU 19 MARS 1962           00000000000000000000000000000000000000000000000000          00000000000000001437          000000000000000000000000000000000000         000000000000000000000000161         000000161P                                                                       
380565 000045L563P105810113 ALL DU 19 MARS 1962           00000000000000000000000000000000000000000000000000          00000000000000001437          000000000000000000000000000000000000         000000000000000000000000161         000000161P                                                                       
380565 000045L563P105810114 ALL DU 19 MARS 1962           00000000000000000000000000000000000000000000000000          00000000000000001437          000000000000000000000000000000000000         000000000000000000000000161         000000161P                                                                       
380565 000045L563P105810115 ALL DU 19 MARS 1962           00000000000000000000000000000000000000000000000000          00000000000000001286          000000000000000000000000000000000000         000000000000000000000000144         000000144P                                                                       
380565 000045L563P105810116 ALL DU 19 MARS 1962           00000000000000000000000000000000000000000000000000          00000000000000001437          000000000000000000000000000000000000         000000000000000000000000161         000000161P                                                                       
380565 000045L563P105810125 ALL DU 19 MARS 1962           00000000000000000000000000000000000000000000000000          00000000000000001286          000000000000000000000000000000000000         000000000000000000000000144         000000144P                                                                       
380565 000045L563P105810127 ALL DU 19 MARS 1962           00000000000000000000000000000000000000000000000000          00000000000000001437          000000000000000000000000000000000000         000000000000000000000000161         000000161P                                                                       
380565 000045L563P105810130 ALL DU 19 MARS 1962           00000000000000000000000000000000000000000000000000          00000000000000001437          000000000000000000000000000000000000         000000000000000000000000161         000000161P                                                                       
380565 000045L563P105810132 ALL DU 19 MARS 1962           00000000000000000000000000000000000000000000000000          00000000000000001437          000000000000000000000000000000000000         000000000000000000000000161         000000161P                                                                       
380565 000045L563P105810143 ALL DU 19 MARS 1962           00000000000000000000000000000000000000000000000000          00000000000000001437          000000000000000000000000000000000000         000000000000000000000000161         000000161P                                                                       
380565 000045L563P105810145 ALL DU 19 MARS 1962           00000000000000000000000000000000000000000000000000          00000000000000001286          000000000000000000000000000000000000         000000000000000000000000144         000000144P                                                                       
380565 000045L563P105810152 ALL DU 19 MARS 1962           00000000000000000000000000000000000000000000000000          00000000000000001437          000000000000000000000000000000000000         000000000000000000000000161         000000161P                                                                       
380565 000045L563P105810155 ALL DU 19 MARS 1962           00000000000000000000000000000000000000000000000000          00000000000000001286          000000000000000000000000000000000000         000000000000000000000000144         000000144P                                                                       
380565 000045L563P105810157 ALL DU 19 MARS 1962           00000000000000000000000000000000000000000000000000          00000000000000001437          000000000000000000000000000000000000         000000000000000000000000161         000000161P                                                                       
380565 000045L563P105810166 ALL DU 19 MARS 1962           00000000000000000000000000000000000000000000000000          00000000000000001437          000000000000000000000000000000000000         000000000000000000000000161         000000161P                                                                       
380565 000045L563P105810168 ALL DU 19 MARS 1962           00000000000000000000000000000000000000000000000000          00000000000000001437          000000000000000000000000000000000000         000000000000000000000000161         000000161P                                                                       
380565 000045L563P105810173 ALL DU 19 MARS 1962           00000000000000000000000000000000000000000000000000          00000000000000001437          000000000000000000000000000000000000         000000000000000000000000161         000000161P                                                                       
380565 000045L563P105810175 ALL DU 19 MARS 1962           00000000000000000000000000000000000000000000000000          00000000000000001286          000000000000000000000000000000000000         000000000000000000000000144         000000144P                                                                       
380565 000045L563P105810180 ALL DU 19 MARS 1962           00000000000000000000000000000000000000000000000000          00000000000000001437          000000000000000000000000000000000000         000000000000000000000000161         000000161P                                                                       
380565 000045L563P105810183 ALL DU 19 MARS 1962           00000000000000000000000000000000000000000000000000          00000000000000001286          000000000000000000000000000000000000         000000000000000000000000144         000000144P                                                                       
380565 000045L563P105810184 ALL DU 19 MARS 1962           00000000000000000000000000000000000000000000000000          00000000000000001437          000000000000000000000000000000000000         000000000000000000000000161         000000161P                                                                       
380565 000045L563P105810185 ALL DU 19 MARS 1962           00000000000000000000000000000000000000000000000000          00000000000000001437          000000000000000000000000000000000000         000000000000000000000000161         000000161P                                                                       
380565 000045L563P105810186 ALL DU 19 MARS 1962           00000000000000000000000000000000000000000000000000          00000000000000001437          000000000000000000000000000000000000         000000000000000000000000161         000000161P                                                                       
380565 000045L563P105810201 ALL DU 19 MARS 1962           00000000000000000000000000000000000000000000000000          00000000000000001437          000000000000000000000000000000000000         000000000000000000000000161         000000161P                                                                       
380565 000045L563P105810203 ALL DU 19 MARS 1962           00000000000000000000000000000000000000000000000000          00000000000000001286          000000000000000000000000000000000000         000000000000000000000000144         000000144P                                                                       
380565 000045L563P105820003 ALL DU GRAND SOM              00000000000000000000000000000000000000000000000000          00000000000000001437          000000000000000000000000000000000000         000000000000000000000000161         000000161P                                                                       
380565 000045L563P105820019 ALL DU GRAND SOM              00000000000000000000000000000000000000000000000000          00000000000000001437          000000000000000000000000000000000000         000000000000000000000000161         000000161P                                                                       
380565 000045L563P105820021 ALL DU GRAND SOM              00000000000000000000000000000000000000000000000000          00000000000000001437          000000000000000000000000000000000000         000000000000000000000000161         000000161P                                                                       
380565 000045L563P105820037 ALL DU GRAND SOM              00000000000000000000000000000000000000000000000000          00000000000000001437          000000000000000000000000000000000000         000000000000000000000000161         000000161P                                                                       
380565 000045L563P105820039 ALL DU GRAND SOM              00000000000000000000000000000000000000000000000000          00000000000000001437          000000000000000000000000000000000000         000000000000000000000000161         000000161P                                                                       
380565 000045L563P105820053 ALL DU GRAND SOM              00000000000000000000000000000000000000000000000000          00000000000000001437          000000000000000000000000000000000000         000000000000000000000000161         000000161P                                                                       
380565 000045L563P105820055 ALL DU GRAND SOM              00000000000000000000000000000000000000000000000000          00000000000000001437          000000000000000000000000000000000000         000000000000000000000000161         000000161P                                                                       
380565 000045L563P105820069 ALL DU GRAND SOM              00000000000000000000000000000000000000000000000000          00000000000000001437          000000000000000000000000000000000000         000000000000000000000000161         000000161P                                                                       
380565 000045L563P105820071 ALL DU GRAND SOM              00000000000000000000000000000000000000000000000000          00000000000000001437          000000000000000000000000000000000000         000000000000000000000000161         000000161P                                                                       
380565 000045L563P105820078 ALL DU GRAND SOM              00000000000000000000000000000000000000000000000000          00000000000000001437          000000000000000000000000000000000000         000000000000000000000000161         000000161P                                                                       
380565 000045L563P105820080 ALL DU GRAND SOM              00000000000000000000000000000000000000000000000000          00000000000000001437          000000000000000000000000000000000000         000000000000000000000000161         000000161P                                                                       
380565 000045L563P105820085 ALL DU GRAND SOM              00000000000000000000000000000000000000000000000000          00000000000000001437          000000000000000000000000000000000000         000000000000000000000000161         000000161P                                                                       
380565 000045L563P105820089 ALL DU GRAND SOM              00000000000000000000000000000000000000000000000000          00000000000000001437          000000000000000000000000000000000000         000000000000000000000000161         000000161P                                                                       
380565 000045L563P105820096 ALL DU GRAND SOM              00000000000000000000000000000000000000000000000000          00000000000000001437          000000000000000000000000000000000000         000000000000000000000000161         000000161P                                                                       
380565 000045L563P105820098 ALL DU GRAND SOM              00000000000000000000000000000000000000000000000000          00000000000000001437          000000000000000000000000000000000000         000000000000000000000000161         000000161P                                                                       
380565 000045L563P105820103 ALL DU GRAND SOM              00000000000000000000000000000000000000000000000000          00000000000000001437          000000000000000000000000000000000000         000000000000000000000000161         000000161P                                                                       
380565 000045L563P105820105 ALL DU GRAND SOM              00000000000000000000000000000000000000000000000000          00000000000000001437          000000000000000000000000000000000000         000000000000000000000000161         000000161P                                                                       
380565 000045L563P105820112 ALL DU GRAND SOM              00000000000000000000000000000000000000000000000000          00000000000000001437          000000000000000000000000000000000000         000000000000000000000000161         000000161P                                                                       
380565 000045L563P105820114 ALL DU GRAND SOM              00000000000000000000000000000000000000000000000000          00000000000000001437          000000000000000000000000000000000000         000000000000000000000000161         000000161P                                                                       
380565 000045L563P105820121 ALL DU GRAND SOM              00000000000000000000000000000000000000000000000000          00000000000000001437          000000000000000000000000000000000000         000000000000000000000000161         000000161P                                                                       
380565 000046L563C1         22102441011140000001045000000000040SCI  LA PLAINE                                                                                     375 RUE JACQUES BREL                                            38340 VOREPPE                   P 00000000000000000000                    H   BO    
380565 000046L563P102690375 RUE JACQUES BREL              00000018140000000000000000181400000018140000000000          00000000000000001814          000000475000000000000000039000000288         000000000000000000000000203         000001005P                                                                       
380565 000047L563C1         22102441011140000000094000000000004SA   CEVIM                                                                                         BP 225                                                          38043 GRENOBLE CEDEX 9          P 00000000000000000000                       T  N   
380565 000047L563N1         0000000000000000000000000000000000000000000000000000000000000000000000010000006100000000000000070000000000000000        000000000000002200000000000000000000000090000000000000000000000000000000000000000000000000000000000000000000000085000000850000010600000000000000000               
380565 000048L563C1         22102441011140000014259000000000550SCI  DE L'AVENUE CHAPAYS                                           B P 46                           AV HENRI CHAPAYS                                               38340 VOREPPE                   P 00000000000000000000                     C  BO    
380565 000048L563P102500735 AV  HENRI CHAPAYS             00000247540000000000000002475400000247540000000000          00000000000000024754          000006476000000000000000527000003936         000000000000000000000002770         000013709P                                                                       
380565 000049L563C1         22102441011140000005932000000000175     COMTE DES SOEURS              DOMINICAINES DU MONAS.NTRE DAME                                 BP 128                                                          38343 VOREPPE CEDEX             P 00000000000000000000                    HC TB N   
380565 000049L563N1         0000000000000000000000000000000000000000000000000000000000000000000000340000014100000000000000160000000000000000        000000000000005200000000000000000000000209000000000000000000000000000000000000000000000000000000000000000000000197000001970000024700000000000000000               
380565 000049L563P100774581 RTE DE CHALAIS                00000125560000000000000001255600000125560000000000          00000000000000000000          000003285000000000000000267000001996         000000000000000000000000000         000005548P                                                                       
380565 000050L563C1         22102441011140000004495000000000173SARL GARAGE DE L ECHAILLON                                         RTE NATIONALE 75                CHAMP DE LA COUR                                                38340 VOREPPE                   R 00000000000000000000                     C  BO    
380565 000050L563C2                                            M SOUQUET-GRUMEY RENE JEAN         VICTOR                                                          7 RUE DU RIF TRONCHARD                                          38120 ST EGREVE                 B                     0000                          
380565 000050L563P104689023 RTE NATIONALE 75              00000078060000000000000000780600000078060000000000          00000000000000007806          000002042000000000000000166000001241         000000000000000000000000873         000004322P                                                                       
380565 000051L563C1         22102441011140000022558000000000870SA   STE INDUSTRIELLE DE CHIMIE    ORGANIQUE                                                       53 AV DE L EUROPE                                               38120 ST EGREVE                 R 00000000000000000000                     C  BO    
380565 000051L563C2                                            SCI  EUROPEENNE                                                                                     RUE DE POMMARIN                                                38430 MOIRANS                   B                     0000                          
380565 000051L563P105760977 RUE DU POMMARIN               00000391630000000000000003916300000391630000000000          00000000000000039163          000010245000000000000000834000006227         000000000000000000000004382         000021688P                                                                       
380565 000052L563C1         22102441011140000450518000000013138SAS  ALCAN CENTRE DE RECHERCHES    DE VOREPPE                                                      BP 27                                                           38340 VOREPPE CEDEX             P 00000000000000000000                     CNTB N   
380565 000052L563N1         0000149600001496000014960000000000000000000014960000000000000000000000000000108000000000000001240000063500000000        000000000000032000000000000000000000002159000000000000000000000000000000000000000000000000000000000000000000000016000000160000002000000000000000000               
380565 000052L563P100150725 RUE ARISTIDE BERGES           00009848860000000000000098488600009848860000000000          00000000000000000000          000257646000000000000020978000156597         000000000000000000000000000         000435221                                                                        
380565 000053L563C1         22102441011140000007072000000000206SNC  STE IRB BETON                                                                                 BP 2538                                                         68058 MULHOUSE CEDEX            P 00000000000000000000                     C  B     
380565 000053L563P1B0019001 LES BALMES                    00000067800000000000000000678000000067800000000000          00000000000000000000          000001774000000000000000144000001078         000000000000000000000000000         000002996                                                                        
380565 000053L563P1B0019002 LES BALMES                    00000087570000000000000000875700000087570000000000          00000000000000000000          000002291000000000000000187000001392         000000000000000000000000000         000003870                                                                        
380565 000054L563C1         22102441011140000001980000000000076SC   STE GEMUPI                                                                                    90 RUE VICTOR CASSIEN                                           38340 VOREPPE                   P 00000000000000000000                    HC TBON   
380565 000054L563N1         0000000000000000000000000000000000000000000000000000000000000000000000000000000400000000000000000000000000000000        000000000000000200000000000000000000000006000000000000000000000000000000000000000000000000000000000000000000000006000000060000000800000000000000000               
380565 000054L563P100610090 RUE VICTOR CASSIEN            00000034270000000000000000342700000034270000000000          00000000000000003427          000000897000000000000000073000000545         000000000000000000000000383         000001898P                                                                       
380565 000055L563C1         22102441011140000000000060000000000SCI  DU 8 RUE POGNIENT                                             LE CERF                         1854 RTE DE GIRARDIERE                                          38450 VIF                       P 00000000000000000000                    H   BO D  
380565 000055L563P104000014 RUE POGNIENT                  00000000100000000000000000001000000000100000000000          00000000000000000010          000000003000000000000000000000000002         000000000000000000000000001         000000006P                                                                       
380565 000056L563C1         22102441011140000001303000000000050SA   D'HLM-STE D'HABITATIONS DE    ALPES                           BP 229                                                                                          38506 VOIRON CEDEX              E 00000000000000000000                    H N BON   
380565 000056L563C2                                                 ASS FAMILIALE ISERE AIDE      ENFANTS INFIRMES MENTAUX                                        3 AV MARIE REYNOARD                                             38029 GRENOBLE CEDEX            P                     0000                          
380565 000056L563N1         0000000800000008000000080000000000000000000000080000000000000000000000000000000600000000000000010000000300000000        000000000000000200000000000000000000000012000000000000000000000000000000000000000000000000000000000000000000000000000000000000000000000000000000000               
380565 000056L563P102450250 RUE DE GACHETIERE             00000022400000000000000000224000000022400000000000          00000000000000002240          000000586000000000000000048000000356         000000000000000000000000251         000001241P                                                                       
380565 000057L563C1         22102441011140000002000000000000077     ASS D EDUCATION POPULAIRE     DE VOREPPE                                                      40 RUE MOUILLE SOL                                              38340 VOREPPE                   P 00000000000000000000                    HC  BO    
380565 000057L563P102809003 RUE JEAN ACHARD               00000030430000000000000000304300000030430000000000          00000000000000003043          000000796000000000000000065000000484         000000000000000000000000341         000001686P                                                                       
380565 000057L563P103000101 RUE LAMBOURNAY                00000004270000000000000000042700000004270000000000          00000000000000000427          000000112000000000000000009000000068         000000000000000000000000048         000000237P                                                                       
380565 000058L563C1         22102441011140000000585000000000022SCI  ATHENA                                                        CHEZ REY RENE                   518 RTE DE LA TIVOLLIERE                                        38500 COUBLEVIE                 P 00000000000000000000                     C  BO    
380565 000058L563P102600086 RUE DE L ISLE                 00000010150000000000000000101500000010150000000000          00000000000000001015          000000266000000000000000022000000161         000000000000000000000000114         000000563P                                                                       
380565 000059L563C1         22102441011140000000920000000000035SCI  DE LA RUE PIERRE ET           MARIE CURIE                                                     126 RUE PIERRE ET MARIE CURIE                                   38340 VOREPPE                   P 00000000000000000000                    H   BO    
380565 000059L563P103920126 RUE PIERRE ET MARIE CURIE     00000015960000000000000000159600000015960000000000          00000000000000001596          000000418000000000000000034000000254         000000000000000000000000179         000000885P                                                                       
380565 000060L563C1         22102441011140000000025000000000001DEPT DEPARTEMENT DE L ISERE                                        BP 1096                         7 RUE FANTIN LATOUR                                             38022 GRENOBLE CEDEX 1          P 00000000000000000000                      NT  N   
380565 000060L563N1         0000000000000000000000000000000000000000000000000000000000000000000000040000001600000000000000020000000000000000        000000000000000600000000000000000000000024000000000000000000000000000000000000000000000000000000000000000000000023000000230000002800000000000000000               
380565 000061L563C1         22102441011140000006727000000000237EPIC SNCF SOCIETE NATIONALE DES    CHEMINS DE FE                   DIVISION APPLICATIONS FISCALES  45 RUE DE LONDRES                                               75379 PARIS CEDEX 08            P 00000000000000000000                    HCNTBON   
380565 000061L563N1         0000171800001718000017180000000000000000000017180000000000000000000000020000124500000000000001430000072900000000        000000000000036900000000000000000000002486000000000000000000000000000000000000000000000000000000000000000000000025000000250000003100000000000000000               
380565 000061L563P1B0360899BLA GARE                       00000030640000000000000000306400000030640000000000          00000000000000000018          000000802000000000000000065000000487         000000000000000000000000002         000001356P                                                                       
380565 000061L563P1B0559001 L ILE PLANCON                 00000006530000000000000000065300000006530000000000          00000000000000000000          000000171000000000000000014000000104         000000000000000000000000000         000000289                                                                        
380565 000061L563P1B0589047 LES JACQUINS                  00000005670000000000000000056700000005670000000000          00000000000000000000          000000148000000000000000012000000090         000000000000000000000000000         000000250                                                                        
380565 000061L563P100299001 RUE DE BEAUVILLAGE            00000008720000000000000000087200000008720000000000          00000000000000000872          000000228000000000000000019000000139         000000000000000000000000098         000000484P                                                                       
380565 000061L563P100309004 CHE DES BLOCKHAUS             00000029340000000000000000293400000029340000000000          00000000000000002934          000000768000000000000000062000000467         000000000000000000000000328         000001625P                                                                       
380565 000062L563C1         22102441011140000001727000000000067SCI  STE CIVILE IMMOB SAYAGH                                                                       5 RUE DU BOUTET                                                 38340 VOREPPE                   P 00000000000000000000                     C  BO    
380565 000062L563P100370005 RUE DU BOUTET                 00000029970000000000000000299700000029970000000000          00000000000000002997          000000784000000000000000064000000477         000000000000000000000000335         000001660P                                                                       
380565 000063L563C1         22102441011140000000012000000000000SEM  S A V V STE AMENAG VILLE D    VOREPPE                         MAIRIE DE VOREPPE                QUAI DOCTEUR JACQUIN                                           38340 VOREPPE                   P 00000000000000000000                      N   N   
380565 000063L563N1         0000000800000008000000080000000000000000000000080000000000000000000000000000000600000000000000010000000300000000        000000000000000200000000000000000000000012000000000000000000000000000000000000000000000000000000000000000000000000000000000000000000000000000000000               
380565 000064L563C1         22102441011140000000000040000000000SA   PROCIVIS ALPES-DAUPHINE                                                                       42 B QUAI DE FRANCE                                             38000 GRENOBLE                  P 00000000000000000000                      NT  ND  
380565 000064L563N1         0000000300000003000000030000000000000000000000030000000000000000000000000000000200000000000000000000000100000000        000000000000000100000000000000000000000004000000000000000000000000000000000000000000000000000000000000000000000000000000000000000000000000000000000               
380565 000065L563C1         22102441011140000012367000000000477SCI  GRANDE RUE                                                    CHES EPERGOS                    1 SQ PIERRE-RUIBET                                              38500 VOIRON                    P 00000000000000000000                    HC  BO    
380565 000065L563P104000013 RUE POGNIENT                  00000029090000000000000000290900000029090000000000          00000000000000002909          000000761000000000000000062000000463         000000000000000000000000326         000001612P                                                                       
380565 000065L563P104000027 RUE POGNIENT                  00000116900000000000000001169000000116900000000000          00000000000000011690          000003058000000000000000249000001859         000000000000000000000001308         000006474P                                                                       
380565 000065L563P104800054 GR  GRANDE RUE                00000013870000000000000000138700000013870000000000          00000000000000001387          000000363000000000000000030000000221         000000000000000000000000155         000000769P                                                                       
380565 000065L563P104800060 GR  GRANDE RUE                00000011070000000000000000110700000011070000000000          00000000000000001107          000000290000000000000000024000000176         000000000000000000000000124         000000614P                                                                       
380565 000065L563P104800070 GR  GRANDE RUE                00000043730000000000000000437300000043730000000000          00000000000000004373          000001144000000000000000093000000695         000000000000000000000000489         000002421P                                                                       
380565 000066L563C1         22102441011140000000848000000000033SCI  MALOSSANNE 3J                                                 ALLEE B                         4 PL BIR HAKEIM                                                 38000 GRENOBLE                  P 00000000000000000000                    H  TBON   
380565 000066L563N1         0000000000000000000000000000000000000000000000000000000000000000000000000000000000000000000000000000000000000000        000000000000000000000000000000000000000000000000000000000000000000000000000000000000000000000000000000000000000000000000000000000100000000000000000               
380565 000066L563P103210325 CHE DE MALOSSANE              00000014730000000000000000147300000014730000000000          00000000000000001473          000000385000000000000000031000000234         000000000000000000000000165         000000815P                                                                       
380565 000067L563C1         22102441011140000000071000000000003SCI  PLEIN CENTRE                                                  PAR M.AZARIO CHRYSANTE          BADIEU                                                          38110 LA TOUR DU PIN            P 00000000000000000000                    H   BO    
380565 000067L563P102500394 AV  HENRI CHAPAYS             00000001220000000000000000012200000001220000000000          00000000000000000122          000000032000000000000000003000000019         000000000000000000000000014         000000068P                                                                       
380565 000068L563C1         22102441011140000069538000000002169SAS  POMAGALSKI                                                                                    11 RUE RENE CAMPHIN                                             38600 FONTAINE                  P 00000000000000000000                     CN BON   
380565 000068L563N1         0000092700000927000009270000000000000000000009270000000000000000000000000000066200000000000000760000039300000000        000000000000019600000000000000000000001327000000000000000000000000000000000000000000000000000000000000000000000000000000000000000000000000000000000               
380565 000068L563P100150109 RUE ARISTIDE BERGES           00000245940000000000000002459400000245940000000000          00000000000000024594          000006434000000000000000524000003910         000000000000000000000002752         000013620P                                                                       
380565 000068L563P103109004 RUE LOUIS ARMAND              00001186260000000000000011862600001186260000000000          00000000000000000000          000031033000000000000002527000018862         000000000000000000000000000         000052422                                                                        
380565 000069L563C1         22102441011140000000203000000000007     ASSOCIATION SYNDICALE LIBR    DU LOT LA ROCHE                                                 394 AV HENRI CHAPAYS                                            38340 VOREPPE                   P 00000000000000000000                      N   N   
380565 000069L563N1         0000013700000137000001370000000000000000000001370000000000000000000000000000009800000000000000110000005800000000        000000000000002900000000000000000000000196000000000000000000000000000000000000000000000000000000000000000000000000000000000000000000000000000000000               
380565 000070L563C1         22102441011140000001927000000000074SCI  LAVOISIER                                                                                     BP 74                                                           38340 VOREPPE CEDEX             P 00000000000000000000                    HCN BON   
380565 000070L563N1         0000000100000001000000010000000000000000000000010000000000000000000000000000000100000000000000000000000000000000        000000000000000000000000000000000000000001000000000000000000000000000000000000000000000000000000000000000000000000000000000000000000000000000000000               
380565 000070L563P102500610 AV  HENRI CHAPAYS             00000033460000000000000000334600000033460000000000          00000000000000003346          000000875000000000000000071000000532         000000000000000000000000374         000001852P                                                                       
380565 000071L563C1         22102441011140000023299000000000898SA   SCIC HABITAT RHONE ALPES      SA DE HLM                       IMMEUBLE LE FIRST               2 AVENUE LACASSAGNE                                             69425 LYON CEDEX 03             P 00000000000000000000                    H   BO    
380565 000071L563P105220020 ALL JEAN FRANCOIS THORAND     00000134870000000000000001348700000134870000000000          00000000000000013487          000003528000000000000000287000002144         000000000000000000000001509         000007468P                                                                       
380565 000071L563P105220030 ALL JEAN FRANCOIS THORAND     00000134250000000000000001342500000134250000000000          00000000000000013425          000003512000000000000000286000002135         000000000000000000000001502         000007435P                                                                       
380565 000071L563P105220050 ALL JEAN FRANCOIS THORAND     00000135390000000000000001353900000135390000000000          00000000000000013539          000003542000000000000000288000002153         000000000000000000000001515         000007498P                                                                       
380565 000072L563C1         22102441011140000000000040000000000     ASSOCIATION SYND DE L         EMBRANCHEMENT FERRE DE VOREPPE MCENTR ALP                       347 RUE ARISTIDE BERGES                                         38340 VOREPPE                   P 00000000000000000000                      NT  ND  
380565 000072L563N1         0000000200000002000000020000000000000000000000020000000000000000000000000000000200000000000000000000000100000000        000000000000000100000000000000000000000004000000000000000000000000000000000000000000000000000000000000000000000001000000010000000100000000000000000               
380565 000073L563C1         22102441011140000002108000000000081SCI  BALLON ROUGE                                                                                  839 RTE DE CHARTREUSE                                           38340 VOREPPE                   P 00000000000000000000                    HC  BO    
380565 000073L563C2                                            MME RICHON MARTINE ALICE M         NEE ZANIER          GESTIONNAIRE839 ROUTE DE CHARTREUSE         839 RTE DE CHARTREUSE                                           38340 VOREPPE                   G                     0000                          
380565 000073L563P101600054 PL  DEBELLE                   00000012000000000000000000120000000012000000000000          00000000000000001200          000000314000000000000000026000000191         000000000000000000000000134         000000665P                                                                       
380565 000073L563P102200094 PL  DOCTEUR THEVENET          00000001650000000000000000016500000001650000000000          00000000000000000165          000000043000000000000000004000000026         000000000000000000000000018         000000091P                                                                       
380565 000073L563P102200098 PL  DOCTEUR THEVENET          00000022940000000000000000229400000022940000000000          00000000000000002294          000000600000000000000000049000000365         000000000000000000000000257         000001271P                                                                       
380565 000074L563C1         22102441011140000013784000000000531SCI  LELY GABRIEL ET MARCEL                                                                         RUE DES GRANDS CHAMPS                                          38360 SASSENAGE                 P 00000000000000000000                     C  BO    
380565 000074L563C2                                            M LELY MARCEL EDOUARD LEON                                                             GESTIONNAIRE14 RUE DU ROUTOIR                                               38360 SASSENAGE                 G                     0000                          
380565 000074L563P103290541 CHE DES MARINIERS             00000239290000000000000002392900000239290000000000          00000000000000023929          000006260000000000000000510000003805         000000000000000000000002678         000013253P                                                                       
380565 000075L563C1         22102441011140000010221000000000394SCI  GRISA FRERES                                                                                  15 CHEM DE MOLLARD CEVAL                                        38140 BEAUCROISSANT             P 00000000000000000000                     C TBON   
380565 000075L563C2                                            M CRISACI JACQUES EDOUARD ADRIEN                                                       GESTIONNAIRELE BOIS                                                         38140 BEAUCROISSANT             G                     0000                          
380565 000075L563N1         0000000000000000000000000000000000000000000000000000000000000000000000000000000400000000000000000000000000000000        000000000000000200000000000000000000000006000000000000000000000000000000000000000000000000000000000000000000000006000000060000000800000000000000000               
380565 000075L563P103100141 RUE LOUIS ARMAND              00000177330000000000000001773300000177330000000000          00000000000000017733          000004639000000000000000378000002820         000000000000000000000001984         000009821P                                                                       
380565 000076L563C1         22102441011140000001691000000000065SCI  DE L ECLUSE                                                   CHEZ BUSI SYLVAIN               370 RUE DES CARTEUX                                             38340 VOREPPE                   P 00000000000000000000                    H   BO    
380565 000076L563C2                                            M BUSI SYLVAIN                                         GESTIONNAIRE                                370 RUE DES CARTEUX                                             38340 VOREPPE                   G                     0000                          
380565 000076L563P102390021 PL  DE L ECLUSE               00000029350000000000000000293500000029350000000000          00000000000000002935          000000768000000000000000063000000467         000000000000000000000000328         000001626P                                                                       
380565 000077L563C1         22102441011140000001855000000000072SCI  DUBEAUCHENE                                                   CHEZ AABIS                      212 RUE ARISTIDE BERGES                                         38340 VOREPPE                   P 00000000000000000000                     C  BO    
380565 000077L563C2                                            M BEAUMIER NOEL AIME PAUL                                                              GESTIONNAIRE161 RUE DE LA FRANQUETTE                                        38430 ST JEAN DE MOIRANS        G                     0000                          
380565 000077L563P100150212 RUE ARISTIDE BERGES           00000032170000000000000000321700000032170000000000          00000000000000003217          000000842000000000000000069000000512         000000000000000000000000360         000001783P                                                                       
380565 000078L563C1         22102441011140000000922000000000035SCI  HORSE MED                                                                                     31 RUE ROGER DU MARAIS                                          38430 MOIRANS                   P 00000000000000000000                    H   BO    
380565 000078L563C2                                            M FERRER JEAN-MARIE                                                BAT LE FRESNE RES DU PARC       31 RUE ROGER DU MARAIS                                          38430 MOIRANS                   G                     0000                          
380565 000078L563P100349003 RUE BEYLE STENDHAL            00000016010000000000000000160100000016010000000000          00000000000000001601          000000419000000000000000034000000255         000000000000000000000000179         000000887P                                                                       
380565 000079L563C1         22102441011140000003165000000000119COAG COMMUNAUTE D AGGLOMERATION    DU PAYS VOIRONNAIS                                              40 RUE MAINSSIEUX                                               38500 VOIRON                    P 00000000000000000000                     CNTBON   
380565 000079L563N1         0000005100000051000000510000000000000000000000510000000000000000000000010000115000000000000001320000002200000000        000000000000042200000000000000000000001726000000000000000000000000000000000000000000000000000000000000000000001559000015590000194900000000000000000               
380565 000079L563P1B0489001 L ILE CHARTREUX               00000015820000000000000000158200000015820000000000          00000000000000000000          000000414000000000000000034000000252         000000000000000000000000000         000000700                                                                        
