380565       L563           TF201220120726ISERE                         VOREPPE                                                          C000000000000000000000000000000000000000000000000159000000000000000000000000000002100000                                                                                     
380565       L563A1         PVOREPPE                       2212012083120121015                               0424300002616000000000000016500000000000000492000111900000000000000000000000000000000000G071400000000000000715000000000000010600000000000PAYS VOIRONNAIS               CCC L563 243800984     L563       
380565 000001L563C1         22102441011140000038404000000001507     COMMUNE DE VOREPPE                                            MAIRIE                          1 PL CHARLES DE GAULLE                                          38340 VOREPPE                   P 00000000000000000000                    HCNTBON   
380565 000001L563N1         0000062500000625000006250000000000000625000006250000000000000000000017290000206900000000000002070000026500000000        000000070000072800000000000000000000003276000000000000000000000000000000000000000000000000000000000000000000002273000022730000284100000000000000000               
380565 000001L563P1B0340080BFAUBOURG DU PONT              00000000000000000000000000000000000000000000000000          00000000000000001583          000000000000000000000000000000000000         000000000000000000000000177         000000177P                                                                       
380565 000001L563P1B0340080CFAUBOURG DU PONT              00000000000000000000000000000000000000000000000000          00000000000000000865          000000000000000000000000000000000000         000000000000000000000000097         000000097P                                                                       
380565 000001L563P100209001 PL  ARMAND PUGNOT             00000089940000000000000000899400000089940000000000          00000089940000008994          000002353000000000000000148000001430         000000000000000044000001006         000004981P                                                                       
380565 000001L563P100210110 IMP ARTHUR RIMBAUD            00000012180000000000000000121800000012180000000000          00000012180000001218          000000319000000000000000020000000194         000000000000000006000000136         000000675P                                                                       
380565 000001L563P100330548 RUE DE BOURG VIEUX            00000000000000000000000000000000000000000000000000          00000000000000001645          000000000000000000000000000000000000         000000000000000000000000184         000000184P                                                                       
380565 000001L563P100340135 RUE BEYLE STENDHAL            00000035340000000000000000353400000035340000000000          00000035340000003534          000000924000000000000000058000000562         000000000000000017000000395         000001956P                                                                       
380565 000001L563P100340213 RUE BEYLE STENDHAL            00000020700000000000000000207000000020700000000000          00000020700000002070          000000542000000000000000034000000329         000000000000000010000000232         000001147P                                                                       
380565 000001L563P100400005 RUE DU CARRE                  00000023620000000000000000236200000023620000000000          00000023620000002362          000000618000000000000000039000000376         000000000000000012000000264         000001309P                                                                       
380565 000001L563P101209001 QUAI DES CHARTREUX            00000006650000000000000000066500000006650000000000          00000006650000000665          000000174000000000000000011000000106         000000000000000003000000074         000000368P                                                                       
380565 000001L563P102500072 AV  HENRI CHAPAYS             00000000000000000000000000000000000000000000000000          00000000000000002626          000000000000000000000000000000000000         000000000000000000000000294         000000294P                                                                       
380565 000001L563P102560349 AV  HONORE DE BALZAC          00000009490000000000000000094900000009490000000000          00000009490000000949          000000248000000000000000016000000151         000000000000000005000000106         000000526P                                                                       
380565 000001L563P102560351 AV  HONORE DE BALZAC          00000008780000000000000000087800000008780000000000          00000008780000000878          000000230000000000000000014000000140         000000000000000004000000098         000000486P                                                                       
380565 000001L563P102560365 AV  HONORE DE BALZAC          00000018830000000000000000188300000018830000000000          00000018830000001883          000000493000000000000000031000000299         000000000000000009000000211         000001043P                                                                       
380565 000001L563P102830294 RUE JEAN MOULIN               00000000000000000000000000000000000000000000000000          00000000000000002743          000000000000000000000000000000000000         000000000000000000000000307         000000307P                                                                       
380565 000001L563P102860390 CHE JULES RENARD              00000027750000000000000000277500000027750000000000          00000027750000000000          000000726000000000000000046000000441         000000000000000014000000000         000001227                                                                        
380565 000001L563P103490445 RUE DE NARDAN                 00000012330000000000000000123300000012330000000000          00000012330000001233          000000323000000000000000020000000196         000000000000000006000000138         000000683P                                                                       
380565 000001L563P103890055 RUE DU PEUIL                  00000334500000000000000003345000000334500000000000          00000334500000027804          000008751000000000000000552000005319         000000000000000165000003111         000017898P                                                                       
380565 000001L563P104950075 CHE DES SEITES                00000004750000000000000000047500000004750000000000          00000004750000000475          000000124000000000000000008000000076         000000000000000002000000053         000000263P                                                                       
380565 000002L563C1         22102441011140000017170000000000671SA   ANDEFF SYNERGIE                                                                               570 AV HENRI CHAPAYS                                            38340 VOREPPE                   P 00000000000000000000                    HC TBON   
380565 000002L563N1         0000000000000000000000000000000000000000000000000000000000000000000000000000000100000000000000000000000000000000        000000000000000000000000000000000000000001000000000000000000000000000000000000000000000000000000000000000000000001000000010000000100000000000000000               
380565 000002L563P102500570 AV  HENRI CHAPAYS             00000011150000000000000000111500000011150000000000          00000011150000001115          000000292000000000000000018000000177         000000000000000005000000125         000000617P                                                                       
380565 000002L563P103039002 IMP LAVOISIER                 00000286700000000000000002867000000286700000000000          00000286700000028670          000007500000000000000000473000004559         000000000000000141000003208         000015881P                                                                       
380565 000003L563C1         22102441011140000100723000000003893EPIC OPAC DE L'ISERE                                                                               47 AV MARIE REYNOARD                                            38035 GRENOBLE CEDEX 2          P 00000000000000000000                    H   BO    
380565 000003L563P100320015 CHE DES BUIS                  00000087760000000000000000877600000087760000000000          00000000000000008776          000002296000000000000000145000001395         000000000000000000000000982         000004818P                                                                       
380565 000003L563P100320031 CHE DES BUIS                  00000085120000000000000000851200000085120000000000          00000000000000008512          000002227000000000000000140000001353         000000000000000000000000952         000004672P                                                                       
380565 000003L563P100340122 RUE BEYLE STENDHAL            00000054660000000000000000546600000054660000000000          00000000000000005466          000001430000000000000000090000000869         000000000000000000000000612         000003001P                                                                       
380565 000003L563P102469001 ALL DES FUSAINS               00000033840000000000000000338400000033840000000000          00000000000000003384          000000885000000000000000056000000538         000000000000000000000000379         000001858P                                                                       
380565 000003L563P102720384 AV  JACQUES PREVERT           00000507650000000000000005076500000507650000000000          00000000000000050765          000013280000000000000000838000008072         000000000000000000000005681         000027871P                                                                       
380565 000003L563P102840015 RUE JEAN PREVOST              00000589570000000000000005895700000589570000000000          00000000000000058957          000015423000000000000000973000009374         000000000000000000000006597         000032367P                                                                       
380565 000003L563P105170030 RUE THEODORE RAVANAT          00000191370000000000000001913700000191370000000000          00000000000000019137          000005006000000000000000316000003043         000000000000000000000002141         000010506P                                                                       
380565 000003L563P105170060 RUE THEODORE RAVANAT          00000195120000000000000001951200000195120000000000          00000000000000019512          000005104000000000000000322000003102         000000000000000000000002183         000010711P                                                                       
380565 000003L563P105509001 RUE DE VOLOUISE               00000018700000000000000000187000000018700000000000          00000000000000001870          000000489000000000000000031000000297         000000000000000000000000209         000001026P                                                                       
380565 000004L563C1         22102441011140000005161000000000202SA   S A DU CLOS DE SAINT NIZIE                                                                    94 CHE SAINTE CLAIRE                                            38340 VOREPPE                   P 00000000000000000000                    H  TBON   
380565 000004L563N1         0000000000000000000000000000000000000000000000000000000000000000000000010000016200000000000000160000000000000000        000000000000005900000000000000000000000237000000000000000000000000000000000000000000000000000000000000000000000227000002270000028300000000000000000               
380565 000004L563P104840094 CHE SAINTE CLAIRE             00000085250000000000000000852500000085250000000000          00000085250000008525          000002230000000000000000141000001355         000000000000000042000000954         000004722P                                                                       
380565 000005L563C1         22102441011140000020399000000000792SC   S C I DES PORTIERES                                                                           55 RUE DE PLEIN SOLEIL                                          38340 VOREPPE                   P 00000000000000000000                    H N BON   
380565 000005L563N1         0000001300000013000000130000000000000013000000130000000000000000000000000000000900000000000000010000000600000000        000000000000000300000000000000000000000019000000000000000000000000000000000000000000000000000000000000000000000000000000000000000000000000000000000               
380565 000005L563P104160463 RUE DU PORT                   00000317970000000000000003179700000317970000000000          00000317970000031797          000008318000000000000000525000005056         000000000000000156000003558         000017613P                                                                       
380565 000005L563P104169006 RUE DU PORT                   00000001870000000000000000018700000001870000000000          00000001870000000187          000000049000000000000000003000000030         000000000000000001000000021         000000104P                                                                       
380565 000005L563P104169007 RUE DU PORT                   00000001870000000000000000018700000001870000000000          00000001870000000187          000000049000000000000000003000000030         000000000000000001000000021         000000104P                                                                       
380565 000005L563P104169008 RUE DU PORT                   00000001870000000000000000018700000001870000000000          00000001870000000187          000000049000000000000000003000000030         000000000000000001000000021         000000104P                                                                       
380565 000005L563P104169009 RUE DU PORT                   00000001870000000000000000018700000001870000000000          00000001870000000187          000000049000000000000000003000000030         000000000000000001000000021         000000104P                                                                       
380565 000005L563P104169010 RUE DU PORT                   00000001870000000000000000018700000001870000000000          00000001870000000187          000000049000000000000000003000000030         000000000000000001000000021         000000104P                                                                       
380565 000005L563P104169011 RUE DU PORT                   00000001870000000000000000018700000001870000000000          00000001870000000187          000000049000000000000000003000000030         000000000000000001000000021         000000104P                                                                       
380565 000005L563P104169012 RUE DU PORT                   00000001870000000000000000018700000001870000000000          00000001870000000187          000000049000000000000000003000000030         000000000000000001000000021         000000104P                                                                       
380565 000005L563P104169013 RUE DU PORT                   00000001870000000000000000018700000001870000000000          00000001870000000187          000000049000000000000000003000000030         000000000000000001000000021         000000104P                                                                       
380565 000005L563P104169014 RUE DU PORT                   00000001870000000000000000018700000001870000000000          00000001870000000187          000000049000000000000000003000000030         000000000000000001000000021         000000104P                                                                       
380565 000005L563P104169015 RUE DU PORT                   00000001870000000000000000018700000001870000000000          00000001870000000187          000000049000000000000000003000000030         000000000000000001000000021         000000104P                                                                       
380565 000005L563P104169016 RUE DU PORT                   00000001870000000000000000018700000001870000000000          00000001870000000187          000000049000000000000000003000000030         000000000000000001000000021         000000104P                                                                       
380565 000005L563P104169017 RUE DU PORT                   00000001870000000000000000018700000001870000000000          00000001870000000187          000000049000000000000000003000000030         000000000000000001000000021         000000104P                                                                       
380565 000005L563P104169018 RUE DU PORT                   00000003740000000000000000037400000003740000000000          00000003740000000374          000000098000000000000000006000000059         000000000000000002000000042         000000207P                                                                       
380565 000005L563P104169020 RUE DU PORT                   00000001870000000000000000018700000001870000000000          00000001870000000187          000000049000000000000000003000000030         000000000000000001000000021         000000104P                                                                       
380565 000005L563P104169021 RUE DU PORT                   00000001870000000000000000018700000001870000000000          00000001870000000187          000000049000000000000000003000000030         000000000000000001000000021         000000104P                                                                       
380565 000005L563P104169022 RUE DU PORT                   00000001870000000000000000018700000001870000000000          00000001870000000187          000000049000000000000000003000000030         000000000000000001000000021         000000104P                                                                       
380565 000005L563P104169023 RUE DU PORT                   00000001870000000000000000018700000001870000000000          00000001870000000187          000000049000000000000000003000000030         000000000000000001000000021         000000104P                                                                       
380565 000005L563P104169024 RUE DU PORT                   00000001870000000000000000018700000001870000000000          00000001870000000187          000000049000000000000000003000000030         000000000000000001000000021         000000104P                                                                       
380565 000006L563C1         22102441011140000000000010000000000     S C I DE VILLENEUVE                                                                           10 RUE HUMBERT 2                                                38000 GRENOBLE                  P 00000000000000000000                      N   ND  
380565 000006L563N1         0000000100000001000000010000000000000001000000010000000000000000000000000000000100000000000000000000000000000000        000000000000000000000000000000000000000001000000000000000000000000000000000000000000000000000000000000000000000000000000000000000000000000000000000               
380565 000007L563C1         22102441011140000000000030000000000SC   S C PARTICULIERE RACIN                                                                        1 RUE DE PARADIS                                                75010 PARIS                     P 00000000000000000000                       T  ND  
380565 000007L563N1         0000000000000000000000000000000000000000000000000000000000000000000000000000000200000000000000000000000000000000        000000000000000100000000000000000000000003000000000000000000000000000000000000000000000000000000000000000000000003000000030000000300000000000000000               
380565 000008L563C1         22102441011140000000614000000000025     ASS BEAUREGARD FOYERS ET      INTERNATS D EDUCATION SPECIALISE                                9 PL SAINT-BRUNO                                                38000 GRENOBLE                  P 00000000000000000000                       T  N   
380565 000008L563N1         0000000000000000000000000000000000000000000000000000000000000000000000000000040100000000000000400000000000000000        000000000000014800000000000000000000000589000000000000000000000000000000000000000000000000000000000000000000000562000005620000070300000000000000000               
380565 000009L563C1         22102441011140000000144000000000006SA   TRANSPORT FERNAND LELY ET     FILS                                                            37 RUE PIERRE SEMARD                                            38600 FONTAINE                  P 00000000000000000000                       T  N   
380565 000009L563N1         0000000000000000000000000000000000000000000000000000000000000000000001650000009400000000000000090000000000000000        000000000000003500000000000000000000000138000000000000000000000000000000000000000000000000000000000000000000000132000001320000016500000000000000000               
380565 000010L563C1         22102441011140000000217000000000009     SYNDICAT DE PIQUE PIERRE                                                                      2 CHE DES MARRONNIERS                                           38100 GRENOBLE                  P 00000000000000000000                       T  N   
380565 000010L563N1         0000000000000000000000000000000000000000000000000000000000000000000000000000014200000000000000140000000000000000        000000000000005200000000000000000000000208000000000000000000000000000000000000000000000000000000000000000000000199000001990000024900000000000000000               
380565 000011L563C1         22102441011140000000017000000000000     SYNDICAT DE VOREPPE A         MOIRANS                                                         2 CHE DES MARRONNIERS                                           38100 GRENOBLE                  P 00000000000000000000                       T  N   
380565 000011L563N1         0000000000000000000000000000000000000000000000000000000000000000000000000000001200000000000000010000000000000000        000000000000000400000000000000000000000017000000000000000000000000000000000000000000000000000000000000000000000017000000170000002100000000000000000               
380565 000012L563C1         22102441011140000002204000000000086     SYNDICAT ECLESIASTIQUE DE     GRENOBLE                        CHEZ AEP                        402 RUE DE NARDAN                                               38340 VOREPPE                   P 00000000000000000000                    HC TBON   
380565 000012L563N1         0000000000000000000000000000000000000000000000000000000000000000000000000000000100000000000000000000000000000000        000000000000000000000000000000000000000001000000000000000000000000000000000000000000000000000000000000000000000001000000010000000100000000000000000               
380565 000012L563P103490402 RUE DE NARDAN                 00000013270000000000000000132700000013270000000000          00000013270000001327          000000347000000000000000022000000211         000000000000000007000000148         000000735P                                                                       
380565 000012L563P103490408 RUE DE NARDAN                 00000024950000000000000000249500000024950000000000          00000024950000002495          000000653000000000000000041000000397         000000000000000012000000279         000001382P                                                                       
380565 000013L563C1         22102441011140000027242000000000810SA   DISTRIBUTION ALPINE DU        VERRE DAVER                                                     BP 34                                                           38340 VOREPPE                   P 00000000000000000000                     C  B     
380565 000013L563P102430086 RUE EMILE ROMANET             00000597990000000000000005979900000597990000000000          00000597990000000000          000015643000000000000000987000009508         000000000000000294000000000         000026432                                                                        
380565 000014L563C1         22102441011140000001103000000000033SCA  COOPERATIVE DAUPHINOISE                                                                       42 RUE DU ONZE NOVEMBRE                                         38200 VIENNE                    P 00000000000000000000                     C  B     
380565 000014L563P103159001 RUE LOUIS VICAT               00000024210000000000000000242100000024210000000000          00000024210000000000          000000633000000000000000040000000385         000000000000000012000000000         000001070                                                                        
380565 000015L563C1         22102441011140000002104000000000083SARL DAUPHI MAREE                                                                                  428 RUE EMILE ROMANET                                           38340 VOREPPE                   P 00000000000000000000                    HC  BO    
380565 000015L563P102430428 RUE EMILE ROMANET             00000016570000000000000000165700000016570000000000          00000016570000001657          000000433000000000000000027000000263         000000000000000008000000185         000000916P                                                                       
380565 000015L563P102439001 RUE EMILE ROMANET             00000019950000000000000000199500000019950000000000          00000019950000001995          000000522000000000000000033000000317         000000000000000010000000223         000001105P                                                                       
380565 000016L563C1         22102441011140000003673000000000144     SCI LOC ARTISAN                                                                               BP 235                                                          38400 ST MARTIN D HERES         P 00000000000000000000                     C  BO    
380565 000016L563P104650419 RUE DE LA RESISTANCE          00000063730000000000000000637300000063730000000000          00000063730000006373          000001667000000000000000105000001013         000000000000000031000000713         000003529P                                                                       
380565 000017L563C1         22102441011140000006515000000000195     SCI DE BRANDEGAUDIERE                                                                         BP 142                                                          38343 VOREPPE CEDEX             P 00000000000000000000                     C TB N   
380565 000017L563N1         0000000000000000000000000000000000000000000000000000000000000000000000000000006700000000000000070000000000000000        000000000000002500000000000000000000000099000000000000000000000000000000000000000000000000000000000000000000000094000000940000011700000000000000000               
380565 000017L563P100309001 CHE DES BLOCKHAUS             00000140750000000000000001407500000140750000000000          00000140750000000000          000003682000000000000000232000002238         000000000000000069000000000         000006221                                                                        
380565 000018L563C1         22102441011140000014796000000000578SCI  S C I DE L HOIRIE                                                                             241 CHE DES BLOCKHAUS                                           38340 VOREPPE                   P 00000000000000000000                    H   BO    
380565 000018L563P102560442 AV  HONORE DE BALZAC          00000132740000000000000001327400000132740000000000          00000132740000013274          000003472000000000000000219000002111         000000000000000065000001485         000007352P                                                                       
380565 000018L563P102560470 AV  HONORE DE BALZAC          00000123940000000000000001239400000123940000000000          00000123940000012394          000003242000000000000000205000001971         000000000000000061000001387         000006866P                                                                       
380565 000019L563C1         22102441011140000016139000000000630SCI  LE VERCORS                                                    PISANCON                        799 RN 532                                                      26300 CHATUZANGE LE GOUBET      P 00000000000000000000                    HC  BO    
380565 000019L563P102430305 RUE EMILE ROMANET             00000279970000000000000002799700000279970000000000          00000279970000027997          000007324000000000000000462000004452         000000000000000138000003133         000015509P                                                                       
380565 000020L563C1         22102441011140000007768000000000304SCI  CADO                                                          CHEZ M CARROT MARCEL            104 IMP DE SAUVIOU                                              83140 SIX FOURS LES PLAGES      P 00000000000000000000                     C  BO    
380565 000020L563P102480039 RUE DE LA GARE                00000134750000000000000001347500000134750000000000          00000134750000013475          000003525000000000000000222000002143         000000000000000066000001508         000007464P                                                                       
380565 000021L563C1         22102441011140000019796000000000589SCI  VOREPPE USINE                                                 IMMOBILIER FRANCE REGIE         24 PL GRENETTE                                                  38000 GRENOBLE                  P 00000000000000000000                     C  B     
380565 000021L563P103100085 RUE LOUIS ARMAND              00000434510000000000000004345100000434510000000000          00000434510000000000          000011367000000000000000717000006909         000000000000000214000000000         000019207                                                                        
380565 000022L563C1         22102441011140000001069000000000042SIVO SIVOM D'AMENAGEMENT DE        MOIRANS-VOREPPE                 PAR CAPV                        40 RUE MAINSSIEUX                                               38500 VOIRON                    P 00000000000000000000                      NT  N   
380565 000022L563N1         0000009800000098000000980000000000000098000000980000000000000000000000000000067400000000000000670000004200000000        000000010000024300000000000000000000001027000000000000000000000000000000000000000000000000000000000000000000000846000008460000105800000000000000000               
380565 000023L563C1         22102441011140000034014000000001328SCI  DU CHAMP DE LA COUR                                           PAR M  REPELLIN JACQUES         18 AV ALSACE LORRAINE                                           38000 GRENOBLE                  P 00000000000000000000                     C  BO    
380565 000023L563P102500557 AV  HENRI CHAPAYS             00000590090000000000000005900900000590090000000000          00000590090000059009          000015437000000000000000974000009382         000000000000000290000006603         000032686P                                                                       
380565 000024L563C1         22102441011140000017048000000000666SCI  DAUPHINOISE                                                   PAR M RICHARD JEAN FRANCOIS     29 RUE DE LA CROIX-ROUSSE                                       38500 VOIRON                    P 00000000000000000000                    HC  BO    
380565 000024L563P102430511 RUE EMILE ROMANET             00000295750000000000000002957500000295750000000000          00000295750000029575          000007737000000000000000488000004702         000000000000000146000003309         000016382P                                                                       
380565 000025L563C1         22102441011140000000375000000000011SAS  TDF                                                           SECTEUR FISCAL                  106 AV MARX DORMOY                                              92120 MONTROUGE                 P 00000000000000000000                     C  B     
380565 000025L563P103890221 RUE DU PEUIL                  00000008230000000000000000082300000008230000000000          00000008230000000000          000000215000000000000000014000000131         000000000000000004000000000         000000364                                                                        
380565 000026L563C1         22102441011140000000000080000000000     COMMUNE DE VOREPPE                                            MAIRIE                          1 PL CHARLES DE GAULLE                                          38340 VOREPPE                   E 00000000000000000000                       T  ND  
380565 000026L563C2                                                 ASS D EDUCATION POPULAIRE     DE VOREPPE                                                      40 RUE MOUILLE SOL                                              38340 VOREPPE                   P                     0000                          
380565 000026L563N1         0000000000000000000000000000000000000000000000000000000000000000000000000000000500000000000000010000000000000000        000000000000000200000000000000000000000008000000000000000000000000000000000000000000000000000000000000000000000007000000070000000800000000000000000               
380565 000027L563C1         22102441011140000004992000000000149SA   SMAG STE DE MATERIAUX         AGGLOMERES GRENOBLOIS                                           126 CHE DE L ILE DU PONT                                        38340 VOREPPE                   P 00000000000000000000                     C  B     
380565 000027L563P101739001 CHE DES DIGUES                00000109570000000000000001095700000109570000000000          00000109570000000000          000002866000000000000000181000001742         000000000000000054000000000         000004843                                                                        
380565 000028L563C1         22102441011140000102865000000003063SA   STEPAN EUROPE                                                                                 BP 127                                                          38340 VOREPPE CEDEX             P 00000000000000000000                     C TB N   
380565 000028L563N1         0000000000000000000000000000000000000000000000000000000000000000000000020000016500000000000000170000000000000000        000000000000006100000000000000000000000243000000000000000000000000000000000000000000000000000000000000000000000231000002310000028900000000000000000               
380565 000028L563P102859002 CHE JONGKING                  00002260280000000000000022602800002238280000000000          00002260280000000000          000059129000000000000003729000035589         000000000000001112000000000         000099559                                                                        
380565 000029L563C1         22102441011140000007798000000000304     SCI LA TIVOLIERE                                              PAR M MOREL                     270 RUE EMILE ROMANET                                           38340 VOREPPE                   P 00000000000000000000                     C  BO    
380565 000029L563P102430270 RUE EMILE ROMANET             00000135280000000000000001352800000135280000000000          00000135280000013528          000003539000000000000000223000002151         000000000000000067000001514         000007494P                                                                       
380565 000030L563C1         22102441011140000002198000000000086SCI  DIS BRO                                                                                       35 CHE DES LILAS                                                38340 VOREPPE                   P 00000000000000000000                    H N BON   
380565 000030L563N1         0000001200000012000000120000000000000012000000120000000000000000000000000000000900000000000000010000000500000000        000000000000000300000000000000000000000018000000000000000000000000000000000000000000000000000000000000000000000000000000000000000000000000000000000               
380565 000030L563P100370446 RUE DU BOUTET                 00000013600000000000000000136000000013600000000000          00000013600000001360          000000356000000000000000022000000216         000000000000000007000000152         000000753P                                                                       
380565 000030L563P103050035 CHE DES LILAS                 00000024200000000000000000242000000024200000000000          00000024200000002420          000000633000000000000000040000000385         000000000000000012000000271         000001341P                                                                       
380565 000031L563C1         22102441011140000007251000000000284     SCI DES JACQUINS                                              PAR M MARSUC GERARD             62 IMP JEAN DE LA FONTAINE                                      38340 VOREPPE                   P 00000000000000000000                    H   BO    
380565 000031L563P102940062 IMP JEAN DE LA FONTAINE       00000125770000000000000001257700000125770000000000          00000125770000012577          000003290000000000000000208000002000         000000000000000062000001407         000006967P                                                                       
380565 000032L563C1         22102441011140000000000010000000000SA   PROCIVIS ALPES-DAUPHINE                                                                       21 BD MAL FOCH                                                  38100 GRENOBLE                  P 00000000000000000000                       T  ND  
380565 000032L563N1         0000000000000000000000000000000000000000000000000000000000000000000000010000000100000000000000000000000000000000        000000000000000000000000000000000000000001000000000000000000000000000000000000000000000000000000000000000000000001000000010000000100000000000000000               
380565 000033L563C1         22102441011140000000000080000000000     ASS DIOCESAINE DE GRENOBLE                                                                    12 PLACE LAVALETTE                                              38028 GRENOBLE CEDEX 1          P 00000000000000000000                       T  ND  
380565 000033L563N1         0000000000000000000000000000000000000000000000000000000000000000000000000000000500000000000000010000000000000000        000000000000000200000000000000000000000008000000000000000000000000000000000000000000000000000000000000000000000007000000070000000900000000000000000               
380565 000034L563C1         22102441011140000002952000000000115SCI  LES LAURIERS                                                                                  799 ROUTE NATIONALE 532                                         26300 BOURG DE PEAGE            P 00000000000000000000                     C  BO    
380565 000034L563P102430359 RUE EMILE ROMANET             00000051220000000000000000512200000051220000000000          00000051220000005122          000001340000000000000000085000000814         000000000000000025000000573         000002837P                                                                       
380565 000035L563C1         22102441011140000079346000000002363SAS  ALUMINIUM PECHINEY                                                                            725 RUE ARISTIDE BERGES                                         38340 VOREPPE                   P 00000000000000000000                     CNTB N   
380565 000035L563N1         0000061000000610000006100000000000000610000006100000000000000000000000000000043900000000000000440000025900000000        000000060000012900000000000000000000000877000000000000000000000000000000000000000000000000000000000000000000000005000000050000000600000000000000000               
380565 000035L563P100150725 RUE ARISTIDE BERGES           00001723480000000000000017234800001723480000000000          00001570150000000000          000045086000000000000002844000027403         000000000000000773000000000         000076106                                                                        
380565 000036L563C1         22102441011140000016583000000000648SCI  MGB IMMOBILIERE                                                                               BP 136                                                          38343 VOREPPE CEDEX             P 00000000000000000000                     C  BO    
380565 000036L563P102920925 RTE DE L ISERE                00000287670000000000000002876700000287670000000000          00000287670000028767          000007525000000000000000475000004574         000000000000000142000003219         000015935P                                                                       
380565 000037L563C1         22102441011140000000000020000000000     SYNDICAT DU LOTISSEMENT LE    PEUPLIERS 2                                                     SAINT VINCENT DU PLATRE                                         38340 VOREPPE                   P 00000000000000000000                      N   ND  
380565 000037L563N1         0000000200000002000000020000000000000002000000020000000000000000000000000000000100000000000000000000000100000000        000000000000000000000000000000000000000002000000000000000000000000000000000000000000000000000000000000000000000000000000000000000000000000000000000               
380565 000038L563C1         22102441011140000002743000000000107SCI  DE LA RUE DE LA               RESISTANCE                                                      105 RUE DE LA RESISTANCE                                        38340 VOREPPE                   P 00000000000000000000                    HC  BO    
380565 000038L563P104650105 RUE DE LA RESISTANCE          00000047580000000000000000475800000047580000000000          00000047580000004758          000001245000000000000000079000000757         000000000000000023000000532         000002636P                                                                       
380565 000039L563C1         22102441011140000001465000000000055SAS  BLANDINO ET MAZZILLI BM                                                                       LES BALMES                                                      38340 VOREPPE                   P 00000000000000000000                    HCNTBON   
380565 000039L563N1         0000034500000345000003450000000000000345000003450000000000000000000000000000025400000000000000250000014600000000        000000040000007500000000000000000000000504000000000000000000000000000000000000000000000000000000000000000000000011000000110000001400000000000000000               
380565 000039L563P101209002 QUAI DES CHARTREUX            00000005830000000000000000058300000005830000000000          00000005830000000583          000000153000000000000000010000000093         000000000000000003000000065         000000324P                                                                       
380565 000039L563P102500322 AV  HENRI CHAPAYS             00000010530000000000000000105300000010530000000000          00000010530000001053          000000275000000000000000017000000167         000000000000000005000000118         000000582P                                                                       
380565 000040L563C1         22102441011140000000013000000000000SARL ENTREPRISE FAVRE                                                                              2 RUE DE SORNIN                                                 38360 SASSENAGE                 P 00000000000000000000                       T  N   
380565 000040L563N1         0000000000000000000000000000000000000000000000000000000000000000000000000000000900000000000000010000000000000000        000000000000000300000000000000000000000013000000000000000000000000000000000000000000000000000000000000000000000012000000120000001500000000000000000               
380565 000041L563C1         22102441011140000000000020000000000     ASSOCIATION SYNDICALE LIBR    DES RESIDENCES DE VOLOUISE      PAR FONTAINE GUY                ALLE XAVIER PICHAT                                              38340 VOREPPE                   P 00000000000000000000                      N   ND  
380565 000041L563N1         0000000200000002000000020000000000000002000000020000000000000000000000000000000100000000000000000000000100000000        000000000000000000000000000000000000000002000000000000000000000000000000000000000000000000000000000000000000000000000000000000000000000000000000000               
380565 000042L563C1         22102441011140000143387000000004315SA   RADIALL                                                                                       101 RUE PHILIBERT HOFFMANN                                      93110 ROSNY SOUS BOIS           P 00000000000000000000                    HC  BO    
380565 000042L563P100159001 RUE ARISTIDE BERGES           00000058750000000000000000587500000058750000000000          00000058750000005875          000001537000000000000000097000000934         000000000000000029000000657         000003254P                                                                       
380565 000042L563P102430522 RUE EMILE ROMANET             00000408370000000000000004083700000408370000000000          00000408370000002885          000010683000000000000000674000006493         000000000000000201000000323         000018374P                                                                       
380565 000042L563P102430642 RUE EMILE ROMANET             00002657010000000000000026570100002657010000000000          00002657010000000000          000069507000000000000004384000042246         000000000000001307000000000         000117444                                                                        
380565 000043L563C1         22102441011140000014277000000000929SA   SDH                                                           BP 128                          34 AV DE GRUGLIASCO                                             38130 ECHIROLLES                P 00000000000000000000                    H NT ON   
380565 000043L563N1         0000219200002192000021920000000000002192000021920000000000000000000000000000161900000000000001620000093000000000        000000230000048000000000000000000000003214000000000000000000000000000000000000000000000000000000000000000000000075000000750000009300000000000000000               
380565 000043L563P105810012 ALL DU 19 MARS 1962           00000000000000000000000000000000000000000000000000          00000000000000001462          000000000000000000000000000000000000         000000000000000000000000164         000000164P                                                                       
380565 000043L563P105810014 ALL DU 19 MARS 1962           00000000000000000000000000000000000000000000000000          00000000000000001462          000000000000000000000000000000000000         000000000000000000000000164         000000164P                                                                       
380565 000043L563P105810026 ALL DU 19 MARS 1962           00000000000000000000000000000000000000000000000000          00000000000000001462          000000000000000000000000000000000000         000000000000000000000000164         000000164P                                                                       
380565 000043L563P105810028 ALL DU 19 MARS 1962           00000000000000000000000000000000000000000000000000          00000000000000001462          000000000000000000000000000000000000         000000000000000000000000164         000000164P                                                                       
380565 000043L563P105810044 ALL DU 19 MARS 1962           00000000000000000000000000000000000000000000000000          00000000000000001462          000000000000000000000000000000000000         000000000000000000000000164         000000164P                                                                       
380565 000043L563P105810046 ALL DU 19 MARS 1962           00000000000000000000000000000000000000000000000000          00000000000000001462          000000000000000000000000000000000000         000000000000000000000000164         000000164P                                                                       
380565 000043L563P105810055 ALL DU 19 MARS 1962           00000000000000000000000000000000000000000000000000          00000000000000001309          000000000000000000000000000000000000         000000000000000000000000146         000000146P                                                                       
380565 000043L563P105810060 ALL DU 19 MARS 1962           00000000000000000000000000000000000000000000000000          00000000000000001462          000000000000000000000000000000000000         000000000000000000000000164         000000164P                                                                       
380565 000043L563P105810062 ALL DU 19 MARS 1962           00000000000000000000000000000000000000000000000000          00000000000000001462          000000000000000000000000000000000000         000000000000000000000000164         000000164P                                                                       
380565 000043L563P105810067 ALL DU 19 MARS 1962           00000000000000000000000000000000000000000000000000          00000000000000001309          000000000000000000000000000000000000         000000000000000000000000146         000000146P                                                                       
380565 000043L563P105810069 ALL DU 19 MARS 1962           00000000000000000000000000000000000000000000000000          00000000000000001462          000000000000000000000000000000000000         000000000000000000000000164         000000164P                                                                       
380565 000043L563P105810078 ALL DU 19 MARS 1962           00000000000000000000000000000000000000000000000000          00000000000000001462          000000000000000000000000000000000000         000000000000000000000000164         000000164P                                                                       
380565 000043L563P105810080 ALL DU 19 MARS 1962           00000000000000000000000000000000000000000000000000          00000000000000001462          000000000000000000000000000000000000         000000000000000000000000164         000000164P                                                                       
380565 000043L563P105810085 ALL DU 19 MARS 1962           00000000000000000000000000000000000000000000000000          00000000000000001462          000000000000000000000000000000000000         000000000000000000000000164         000000164P                                                                       
380565 000043L563P105810087 ALL DU 19 MARS 1962           00000000000000000000000000000000000000000000000000          00000000000000001309          000000000000000000000000000000000000         000000000000000000000000146         000000146P                                                                       
380565 000043L563P105810096 ALL DU 19 MARS 1962           00000000000000000000000000000000000000000000000000          00000000000000001462          000000000000000000000000000000000000         000000000000000000000000164         000000164P                                                                       
380565 000043L563P105810097 ALL DU 19 MARS 1962           00000000000000000000000000000000000000000000000000          00000000000000001309          000000000000000000000000000000000000         000000000000000000000000146         000000146P                                                                       
380565 000043L563P105810098 ALL DU 19 MARS 1962           00000000000000000000000000000000000000000000000000          00000000000000001462          000000000000000000000000000000000000         000000000000000000000000164         000000164P                                                                       
380565 000043L563P105810099 ALL DU 19 MARS 1962           00000000000000000000000000000000000000000000000000          00000000000000001462          000000000000000000000000000000000000         000000000000000000000000164         000000164P                                                                       
380565 000043L563P105810113 ALL DU 19 MARS 1962           00000000000000000000000000000000000000000000000000          00000000000000001462          000000000000000000000000000000000000         000000000000000000000000164         000000164P                                                                       
380565 000043L563P105810114 ALL DU 19 MARS 1962           00000000000000000000000000000000000000000000000000          00000000000000001462          000000000000000000000000000000000000         000000000000000000000000164         000000164P                                                                       
380565 000043L563P105810115 ALL DU 19 MARS 1962           00000000000000000000000000000000000000000000000000          00000000000000001309          000000000000000000000000000000000000         000000000000000000000000146         000000146P                                                                       
380565 000043L563P105810116 ALL DU 19 MARS 1962           00000000000000000000000000000000000000000000000000          00000000000000001462          000000000000000000000000000000000000         000000000000000000000000164         000000164P                                                                       
380565 000043L563P105810125 ALL DU 19 MARS 1962           00000000000000000000000000000000000000000000000000          00000000000000001309          000000000000000000000000000000000000         000000000000000000000000146         000000146P                                                                       
380565 000043L563P105810127 ALL DU 19 MARS 1962           00000000000000000000000000000000000000000000000000          00000000000000001462          000000000000000000000000000000000000         000000000000000000000000164         000000164P                                                                       
380565 000043L563P105810130 ALL DU 19 MARS 1962           00000000000000000000000000000000000000000000000000          00000000000000001462          000000000000000000000000000000000000         000000000000000000000000164         000000164P                                                                       
380565 000043L563P105810132 ALL DU 19 MARS 1962           00000000000000000000000000000000000000000000000000          00000000000000001462          000000000000000000000000000000000000         000000000000000000000000164         000000164P                                                                       
380565 000043L563P105810143 ALL DU 19 MARS 1962           00000000000000000000000000000000000000000000000000          00000000000000001462          000000000000000000000000000000000000         000000000000000000000000164         000000164P                                                                       
380565 000043L563P105810145 ALL DU 19 MARS 1962           00000000000000000000000000000000000000000000000000          00000000000000001309          000000000000000000000000000000000000         000000000000000000000000146         000000146P                                                                       
380565 000043L563P105810152 ALL DU 19 MARS 1962           00000000000000000000000000000000000000000000000000          00000000000000001462          000000000000000000000000000000000000         000000000000000000000000164         000000164P                                                                       
380565 000043L563P105810155 ALL DU 19 MARS 1962           00000000000000000000000000000000000000000000000000          00000000000000001309          000000000000000000000000000000000000         000000000000000000000000146         000000146P                                                                       
380565 000043L563P105810157 ALL DU 19 MARS 1962           00000000000000000000000000000000000000000000000000          00000000000000001462          000000000000000000000000000000000000         000000000000000000000000164         000000164P                                                                       
380565 000043L563P105810166 ALL DU 19 MARS 1962           00000000000000000000000000000000000000000000000000          00000000000000001462          000000000000000000000000000000000000         000000000000000000000000164         000000164P                                                                       
380565 000043L563P105810168 ALL DU 19 MARS 1962           00000000000000000000000000000000000000000000000000          00000000000000001462          000000000000000000000000000000000000         000000000000000000000000164         000000164P                                                                       
380565 000043L563P105810173 ALL DU 19 MARS 1962           00000000000000000000000000000000000000000000000000          00000000000000001462          000000000000000000000000000000000000         000000000000000000000000164         000000164P                                                                       
380565 000043L563P105810175 ALL DU 19 MARS 1962           00000000000000000000000000000000000000000000000000          00000000000000001309          000000000000000000000000000000000000         000000000000000000000000146         000000146P                                                                       
380565 000043L563P105810180 ALL DU 19 MARS 1962           00000000000000000000000000000000000000000000000000          00000000000000001462          000000000000000000000000000000000000         000000000000000000000000164         000000164P                                                                       
380565 000043L563P105810183 ALL DU 19 MARS 1962           00000000000000000000000000000000000000000000000000          00000000000000001309          000000000000000000000000000000000000         000000000000000000000000146         000000146P                                                                       
380565 000043L563P105810184 ALL DU 19 MARS 1962           00000000000000000000000000000000000000000000000000          00000000000000001462          000000000000000000000000000000000000         000000000000000000000000164         000000164P                                                                       
380565 000043L563P105810185 ALL DU 19 MARS 1962           00000000000000000000000000000000000000000000000000          00000000000000001462          000000000000000000000000000000000000         000000000000000000000000164         000000164P                                                                       
380565 000043L563P105810186 ALL DU 19 MARS 1962           00000000000000000000000000000000000000000000000000          00000000000000001462          000000000000000000000000000000000000         000000000000000000000000164         000000164P                                                                       
380565 000043L563P105810201 ALL DU 19 MARS 1962           00000000000000000000000000000000000000000000000000          00000000000000001462          000000000000000000000000000000000000         000000000000000000000000164         000000164P                                                                       
380565 000043L563P105810203 ALL DU 19 MARS 1962           00000000000000000000000000000000000000000000000000          00000000000000001309          000000000000000000000000000000000000         000000000000000000000000146         000000146P                                                                       
380565 000043L563P105820003 ALL DU GRAND SOM              00000000000000000000000000000000000000000000000000          00000000000000001462          000000000000000000000000000000000000         000000000000000000000000164         000000164P                                                                       
380565 000043L563P105820019 ALL DU GRAND SOM              00000000000000000000000000000000000000000000000000          00000000000000001462          000000000000000000000000000000000000         000000000000000000000000164         000000164P                                                                       
380565 000043L563P105820021 ALL DU GRAND SOM              00000000000000000000000000000000000000000000000000          00000000000000001462          000000000000000000000000000000000000         000000000000000000000000164         000000164P                                                                       
380565 000043L563P105820037 ALL DU GRAND SOM              00000000000000000000000000000000000000000000000000          00000000000000001462          000000000000000000000000000000000000         000000000000000000000000164         000000164P                                                                       
380565 000043L563P105820039 ALL DU GRAND SOM              00000000000000000000000000000000000000000000000000          00000000000000001462          000000000000000000000000000000000000         000000000000000000000000164         000000164P                                                                       
380565 000043L563P105820053 ALL DU GRAND SOM              00000000000000000000000000000000000000000000000000          00000000000000001462          000000000000000000000000000000000000         000000000000000000000000164         000000164P                                                                       
380565 000043L563P105820055 ALL DU GRAND SOM              00000000000000000000000000000000000000000000000000          00000000000000001462          000000000000000000000000000000000000         000000000000000000000000164         000000164P                                                                       
380565 000043L563P105820069 ALL DU GRAND SOM              00000000000000000000000000000000000000000000000000          00000000000000001462          000000000000000000000000000000000000         000000000000000000000000164         000000164P                                                                       
380565 000043L563P105820071 ALL DU GRAND SOM              00000000000000000000000000000000000000000000000000          00000000000000001462          000000000000000000000000000000000000         000000000000000000000000164         000000164P                                                                       
380565 000043L563P105820078 ALL DU GRAND SOM              00000000000000000000000000000000000000000000000000          00000000000000001462          000000000000000000000000000000000000         000000000000000000000000164         000000164P                                                                       
380565 000043L563P105820080 ALL DU GRAND SOM              00000000000000000000000000000000000000000000000000          00000000000000001462          000000000000000000000000000000000000         000000000000000000000000164         000000164P                                                                       
380565 000043L563P105820085 ALL DU GRAND SOM              00000000000000000000000000000000000000000000000000          00000000000000001462          000000000000000000000000000000000000         000000000000000000000000164         000000164P                                                                       
380565 000043L563P105820089 ALL DU GRAND SOM              00000000000000000000000000000000000000000000000000          00000000000000001462          000000000000000000000000000000000000         000000000000000000000000164         000000164P                                                                       
380565 000043L563P105820096 ALL DU GRAND SOM              00000000000000000000000000000000000000000000000000          00000000000000001462          000000000000000000000000000000000000         000000000000000000000000164         000000164P                                                                       
380565 000043L563P105820098 ALL DU GRAND SOM              00000000000000000000000000000000000000000000000000          00000000000000001462          000000000000000000000000000000000000         000000000000000000000000164         000000164P                                                                       
380565 000043L563P105820103 ALL DU GRAND SOM              00000000000000000000000000000000000000000000000000          00000000000000001462          000000000000000000000000000000000000         000000000000000000000000164         000000164P                                                                       
380565 000043L563P105820105 ALL DU GRAND SOM              00000000000000000000000000000000000000000000000000          00000000000000001462          000000000000000000000000000000000000         000000000000000000000000164         000000164P                                                                       
380565 000043L563P105820112 ALL DU GRAND SOM              00000000000000000000000000000000000000000000000000          00000000000000001462          000000000000000000000000000000000000         000000000000000000000000164         000000164P                                                                       
380565 000043L563P105820114 ALL DU GRAND SOM              00000000000000000000000000000000000000000000000000          00000000000000001462          000000000000000000000000000000000000         000000000000000000000000164         000000164P                                                                       
380565 000043L563P105820121 ALL DU GRAND SOM              00000000000000000000000000000000000000000000000000          00000000000000001462          000000000000000000000000000000000000         000000000000000000000000164         000000164P                                                                       
380565 000044L563C1         22102441011140000001065000000000042SCI  LA PLAINE                                                                                     375 RUE JACQUES BREL                                            38340 VOREPPE                   P 00000000000000000000                    H   BO    
380565 000044L563P102690375 RUE JACQUES BREL              00000018460000000000000000184600000018460000000000          00000018460000001846          000000483000000000000000030000000294         000000000000000009000000207         000001023P                                                                       
380565 000045L563C1         22102441011140000000094000000000004SA   CEVIM                                                                                         BP 225                                                          38043 GRENOBLE CEDEX 9          P 00000000000000000000                       T  N   
380565 000045L563N1         0000000000000000000000000000000000000000000000000000000000000000000000010000006100000000000000060000000000000000        000000000000002300000000000000000000000090000000000000000000000000000000000000000000000000000000000000000000000086000000860000010800000000000000000               
380565 000046L563C1         22102441011140000014526000000000567SCI  DE L'AVENUE CHAPAYS                                           B P 46                           AV HENRI CHAPAYS                                               38340 VOREPPE                   P 00000000000000000000                     C  BO    
380565 000046L563P102500735 AV  HENRI CHAPAYS             00000251990000000000000002519900000251990000000000          00000251990000025199          000006592000000000000000416000004007         000000000000000124000002820         000013959P                                                                       
380565 000047L563C1         22102441011140000006044000000000183     COMTE DES SOEURS              DOMINICAINES DU MONAS.NTRE DAME                                 BP 128                                                          38343 VOREPPE CEDEX             P 00000000000000000000                    HC TB N   
380565 000047L563N1         0000000000000000000000000000000000000000000000000000000000000000000000340000014400000000000000140000000000000000        000000000000005300000000000000000000000211000000000000000000000000000000000000000000000000000000000000000000000201000002010000025100000000000000000               
380565 000047L563P100774581 RTE DE CHALAIS                00000127820000000000000001278200000127820000000000          00000127820000000000          000003344000000000000000211000002032         000000000000000063000000000         000005650P                                                                       
380565 000048L563C1         22102441011140000004581000000000179SARL GARAGE DE L ECHAILLON                                         RTE NATIONALE 75                CHAMP DE LA COUR                                                38340 VOREPPE                   R 00000000000000000000                     C  BO    
380565 000048L563C2                                            M SOUQUET-GRUMEY RENE JEAN         VICTOR                                                          7 RUE DU RIF TRONCHARD                                          38120 ST EGREVE                 B                     0000                          
380565 000048L563P104689023 RTE NATIONALE 75              00000079470000000000000000794700000079470000000000          00000079470000007947          000002079000000000000000131000001264         000000000000000039000000889         000004402P                                                                       
380565 000049L563C1         22102441011140000022981000000000898SARL SOC INDUSTRIEL                CONDITIONNEMENT OPTIMISE                                        53 AV DE L EUROPE                                               38120 ST EGREVE                 R 00000000000000000000                     C  BO    
380565 000049L563C2                                            SCI  EUROPEENNE                                                                                     RUE DE POMMARIN                                                38430 MOIRANS                   B                     0000                          
380565 000049L563P105760977 RUE DU POMMARIN               00000398670000000000000003986700000398670000000000          00000398670000039867          000010429000000000000000658000006339         000000000000000196000004461         000022083P                                                                       
380565 000050L563C1         22102441011140000459051000000013674SAS  CONSTELLIUM CRV                                                                               BP 27                                                           38340 VOREPPE CEDEX             P 00000000000000000000                     CNTB N   
380565 000050L563N1         0000152300001523000015230000000000001523000015230000000000000000000000000000110000000000000001100000064600000000        000000160000032400000000000000000000002196000000000000000000000000000000000000000000000000000000000000000000000017000000170000002100000000000000000               
380565 000050L563P100150725 RUE ARISTIDE BERGES           00010026280000000000000100262800010026280000000000          00010026280000000000          000262287000000000000016543000159418         000000000000004933000000000         000443181                                                                        
380565 000051L563C1         22102441011140000007203000000000214SNC  STE IRB BETON                                                                                 BP 2538                                                         68058 MULHOUSE CEDEX            P 00000000000000000000                     C  B     
380565 000051L563P1B0019001 LES BALMES                    00000069000000000000000000690000000069000000000000          00000069000000000000          000001805000000000000000114000001097         000000000000000034000000000         000003050                                                                        
380565 000051L563P1B0019002 LES BALMES                    00000089120000000000000000891200000089120000000000          00000089120000000000          000002331000000000000000147000001417         000000000000000044000000000         000003939                                                                        
380565 000052L563C1         22102441011140000002018000000000079SC   STE GEMUPI                                                                                    90 RUE VICTOR CASSIEN                                           38340 VOREPPE                   P 00000000000000000000                    HC TBON   
380565 000052L563N1         0000000000000000000000000000000000000000000000000000000000000000000000000000000400000000000000000000000000000000        000000000000000200000000000000000000000006000000000000000000000000000000000000000000000000000000000000000000000006000000060000000800000000000000000               
380565 000052L563P100610090 RUE VICTOR CASSIEN            00000034890000000000000000348900000034890000000000          00000034890000003489          000000913000000000000000058000000555         000000000000000017000000390         000001933P                                                                       
380565 000053L563C1         22102441011140000000000060000000000SCI  DU 8 RUE POGNIENT                                             LE CERF                         1854 RTE DE GIRARDIERE                                          38450 VIF                       P 00000000000000000000                    H   BO D  
380565 000053L563P104000014 RUE POGNIENT                  00000000110000000000000000001100000000110000000000          00000000110000000011          000000003000000000000000000000000002         000000000000000000000000001         000000006P                                                                       
380565 000054L563C1         22102441011140000001314000000000050SA   SOCIETE D'HABITATIONS DES     ALPES SA HLM                    BP 229                                                                                          38506 VOIRON CEDEX              E 00000000000000000000                    H N BON   
380565 000054L563C2                                                 ASS FAMILIALE ISERE AIDE      ENFANTS INFIRMES MENTAUX                                        3 AV MARIE REYNOARD                                             38029 GRENOBLE CEDEX            P                     0000                          
380565 000054L563N1         0000000800000008000000080000000000000008000000080000000000000000000000000000000600000000000000010000000300000000        000000000000000200000000000000000000000012000000000000000000000000000000000000000000000000000000000000000000000000000000000000000000000000000000000               
380565 000054L563P102450250 RUE DE GACHETIERE             00000022800000000000000000228000000022800000000000          00000000000000002280          000000596000000000000000038000000363         000000000000000000000000255         000001252P                                                                       
380565 000055L563C1         22102441011140000002037000000000080     ASS D EDUCATION POPULAIRE     DE VOREPPE                                                      40 RUE MOUILLE SOL                                              38340 VOREPPE                   P 00000000000000000000                    HC  BO    
380565 000055L563P102809003 RUE JEAN ACHARD               00000030980000000000000000309800000030980000000000          00000030980000003098          000000810000000000000000051000000493         000000000000000015000000347         000001716P                                                                       
380565 000055L563P103000101 RUE LAMBOURNAY                00000004340000000000000000043400000004340000000000          00000004340000000434          000000114000000000000000007000000069         000000000000000002000000049         000000241P                                                                       
380565 000056L563C1         22102441011140000000595000000000023SCI  ATHENA                                                        CHEZ REY RENE                   518 RTE DE LA TIVOLLIERE                                        38500 COUBLEVIE                 P 00000000000000000000                     C  BO    
380565 000056L563P102600086 RUE DE L ISLE                 00000010330000000000000000103300000010330000000000          00000010330000001033          000000270000000000000000017000000164         000000000000000005000000116         000000572P                                                                       
380565 000057L563C1         22102441011140000000937000000000037SCI  DE LA RUE PIERRE ET           MARIE CURIE                                                     126 RUE PIERRE ET MARIE CURIE                                   38340 VOREPPE                   P 00000000000000000000                    H   BO    
380565 000057L563P103920126 RUE PIERRE ET MARIE CURIE     00000016240000000000000000162400000016240000000000          00000016240000001624          000000425000000000000000027000000258         000000000000000008000000182         000000900P                                                                       
380565 000058L563C1         22102441011140000000000010000000000DEPT DEPARTEMENT DE L ISERE                                        BP 1096                         7 RUE FANTIN LATOUR                                             38022 GRENOBLE CEDEX 1          P 00000000000000000000                      NT  ND  
380565 000058L563N1         0000000000000000000000000000000000000000000000000000000000000000000000010000000100000000000000000000000000000000        000000000000000000000000000000000000000001000000000000000000000000000000000000000000000000000000000000000000000001000000010000000100000000000000000               
380565 000059L563C1         22102441011140000006844000000000242EPIC SNCF SOCIETE NATIONALE DES    CHEMINS DE FE                   DIVISION APPLICATIONS FISCALES  45 RUE DE LONDRES                                               75379 PARIS CEDEX 08            P 00000000000000000000                    HCNTBON   
380565 000059L563N1         0000174800001748000017480000000000001748000017480000000000000000000000020000126600000000000001270000074200000000        000000190000037400000000000000000000002528000000000000000000000000000000000000000000000000000000000000000000000025000000250000003100000000000000000               
380565 000059L563P1B0360899BLA GARE                       00000031170000000000000000311700000031170000000000          00000031170000000018          000000815000000000000000051000000496         000000000000000015000000002         000001379P                                                                       
380565 000059L563P1B0559001 L ILE PLANCON                 00000006650000000000000000066500000006650000000000          00000006650000000000          000000174000000000000000011000000106         000000000000000003000000000         000000294                                                                        
380565 000059L563P1B0589047 LES JACQUINS                  00000005770000000000000000057700000005770000000000          00000005770000000000          000000151000000000000000010000000092         000000000000000003000000000         000000256                                                                        
380565 000059L563P100299001 RUE DE BEAUVILLAGE            00000008870000000000000000088700000008870000000000          00000008870000000887          000000232000000000000000015000000141         000000000000000004000000099         000000491P                                                                       
380565 000059L563P100309004 CHE DES BLOCKHAUS             00000029860000000000000000298600000029860000000000          00000029860000002986          000000781000000000000000049000000475         000000000000000015000000334         000001654P                                                                       
380565 000060L563C1         22102441011140000001757000000000068SCI  STE CIVILE IMMOB SAYAGH                                                                       5 RUE DU BOUTET                                                 38340 VOREPPE                   P 00000000000000000000                     C  BO    
380565 000060L563P100370005 RUE DU BOUTET                 00000030510000000000000000305100000030510000000000          00000030510000003051          000000798000000000000000050000000485         000000000000000015000000341         000001689P                                                                       
380565 000061L563C1         22102441011140000000012000000000000SEM  S A V V STE AMENAG VILLE D    VOREPPE                         MAIRIE DE VOREPPE                QUAI DOCTEUR JACQUIN                                           38340 VOREPPE                   P 00000000000000000000                      N   N   
380565 000061L563N1         0000000800000008000000080000000000000008000000080000000000000000000000000000000600000000000000010000000300000000        000000000000000200000000000000000000000012000000000000000000000000000000000000000000000000000000000000000000000000000000000000000000000000000000000               
380565 000062L563C1         22102441011140000000000040000000000SA   PROCIVIS ALPES-DAUPHINE                                                                       42 B QUAI DE FRANCE                                             38000 GRENOBLE                  P 00000000000000000000                      NT  ND  
380565 000062L563N1         0000000300000003000000030000000000000003000000030000000000000000000000000000000200000000000000000000000100000000        000000000000000100000000000000000000000004000000000000000000000000000000000000000000000000000000000000000000000000000000000000000000000000000000000               
380565 000063L563C1         22102441011140000012600000000000494SCI  GRANDE RUE                                                    CHES EPERGOS                    1 SQ PIERRE-RUIBET                                              38500 VOIRON                    P 00000000000000000000                    HC  BO    
380565 000063L563P104000013 RUE POGNIENT                  00000029630000000000000000296300000029630000000000          00000029630000002963          000000775000000000000000049000000471         000000000000000015000000332         000001642P                                                                       
380565 000063L563P104000027 RUE POGNIENT                  00000119000000000000000001190000000119000000000000          00000119000000011900          000003113000000000000000196000001892         000000000000000059000001332         000006592P                                                                       
380565 000063L563P104800054 GR  GRANDE RUE                00000014120000000000000000141200000014120000000000          00000014120000001412          000000369000000000000000023000000225         000000000000000007000000158         000000782P                                                                       
380565 000063L563P104800060 GR  GRANDE RUE                00000011270000000000000000112700000011270000000000          00000011270000001127          000000295000000000000000019000000179         000000000000000006000000126         000000625P                                                                       
380565 000063L563P104800070 GR  GRANDE RUE                00000044510000000000000000445100000044510000000000          00000044510000004451          000001164000000000000000073000000708         000000000000000022000000498         000002465P                                                                       
380565 000064L563C1         22102441011140000000864000000000034SCI  MALOSSANNE 3J                                                 PAR MME CHAUVIN MARIE CHIRSTIN  10 RUE DAUPHINE                                                 36000 CHATEAUROUX               P 00000000000000000000                    H  TBON   
380565 000064L563N1         0000000000000000000000000000000000000000000000000000000000000000000000000000000000000000000000000000000000000000        000000000000000000000000000000000000000000000000000000000000000000000000000000000000000000000000000000000000000000000000000000000100000000000000000               
380565 000064L563P103210325 CHE DE MALOSSANE              00000014990000000000000000149900000014990000000000          00000014990000001499          000000392000000000000000025000000238         000000000000000007000000168         000000830P                                                                       
380565 000065L563C1         22102441011140000000072000000000003SCI  PLEIN CENTRE                                                  PAR M.AZARIO CHRYSANTE          BADIEU                                                          38110 LA TOUR DU PIN            P 00000000000000000000                    H   BO    
380565 000065L563P102500394 AV  HENRI CHAPAYS             00000001240000000000000000012400000001240000000000          00000001240000000124          000000032000000000000000002000000020         000000000000000001000000014         000000069P                                                                       
380565 000066L563C1         22102441011140000070827000000002250SAS  POMAGALSKI                                                                                    11 RUE RENE CAMPHIN                                             38600 FONTAINE                  P 00000000000000000000                     CN BON   
380565 000066L563N1         0000094300000943000009430000000000000943000009430000000000000000000000000000067300000000000000670000040000000000        000000100000019800000000000000000000001348000000000000000000000000000000000000000000000000000000000000000000000000000000000000000000000000000000000               
380565 000066L563P100150109 RUE ARISTIDE BERGES           00000250370000000000000002503700000250370000000000          00000250370000025037          000006550000000000000000413000003981         000000000000000123000002802         000013869P                                                                       
380565 000066L563P103109004 RUE LOUIS ARMAND              00001207190000000000000012071900001207190000000000          00001207190000000000          000031580000000000000001992000019194         000000000000000594000000000         000053360                                                                        
380565 000067L563C1         22102441011140000000205000000000007     ASSOCIATION SYNDICALE LIBR    DU LOT LA ROCHE                                                 394 AV HENRI CHAPAYS                                            38340 VOREPPE                   P 00000000000000000000                      N   N   
380565 000067L563N1         0000013900000139000001390000000000000139000001390000000000000000000000000000009900000000000000100000005900000000        000000010000002900000000000000000000000198000000000000000000000000000000000000000000000000000000000000000000000000000000000000000000000000000000000               
380565 000068L563C1         22102441011140000001965000000000077SCI  LAVOISIER                                                                                     BP 74                                                           38340 VOREPPE CEDEX             P 00000000000000000000                    HCN BON   
380565 000068L563N1         0000000100000001000000010000000000000001000000010000000000000000000000000000000100000000000000000000000000000000        000000000000000000000000000000000000000001000000000000000000000000000000000000000000000000000000000000000000000000000000000000000000000000000000000               
380565 000068L563P102500610 AV  HENRI CHAPAYS             00000034060000000000000000340600000034060000000000          00000034060000003406          000000891000000000000000056000000542         000000000000000017000000381         000001887P                                                                       
380565 000069L563C1         22102441011140000023514000000000908SA   SCIC HABITAT RHONE ALPES      SA DE HLM                       IMMEUBLE LE FIRST               2 AVENUE LACASSAGNE                                             69425 LYON CEDEX 03             P 00000000000000000000                    H   BO    
380565 000069L563P105220020 ALL JEAN FRANCOIS THORAND     00000137300000000000000001373000000137300000000000          00000000000000013730          000003592000000000000000227000002183         000000000000000000000001536         000007538P                                                                       
380565 000069L563P105220030 ALL JEAN FRANCOIS THORAND     00000136660000000000000001366600000136660000000000          00000000000000013666          000003575000000000000000225000002173         000000000000000000000001529         000007502P                                                                       
380565 000069L563P105220050 ALL JEAN FRANCOIS THORAND     00000137830000000000000001378300000137830000000000          00000000000000013783          000003606000000000000000227000002191         000000000000000000000001542         000007566P                                                                       
380565 000070L563C1         22102441011140000000000040000000000     ASSOCIATION SYND DE L         EMBRANCHEMENT FERRE DE VOREPPE MCENTR ALP                       347 RUE ARISTIDE BERGES                                         38340 VOREPPE                   P 00000000000000000000                      NT  ND  
380565 000070L563N1         0000000200000002000000020000000000000002000000020000000000000000000000000000000200000000000000000000000100000000        000000000000000100000000000000000000000004000000000000000000000000000000000000000000000000000000000000000000000001000000010000000100000000000000000               
380565 000071L563C1         22102441011140000002148000000000085SCI  BALLON ROUGE                                                                                  839 RTE DE CHARTREUSE                                           38340 VOREPPE                   P 00000000000000000000                    HC  BO    
380565 000071L563C2                                            MME ZANIER MARTINE ALICE           MADELEINE           GESTIONNAIRE839 ROUTE DE CHARTREUSE         839 RTE DE CHARTREUSE                                           38340 VOREPPE                   G                     0000                          
380565 000071L563P101600054 PL  DEBELLE                   00000012210000000000000000122100000012210000000000          00000012210000001221          000000319000000000000000020000000194         000000000000000006000000137         000000676P                                                                       
380565 000071L563P102200094 PL  DOCTEUR THEVENET          00000001680000000000000000016800000001680000000000          00000001680000000168          000000044000000000000000003000000027         000000000000000001000000019         000000094P                                                                       
380565 000071L563P102200098 PL  DOCTEUR THEVENET          00000023350000000000000000233500000023350000000000          00000023350000002335          000000611000000000000000039000000371         000000000000000011000000261         000001293P                                                                       
380565 000072L563C1         22102441011140000014042000000000548SCI  LELY GABRIEL ET MARCEL                                                                         RUE DES GRANDS CHAMPS                                          38360 SASSENAGE                 P 00000000000000000000                     C  BO    
380565 000072L563C2                                            M LELY MARCEL EDOUARD LEON                             GESTIONNAIRE                                14 RUE DU ROUTOIR                                               38360 SASSENAGE                 G                     0000                          
380565 000072L563P103290541 CHE DES MARINIERS             00000243600000000000000002436000000243600000000000          00000243600000024360          000006373000000000000000402000003873         000000000000000120000002726         000013494P                                                                       
380565 000073L563C1         22102441011140000010412000000000407SCI  GRISA FRERES                                                                                  15 CHEM DE MOLLARD CEVAL                                        38140 BEAUCROISSANT             P 00000000000000000000                     C TBON   
380565 000073L563C2                                            M CRISACI JACQUES EDOUARD ADRIEN                       GESTIONNAIRE                                LE BOIS                                                         38140 BEAUCROISSANT             G                     0000                          
380565 000073L563N1         0000000000000000000000000000000000000000000000000000000000000000000000000000000400000000000000000000000000000000        000000000000000200000000000000000000000006000000000000000000000000000000000000000000000000000000000000000000000006000000060000000800000000000000000               
380565 000073L563P103100141 RUE LOUIS ARMAND              00000180520000000000000001805200000180520000000000          00000180520000018052          000004722000000000000000298000002870         000000000000000089000002020         000009999P                                                                       
380565 000074L563C1         22102441011140000001721000000000067SCI  DE L ECLUSE                                                   CHEZ BUSI SYLVAIN               370 RUE DES CARTEUX                                             38340 VOREPPE                   P 00000000000000000000                    H   BO    
380565 000074L563C2                                            M BUSI SYLVAIN                                         GESTIONNAIRE                                370 RUE DES CARTEUX                                             38340 VOREPPE                   G                     0000                          
380565 000074L563P102390021 PL  DE L ECLUSE               00000029870000000000000000298700000029870000000000          00000029870000002987          000000781000000000000000049000000475         000000000000000015000000334         000001654P                                                                       
380565 000075L563C1         22102441011140000001887000000000073SCI  DUBEAUCHENE                                                   CHEZ AABIS                      212 RUE ARISTIDE BERGES                                         38340 VOREPPE                   P 00000000000000000000                     C  BO    
380565 000075L563C2                                            M BEAUMIER NOEL AIME PAUL                              GESTIONNAIRE                                161 RUE DE LA FRANQUETTE                                        38430 ST JEAN DE MOIRANS        G                     0000                          
380565 000075L563P100150212 RUE ARISTIDE BERGES           00000032750000000000000000327500000032750000000000          00000032750000003275          000000857000000000000000054000000521         000000000000000016000000366         000001814P                                                                       
380565 000076L563C1         22102441011140000000939000000000037SCI  HORSE MED                                                                                     31 RUE ROGER DU MARAIS                                          38430 MOIRANS                   P 00000000000000000000                    H   BO    
380565 000076L563C2                                            M FERRER JEAN-MARIE                                    GESTIONNAIREBAT LE FRESNE RES DU PARC       31 RUE ROGER DU MARAIS                                          38430 MOIRANS                   G                     0000                          
380565 000076L563P100349003 RUE BEYLE STENDHAL            00000016300000000000000000163000000016300000000000          00000016300000001630          000000426000000000000000027000000259         000000000000000008000000182         000000902P                                                                       
380565 000077L563C1         22102441011140000001582000000000062SCI  MACODES                                                                                       100 ALL DE LA CHENAIE                                           38340 VOREPPE                   P 00000000000000000000                    H   BO    
380565 000077L563P101460100 ALL DE LA CHENAIE             00000027440000000000000000274400000027440000000000          00000027440000002744          000000718000000000000000045000000436         000000000000000014000000307         000001520P                                                                       
380565 000078L563C1         22102441011140000005640000000000220SCI  AJCM                                                                                          360 RUE EMILE ROMANET                                           38340 VOREPPE                   P 00000000000000000000                     C  BO    
380565 000078L563P102430360 RUE EMILE ROMANET             00000097850000000000000000978500000097850000000000          00000097850000009785          000002560000000000000000161000001556         000000000000000048000001095         000005420P                                                                       
380565 000079L563C1         22102441011140000001947000000000080     ETAT MINISTERE DE L           AGRICULTURE DE LA PECHE DE LA FO                                44 AV MARCELIN BERTHELOT                                        38100 GRENOBLE                  P 00000000000000000000                       T  N   
380565 000079L563C2                                                 OFFICE NATIONAL DES FORETS    CENTRE DE GESTION D GESTIONNAIREHOTEL DES ADMINISTRATIONS       9 QUAI CREQUI                                                   38026 GRENOBLE CEDEX            G                     0000                          
380565 000079L563N1         0000000000000000000000000000000000002153000000000000000000000000000021950000125600000000000001260000000000000000        000000230000046200000000000000000000001867000000000000000000000000000000000000000000000000000000000000000000001759000017590000219900000000000000000               
380565 000080L563C1         22102441011140000000633000000000024SCI  J.P.S                                                                                         85 CHE DE MALSOUCHE                                             38340 VOREPPE                   P 00000000000000000000                    H  TBON   
