380565       L563           TF201320131011ISERE                         VOREPPE                                                          C000000000000000000000000000000000000000000000000159000000000000000000000000000002070000                                                                                     
380565       L563A1         PVOREPPE                       2212013083120131015                               0424300002616000000000000016500000000000000497000111900000000000000000000000000000000000G071400000000000000715000000000000010600000000000PAYS VOIRONNAIS               CCC L563 243800984     L563       
380565 000001L563C1         22102441011140000040675000000001584     COMMUNE DE VOREPPE                                            MAIRIE                          1 PL CHARLES DE GAULLE                                          38340 VOREPPE                   P 00000000000000000000                    HCNTBON   
380565 000001L563N1         0000063400000634000006340000000000000634000006340000000000000000000017600000210400000000000002110000026900000000        00000007000007300000000000000000000000332100000000000000000000000000000000000000000000000000000000000000000000231300002313000028920000000000000000000000000       
380565 000001L563P100209001 PL  ARMAND PUGNOT             00000091550000000000000000915500000091550000000000          00000091550000009155          000002395000000000000000151000001456         000000000000000046000001024         000005072P                                                                       
380565 000001L563P100330548 RUE DE BOURG VIEUX            00000000000000000000000000000000000000000000000000          00000000000000001674          000000000000000000000000000000000000         000000000000000000000000187         000000187P                                                                       
380565 000001L563P100340135 RUE BEYLE STENDHAL            00000035970000000000000000359700000035970000000000          00000035970000003597          000000941000000000000000059000000572         000000000000000018000000403         000001993P                                                                       
380565 000001L563P100340213 RUE BEYLE STENDHAL            00000021070000000000000000210700000021070000000000          00000021070000002107          000000551000000000000000035000000335         000000000000000010000000236         000001167P                                                                       
380565 000001L563P100350077 CHE DES BUISSIERES            00000009380000000000000000093800000009380000000000          00000009380000000938          000000245000000000000000015000000149         000000000000000005000000105         000000519P                                                                       
380565 000001L563P100400005 RUE DU CARRE                  00000024040000000000000000240400000024040000000000          00000024040000002404          000000629000000000000000040000000382         000000000000000012000000269         000001332P                                                                       
380565 000001L563P101209001 QUAI DES CHARTREUX            00000006750000000000000000067500000006750000000000          00000006750000000675          000000177000000000000000011000000107         000000000000000003000000076         000000374P                                                                       
380565 000001L563P102500072 AV  HENRI CHAPAYS             00000063800000000000000000638000000063800000000000          00000063800000006380          000001669000000000000000105000001014         000000000000000032000000714         000003534P                                                                       
380565 000001L563P102560349 AV  HONORE DE BALZAC          00000009660000000000000000096600000009660000000000          00000009660000000966          000000253000000000000000016000000154         000000000000000005000000108         000000536P                                                                       
380565 000001L563P102560351 AV  HONORE DE BALZAC          00000008940000000000000000089400000008940000000000          00000008940000000894          000000234000000000000000015000000142         000000000000000004000000100         000000495P                                                                       
380565 000001L563P102560365 AV  HONORE DE BALZAC          00000019170000000000000000191700000019170000000000          00000019170000001917          000000501000000000000000032000000305         000000000000000010000000215         000001063P                                                                       
380565 000001L563P102830294 RUE JEAN MOULIN               00000000000000000000000000000000000000000000000000          00000000000000002792          000000000000000000000000000000000000         000000000000000000000000312         000000312P                                                                       
380565 000001L563P103490445 RUE DE NARDAN                 00000012550000000000000000125500000012550000000000          00000012550000001255          000000328000000000000000021000000200         000000000000000006000000140         000000695P                                                                       
380565 000001L563P103890055 RUE DU PEUIL                  00000340560000000000000003405600000340560000000000          00000340560000028308          000008909000000000000000562000005415         000000000000000169000003168         000018223P                                                                       
380565 000001L563P104950075 CHE DES SEITES                00000004840000000000000000048400000004840000000000          00000004840000000484          000000127000000000000000008000000077         000000000000000002000000054         000000268P                                                                       
380565 000002L563C1         22102441011140000102164000000003948EPIC OPAC DE L'ISERE                                                                               47 AV MARIE REYNOARD                                            38035 GRENOBLE CEDEX 2          P 00000000000000000000                    H   BO    
380565 000002L563P100320015 CHE DES BUIS                  00000089320000000000000000893200000089320000000000          00000000000000008932          000002337000000000000000147000001420         000000000000000000000000999         000004903P                                                                       
380565 000002L563P100320031 CHE DES BUIS                  00000086640000000000000000866400000086640000000000          00000000000000008664          000002267000000000000000143000001378         000000000000000000000000970         000004758P                                                                       
380565 000002L563P100340122 RUE BEYLE STENDHAL            00000055640000000000000000556400000055640000000000          00000000000000005564          000001456000000000000000092000000885         000000000000000000000000623         000003056P                                                                       
380565 000002L563P102469001 ALL DES FUSAINS               00000027990000000000000000279900000027990000000000          00000000000000002799          000000732000000000000000046000000445         000000000000000000000000313         000001536P                                                                       
380565 000002L563P102720384 AV  JACQUES PREVERT           00000516790000000000000005167900000516790000000000          00000000000000051679          000013519000000000000000853000008217         000000000000000000000005783         000028372P                                                                       
380565 000002L563P102840015 RUE JEAN PREVOST              00000600210000000000000006002100000600210000000000          00000000000000060021          000015701000000000000000990000009543         000000000000000000000006716         000032950P                                                                       
380565 000002L563P105170030 RUE THEODORE RAVANAT          00000194780000000000000001947800000194780000000000          00000000000000019478          000005095000000000000000321000003097         000000000000000000000002180         000010693P                                                                       
380565 000002L563P105170060 RUE THEODORE RAVANAT          00000198620000000000000001986200000198620000000000          00000000000000019862          000005196000000000000000328000003158         000000000000000000000002223         000010905P                                                                       
380565 000002L563P105509001 RUE DE VOLOUISE               00000019000000000000000000190000000019000000000000          00000000000000001900          000000497000000000000000031000000302         000000000000000000000000213         000001043P                                                                       
380565 000003L563C1         22102441011140000005255000000000206SA   S A DU CLOS DE SAINT NIZIE                                                                    94 CHE SAINTE CLAIRE                                            38340 VOREPPE                   P 00000000000000000000                    H  TBON   
380565 000003L563N1         0000000000000000000000000000000000000000000000000000000000000000000000010000016500000000000000170000000000000000        00000000000000600000000000000000000000024200000000000000000000000000000000000000000000000000000000000000000000023100000231000002880000000000000000000000000       
380565 000003L563P104840094 CHE SAINTE CLAIRE             00000086780000000000000000867800000086780000000000          00000086780000008678          000002270000000000000000143000001380         000000000000000043000000971         000004807P                                                                       
380565 000004L563C1         22102441011140000020734000000000805SC   S C I DES PORTIERES                                                                           55 RUE DE PLEIN SOLEIL                                          38340 VOREPPE                   P 00000000000000000000                    H   BO    
380565 000004L563P104160463 RUE DU PORT                   00000323740000000000000003237400000323740000000000          00000323740000032374          000008469000000000000000534000005147         000000000000000161000003623         000017934P                                                                       
380565 000004L563P104169006 RUE DU PORT                   00000001900000000000000000019000000001900000000000          00000001900000000190          000000050000000000000000003000000030         000000000000000001000000021         000000105P                                                                       
380565 000004L563P104169007 RUE DU PORT                   00000001900000000000000000019000000001900000000000          00000001900000000190          000000050000000000000000003000000030         000000000000000001000000021         000000105P                                                                       
380565 000004L563P104169008 RUE DU PORT                   00000001900000000000000000019000000001900000000000          00000001900000000190          000000050000000000000000003000000030         000000000000000001000000021         000000105P                                                                       
380565 000004L563P104169009 RUE DU PORT                   00000001900000000000000000019000000001900000000000          00000001900000000190          000000050000000000000000003000000030         000000000000000001000000021         000000105P                                                                       
380565 000004L563P104169010 RUE DU PORT                   00000001900000000000000000019000000001900000000000          00000001900000000190          000000050000000000000000003000000030         000000000000000001000000021         000000105P                                                                       
380565 000004L563P104169011 RUE DU PORT                   00000001900000000000000000019000000001900000000000          00000001900000000190          000000050000000000000000003000000030         000000000000000001000000021         000000105P                                                                       
380565 000004L563P104169012 RUE DU PORT                   00000001900000000000000000019000000001900000000000          00000001900000000190          000000050000000000000000003000000030         000000000000000001000000021         000000105P                                                                       
380565 000004L563P104169013 RUE DU PORT                   00000001900000000000000000019000000001900000000000          00000001900000000190          000000050000000000000000003000000030         000000000000000001000000021         000000105P                                                                       
380565 000004L563P104169014 RUE DU PORT                   00000001900000000000000000019000000001900000000000          00000001900000000190          000000050000000000000000003000000030         000000000000000001000000021         000000105P                                                                       
380565 000004L563P104169015 RUE DU PORT                   00000001900000000000000000019000000001900000000000          00000001900000000190          000000050000000000000000003000000030         000000000000000001000000021         000000105P                                                                       
380565 000004L563P104169016 RUE DU PORT                   00000001900000000000000000019000000001900000000000          00000001900000000190          000000050000000000000000003000000030         000000000000000001000000021         000000105P                                                                       
380565 000004L563P104169017 RUE DU PORT                   00000001900000000000000000019000000001900000000000          00000001900000000190          000000050000000000000000003000000030         000000000000000001000000021         000000105P                                                                       
380565 000004L563P104169018 RUE DU PORT                   00000003800000000000000000038000000003800000000000          00000003800000000380          000000099000000000000000006000000060         000000000000000002000000043         000000210P                                                                       
380565 000004L563P104169020 RUE DU PORT                   00000001900000000000000000019000000001900000000000          00000001900000000190          000000050000000000000000003000000030         000000000000000001000000021         000000105P                                                                       
380565 000004L563P104169021 RUE DU PORT                   00000001900000000000000000019000000001900000000000          00000001900000000190          000000050000000000000000003000000030         000000000000000001000000021         000000105P                                                                       
380565 000004L563P104169022 RUE DU PORT                   00000001900000000000000000019000000001900000000000          00000001900000000190          000000050000000000000000003000000030         000000000000000001000000021         000000105P                                                                       
380565 000004L563P104169023 RUE DU PORT                   00000001900000000000000000019000000001900000000000          00000001900000000190          000000050000000000000000003000000030         000000000000000001000000021         000000105P                                                                       
380565 000004L563P104169024 RUE DU PORT                   00000001900000000000000000019000000001900000000000          00000001900000000190          000000050000000000000000003000000030         000000000000000001000000021         000000105P                                                                       
380565 000005L563C1         22102441011140000000000010000000000     S C I DE VILLENEUVE                                                                           10 RUE HUMBERT 2                                                38000 GRENOBLE                  P 00000000000000000000                      N   ND  
380565 000005L563N1         0000000100000001000000010000000000000001000000010000000000000000000000000000000100000000000000000000000000000000        00000000000000000000000000000000000000000100000000000000000000000000000000000000000000000000000000000000000000000000000000000000000000000000000000000000000       
380565 000006L563C1         22102441011140000000000030000000000SC   S C PARTICULIERE RACIN                                                                        1 RUE DE PARADIS                                                75010 PARIS                     P 00000000000000000000                       T  ND  
380565 000006L563N1         0000000000000000000000000000000000000000000000000000000000000000000000000000000200000000000000000000000000000000        00000000000000010000000000000000000000000300000000000000000000000000000000000000000000000000000000000000000000000300000003000000030000000000000000000000000       
380565 000007L563C1         22102441011140000000622000000000025     ASS BEAUREGARD FOYERS ET      INTERNATS D EDUCATION SPECIALISE                                9 PL SAINT-BRUNO                                                38000 GRENOBLE                  P 00000000000000000000                       T  N   
380565 000007L563N1         0000000000000000000000000000000000000000000000000000000000000000000000000000040800000000000000410000000000000000        00000000000001480000000000000000000000059700000000000000000000000000000000000000000000000000000000000000000000057200000572000007150000000000000000000000000       
380565 000008L563C1         22102441011140000000147000000000006SA   TRANSPORT FERNAND LELY ET     FILS                                                            37 RUE PIERRE SEMARD                                            38600 FONTAINE                  P 00000000000000000000                       T  N   
380565 000008L563N1         0000000000000000000000000000000000000000000000000000000000000000000001680000009600000000000000100000000000000000        00000000000000350000000000000000000000014100000000000000000000000000000000000000000000000000000000000000000000013400000134000001680000000000000000000000000       
380565 000009L563C1         22102441011140000000219000000000009     SYNDICAT DE PIQUE PIERRE                                                                      2 CHE DES MARRONNIERS                                           38100 GRENOBLE                  P 00000000000000000000                       T  N   
380565 000009L563N1         0000000000000000000000000000000000000000000000000000000000000000000000000000014400000000000000140000000000000000        00000000000000520000000000000000000000021000000000000000000000000000000000000000000000000000000000000000000000020200000202000002530000000000000000000000000       
380565 000010L563C1         22102441011140000000017000000000000     SYNDICAT DE VOREPPE A         MOIRANS                                                         2 CHE DES MARRONNIERS                                           38100 GRENOBLE                  P 00000000000000000000                       T  N   
380565 000010L563N1         0000000000000000000000000000000000000000000000000000000000000000000000000000001200000000000000010000000000000000        00000000000000040000000000000000000000001700000000000000000000000000000000000000000000000000000000000000000000001700000017000000210000000000000000000000000       
380565 000011L563C1         22102441011140000002244000000000088     SYNDICAT ECLESIASTIQUE DE     GRENOBLE                        CHEZ AEP                        402 RUE DE NARDAN                                               38340 VOREPPE                   P 00000000000000000000                    HC TBON   
380565 000011L563N1         0000000000000000000000000000000000000000000000000000000000000000000000000000000100000000000000000000000000000000        00000000000000000000000000000000000000000100000000000000000000000000000000000000000000000000000000000000000000000100000001000000010000000000000000000000000       
380565 000011L563P103490402 RUE DE NARDAN                 00000013510000000000000000135100000013510000000000          00000013510000001351          000000353000000000000000022000000215         000000000000000007000000151         000000748P                                                                       
380565 000011L563P103490408 RUE DE NARDAN                 00000025400000000000000000254000000025400000000000          00000025400000002540          000000664000000000000000042000000404         000000000000000013000000284         000001407P                                                                       
380565 000012L563C1         22102441011140000027736000000000825SA   DISTRIBUTION ALPINE DU        VERRE DAVER                                                     BP 34                                                           38340 VOREPPE                   P 00000000000000000000                     C  B     
380565 000012L563P102430086 RUE EMILE ROMANET             00000608760000000000000006087600000608760000000000          00000608760000000000          000015925000000000000001004000009679         000000000000000303000000000         000026911                                                                        
380565 000013L563C1         22102441011140000001123000000000033SCA  COOPERATIVE DAUPHINOISE                                                                       42 RUE DU ONZE NOVEMBRE                                         38200 VIENNE                    P 00000000000000000000                     C  B     
380565 000013L563P103159001 RUE LOUIS VICAT               00000024650000000000000000246500000024650000000000          00000024650000000000          000000645000000000000000041000000392         000000000000000012000000000         000001090                                                                        
380565 000014L563C1         22102441011140000002143000000000084SARL DAUPHI MAREE                                                                                  428 RUE EMILE ROMANET                                           38340 VOREPPE                   P 00000000000000000000                    HC  BO    
380565 000014L563P102430428 RUE EMILE ROMANET             00000016860000000000000000168600000016860000000000          00000016860000001686          000000441000000000000000028000000268         000000000000000008000000189         000000934P                                                                       
380565 000014L563P102439001 RUE EMILE ROMANET             00000020310000000000000000203100000020310000000000          00000020310000002031          000000531000000000000000034000000323         000000000000000010000000227         000001125P                                                                       
380565 000015L563C1         22102441011140000003739000000000146     SCI LOC ARTISAN                                                                               BP 235                                                          38400 ST MARTIN D HERES         P 00000000000000000000                     C  BO    
380565 000015L563P104650419 RUE DE LA RESISTANCE          00000064870000000000000000648700000064870000000000          00000064870000006487          000001697000000000000000107000001031         000000000000000032000000726         000003593P                                                                       
380565 000016L563C1         22102441011140000006632000000000198     SCI DE BRANDEGAUDIERE                                                                         BP 142                                                          38343 VOREPPE CEDEX             P 00000000000000000000                     C TB N   
380565 000016L563N1         0000000000000000000000000000000000000000000000000000000000000000000000000000006900000000000000070000000000000000        00000000000000250000000000000000000000010100000000000000000000000000000000000000000000000000000000000000000000009600000096000001200000000000000000000000000       
380565 000016L563P100309001 CHE DES BLOCKHAUS             00000143290000000000000001432900000143290000000000          00000143290000000000          000003748000000000000000236000002278         000000000000000071000000000         000006333                                                                        
380565 000017L563C1         22102441011140000015063000000000588SCI  S C I DE L HOIRIE                                                                             241 CHE DES BLOCKHAUS                                           38340 VOREPPE                   P 00000000000000000000                    H   BO    
380565 000017L563P102560442 AV  HONORE DE BALZAC          00000135130000000000000001351300000135130000000000          00000135130000013513          000003535000000000000000223000002149         000000000000000067000001512         000007486P                                                                       
380565 000017L563P102560470 AV  HONORE DE BALZAC          00000126160000000000000001261600000126160000000000          00000126160000012616          000003300000000000000000208000002006         000000000000000063000001412         000006989P                                                                       
380565 000018L563C1         22102441011140000016431000000000642SCI  LE VERCORS                                                    PISANCON                        799 RN 532                                                      26300 CHATUZANGE LE GOUBET      P 00000000000000000000                    HC  BO    
380565 000018L563P102430305 RUE EMILE ROMANET             00000285020000000000000002850200000285020000000000          00000285020000028502          000007456000000000000000470000004532         000000000000000142000003189         000015789P                                                                       
380565 000019L563C1         22102441011140000007907000000000309SCI  CADO                                                          CHEZ M CARROT MARCEL            104 IMP DE SAUVIOU                                              83140 SIX FOURS LES PLAGES      P 00000000000000000000                     C  BO    
380565 000019L563P102480039 RUE DE LA GARE                00000137170000000000000001371700000137170000000000          00000137170000013717          000003588000000000000000226000002181         000000000000000068000001535         000007598P                                                                       
380565 000020L563C1         22102441011140000020154000000000600SCI  VOREPPE USINE                                                 IMMOBILIER FRANCE REGIE         24 PL GRENETTE                                                  38000 GRENOBLE                  P 00000000000000000000                     C  B     
380565 000020L563P103100085 RUE LOUIS ARMAND              00000442330000000000000004423300000442330000000000          00000442330000000000          000011571000000000000000730000007033         000000000000000220000000000         000019554                                                                        
380565 000021L563C1         22102441011140000001087000000000044SIVO SIVOM D'AMENAGEMENT DE        MOIRANS-VOREPPE                 PAR CAPV                        40 RUE MAINSSIEUX                                               38500 VOIRON                    P 00000000000000000000                      NT  N   
380565 000021L563N1         0000010000000100000001000000000000000100000001000000000000000000000000000000068700000000000000690000004200000000        00000001000002440000000000000000000000104300000000000000000000000000000000000000000000000000000000000000000000086200000862000010770000000000000000000000000       
380565 000022L563C1         22102441011140000034631000000001353SCI  DU CHAMP DE LA COUR                                           PAR M  REPELLIN JACQUES         18 AV ALSACE LORRAINE                                           38000 GRENOBLE                  P 00000000000000000000                     C  BO    
380565 000022L563P102500557 AV  HENRI CHAPAYS             00000600720000000000000006007200000600720000000000          00000600720000060072          000015715000000000000000991000009551         000000000000000299000006722         000033278P                                                                       
380565 000023L563C1         22102441011140000017358000000000679SCI  DAUPHINOISE                                                   PAR M RICHARD JEAN FRANCOIS     29 RUE DE LA CROIX-ROUSSE                                       38500 VOIRON                    P 00000000000000000000                    HC  BO    
380565 000023L563P102430511 RUE EMILE ROMANET             00000301080000000000000003010800000301080000000000          00000301080000030108          000007876000000000000000497000004787         000000000000000150000003369         000016679P                                                                       
380565 000024L563C1         22102441011140000000381000000000011SAS  TDF                                                           SECTEUR FISCAL                  106 AV MARX DORMOY                                              92120 MONTROUGE                 P 00000000000000000000                     C  B     
380565 000024L563P103890221 RUE DU PEUIL                  00000008380000000000000000083800000008380000000000          00000008380000000000          000000219000000000000000014000000133         000000000000000004000000000         000000370                                                                        
380565 000025L563C1         22102441011140000000000080000000000     COMMUNE DE VOREPPE                                            MAIRIE                          1 PL CHARLES DE GAULLE                                          38340 VOREPPE                   E 00000000000000000000                       T  ND  
380565 000025L563C2                                                 ASS D EDUCATION POPULAIRE     DE VOREPPE                                                      40 RUE MOUILLE SOL                                              38340 VOREPPE                   P                     0000                          
380565 000025L563N1         0000000000000000000000000000000000000000000000000000000000000000000000000000000500000000000000010000000000000000        00000000000000020000000000000000000000000800000000000000000000000000000000000000000000000000000000000000000000000700000007000000080000000000000000000000000       
380565 000026L563C1         22102441011140000005082000000000151SA   SMAG STE DE MATERIAUX         AGGLOMERES GRENOBLOIS                                           126 CHE DE L ILE DU PONT                                        38340 VOREPPE                   P 00000000000000000000                     C  B     
380565 000026L563P101739001 CHE DES DIGUES                00000111550000000000000001115500000111550000000000          00000111550000000000          000002918000000000000000184000001774         000000000000000055000000000         000004931                                                                        
380565 000027L563C1         22102441011140000105114000000003132SA   STEPAN EUROPE                                                                                 BP 127                                                          38340 VOREPPE CEDEX             P 00000000000000000000                     C TB N   
380565 000027L563N1         0000000000000000000000000000000000000000000000000000000000000000000000020000016900000000000000170000000000000000        00000000000000610000000000000000000000024700000000000000000000000000000000000000000000000000000000000000000000023600000236000002950000000000000000000000000       
380565 000027L563P102859002 CHE JONGKING                  00002301320000000000000023013200002301320000000000          00002301320000000000          000060203000000000000003797000036591         000000000000001144000000000         000101735                                                                        
380565 000028L563C1         22102441011140000007938000000000310     SCI LA TIVOLIERE                                              PAR M MOREL                     270 RUE EMILE ROMANET                                           38340 VOREPPE                   P 00000000000000000000                     C  BO    
380565 000028L563P102430270 RUE EMILE ROMANET             00000137710000000000000001377100000137710000000000          00000137710000013771          000003602000000000000000227000002190         000000000000000068000001541         000007628P                                                                       
380565 000029L563C1         22102441011140000002236000000000086SCI  DIS BRO                                                                                       35 CHE DES LILAS                                                38340 VOREPPE                   P 00000000000000000000                    H N BON   
380565 000029L563N1         0000001200000012000000120000000000000012000000120000000000000000000000000000000900000000000000010000000500000000        00000000000000020000000000000000000000001700000000000000000000000000000000000000000000000000000000000000000000000000000000000000000000000000000000000000000       
380565 000029L563P100370446 RUE DU BOUTET                 00000013850000000000000000138500000013850000000000          00000013850000001385          000000362000000000000000023000000220         000000000000000007000000155         000000767P                                                                       
380565 000029L563P103050035 CHE DES LILAS                 00000024640000000000000000246400000024640000000000          00000024640000002464          000000645000000000000000041000000392         000000000000000012000000276         000001366P                                                                       
380565 000030L563C1         22102441011140000007383000000000289     SCI DES JACQUINS                                              PAR M MARSUC GERARD             62 IMP JEAN DE LA FONTAINE                                      38340 VOREPPE                   P 00000000000000000000                    H   BO    
380565 000030L563P102940062 IMP JEAN DE LA FONTAINE       00000128050000000000000001280500000128050000000000          00000128050000012805          000003350000000000000000211000002036         000000000000000064000001433         000007094P                                                                       
380565 000031L563C1         22102441011140000000000010000000000SA   PROCIVIS ALPES-DAUPHINE                                                                       21 BD MAL FOCH                                                  38100 GRENOBLE                  P 00000000000000000000                       T  ND  
380565 000031L563N1         0000000000000000000000000000000000000000000000000000000000000000000000010000000100000000000000000000000000000000        00000000000000000000000000000000000000000100000000000000000000000000000000000000000000000000000000000000000000000100000001000000010000000000000000000000000       
380565 000032L563C1         22102441011140000000000090000000000     ASS DIOCESAINE DE GRENOBLE                                                                    12 PLACE LAVALETTE                                              38028 GRENOBLE CEDEX 1          P 00000000000000000000                       T  ND  
380565 000032L563N1         0000000000000000000000000000000000000000000000000000000000000000000000000000000600000000000000010000000000000000        00000000000000020000000000000000000000000900000000000000000000000000000000000000000000000000000000000000000000000800000008000000090000000000000000000000000       
380565 000033L563C1         22102441011140000003006000000000117SCI  LES LAURIERS                                                                                  799 ROUTE NATIONALE 532                                         26300 BOURG DE PEAGE            P 00000000000000000000                     C  BO    
380565 000033L563P102430359 RUE EMILE ROMANET             00000052150000000000000000521500000052150000000000          00000052150000005215          000001364000000000000000086000000829         000000000000000026000000584         000002889P                                                                       
380565 000034L563C1         22102441011140000080870000000002413SAS  ALUMINIUM PECHINEY                                                                            725 RUE ARISTIDE BERGES                                         38340 VOREPPE                   P 00000000000000000000                     CNTB N   
380565 000034L563N1         0000062100000621000006210000000000000621000006210000000000000000000000000000044700000000000000450000026300000000        00000007000001300000000000000000000000089200000000000000000000000000000000000000000000000000000000000000000000000500000005000000060000000000000000000000000       
380565 000034L563P100150725 RUE ARISTIDE BERGES           00001754570000000000000017545700001754570000000000          00001754570000000000          000045900000000000000002895000027898         000000000000000872000000000         000077565                                                                        
380565 000035L563C1         22102441011140000016882000000000659SCI  MGB IMMOBILIERE                                                                               BP 136                                                          38343 VOREPPE CEDEX             P 00000000000000000000                     C  BO    
380565 000035L563P102920925 RTE DE L ISERE                00000292850000000000000002928500000292850000000000          00000292850000029285          000007661000000000000000483000004656         000000000000000146000003277         000016223P                                                                       
380565 000036L563C1         22102441011140000000000020000000000     SYNDICAT DU LOTISSEMENT LE    PEUPLIERS 2                                                     SAINT VINCENT DU PLATRE                                         38340 VOREPPE                   P 00000000000000000000                      N   ND  
380565 000036L563N1         0000000200000002000000020000000000000002000000020000000000000000000000000000000100000000000000000000000100000000        00000000000000000000000000000000000000000200000000000000000000000000000000000000000000000000000000000000000000000000000000000000000000000000000000000000000       
380565 000037L563C1         22102441011140000002792000000000109SCI  DE LA RUE DE LA               RESISTANCE                                                      105 RUE DE LA RESISTANCE                                        38340 VOREPPE                   P 00000000000000000000                    HC  BO    
380565 000037L563P104650105 RUE DE LA RESISTANCE          00000048440000000000000000484400000048440000000000          00000048440000004844          000001267000000000000000080000000770         000000000000000024000000542         000002683P                                                                       
380565 000038L563C1         22102441011140000001491000000000056SAS  BLANDINO ET MAZZILLI BM                                                                       LES BALMES                                                      38340 VOREPPE                   P 00000000000000000000                    HCNTBON   
380565 000038L563N1         0000035100000351000003510000000000000351000003510000000000000000000000000000025900000000000000260000014900000000        00000004000000760000000000000000000000051400000000000000000000000000000000000000000000000000000000000000000000001200000012000000150000000000000000000000000       
380565 000038L563P101209002 QUAI DES CHARTREUX            00000005930000000000000000059300000005930000000000          00000005930000000593          000000155000000000000000010000000094         000000000000000003000000066         000000328P                                                                       
380565 000038L563P102500322 AV  HENRI CHAPAYS             00000010720000000000000000107200000010720000000000          00000010720000001072          000000280000000000000000018000000170         000000000000000005000000120         000000593P                                                                       
380565 000039L563C1         22102441011140000000013000000000000SARL ENTREPRISE FAVRE                                                                              2 RUE DE SORNIN                                                 38360 SASSENAGE                 P 00000000000000000000                       T  N   
380565 000039L563N1         0000000000000000000000000000000000000000000000000000000000000000000000000000000900000000000000010000000000000000        00000000000000030000000000000000000000001300000000000000000000000000000000000000000000000000000000000000000000001200000012000000150000000000000000000000000       
380565 000040L563C1         22102441011140000000000020000000000     ASSOCIATION SYNDICALE LIBR    DES RESIDENCES DE VOLOUISE      PAR FONTAINE GUY                ALLE XAVIER PICHAT                                              38340 VOREPPE                   P 00000000000000000000                      N   ND  
380565 000040L563N1         0000000200000002000000020000000000000002000000020000000000000000000000000000000100000000000000000000000100000000        00000000000000000000000000000000000000000200000000000000000000000000000000000000000000000000000000000000000000000000000000000000000000000000000000000000000       
380565 000041L563C1         22102441011140000145987000000004393SA   RADIALL                                                                                       101 RUE PHILIBERT HOFFMANN                                      93110 ROSNY SOUS BOIS           P 00000000000000000000                    HC  BO    
380565 000041L563P100159001 RUE ARISTIDE BERGES           00000059810000000000000000598100000059810000000000          00000059810000005981          000001565000000000000000099000000951         000000000000000030000000669         000003314P                                                                       
380565 000041L563P102430522 RUE EMILE ROMANET             00000415770000000000000004157700000415770000000000          00000415770000002937          000010877000000000000000686000006611         000000000000000207000000329         000018710P                                                                       
380565 000041L563P102430642 RUE EMILE ROMANET             00002704780000000000000027047800002704780000000000          00002704780000000000          000070757000000000000004463000043006         000000000000001344000000000         000119570                                                                        
380565 000042L563C1         22102441011140000014518000000000931SA   SDH                                                           BP 128                          34 AV DE GRUGLIASCO                                             38130 ECHIROLLES                P 00000000000000000000                    H NT ON   
380565 000042L563N1         0000223100002231000022310000000000002231000022310000000000000000000000000000164700000000000001650000094700000000        00000024000004810000000000000000000000326400000000000000000000000000000000000000000000000000000000000000000000007600000076000000950000000000000000000000000       
380565 000042L563P105810012 ALL DU 19 MARS 1962           00000000000000000000000000000000000000000000000000          00000000000000001489          000000000000000000000000000000000000         000000000000000000000000167         000000167P                                                                       
380565 000042L563P105810014 ALL DU 19 MARS 1962           00000000000000000000000000000000000000000000000000          00000000000000001489          000000000000000000000000000000000000         000000000000000000000000167         000000167P                                                                       
380565 000042L563P105810026 ALL DU 19 MARS 1962           00000000000000000000000000000000000000000000000000          00000000000000001489          000000000000000000000000000000000000         000000000000000000000000167         000000167P                                                                       
380565 000042L563P105810028 ALL DU 19 MARS 1962           00000000000000000000000000000000000000000000000000          00000000000000001489          000000000000000000000000000000000000         000000000000000000000000167         000000167P                                                                       
380565 000042L563P105810044 ALL DU 19 MARS 1962           00000000000000000000000000000000000000000000000000          00000000000000001489          000000000000000000000000000000000000         000000000000000000000000167         000000167P                                                                       
380565 000042L563P105810046 ALL DU 19 MARS 1962           00000000000000000000000000000000000000000000000000          00000000000000001489          000000000000000000000000000000000000         000000000000000000000000167         000000167P                                                                       
380565 000042L563P105810055 ALL DU 19 MARS 1962           00000000000000000000000000000000000000000000000000          00000000000000001333          000000000000000000000000000000000000         000000000000000000000000149         000000149P                                                                       
380565 000042L563P105810060 ALL DU 19 MARS 1962           00000000000000000000000000000000000000000000000000          00000000000000001489          000000000000000000000000000000000000         000000000000000000000000167         000000167P                                                                       
380565 000042L563P105810062 ALL DU 19 MARS 1962           00000000000000000000000000000000000000000000000000          00000000000000001489          000000000000000000000000000000000000         000000000000000000000000167         000000167P                                                                       
380565 000042L563P105810067 ALL DU 19 MARS 1962           00000000000000000000000000000000000000000000000000          00000000000000001333          000000000000000000000000000000000000         000000000000000000000000149         000000149P                                                                       
380565 000042L563P105810069 ALL DU 19 MARS 1962           00000000000000000000000000000000000000000000000000          00000000000000001489          000000000000000000000000000000000000         000000000000000000000000167         000000167P                                                                       
380565 000042L563P105810078 ALL DU 19 MARS 1962           00000000000000000000000000000000000000000000000000          00000000000000001489          000000000000000000000000000000000000         000000000000000000000000167         000000167P                                                                       
380565 000042L563P105810080 ALL DU 19 MARS 1962           00000000000000000000000000000000000000000000000000          00000000000000001489          000000000000000000000000000000000000         000000000000000000000000167         000000167P                                                                       
380565 000042L563P105810085 ALL DU 19 MARS 1962           00000000000000000000000000000000000000000000000000          00000000000000001489          000000000000000000000000000000000000         000000000000000000000000167         000000167P                                                                       
380565 000042L563P105810087 ALL DU 19 MARS 1962           00000000000000000000000000000000000000000000000000          00000000000000001333          000000000000000000000000000000000000         000000000000000000000000149         000000149P                                                                       
380565 000042L563P105810096 ALL DU 19 MARS 1962           00000000000000000000000000000000000000000000000000          00000000000000001489          000000000000000000000000000000000000         000000000000000000000000167         000000167P                                                                       
380565 000042L563P105810097 ALL DU 19 MARS 1962           00000000000000000000000000000000000000000000000000          00000000000000001333          000000000000000000000000000000000000         000000000000000000000000149         000000149P                                                                       
380565 000042L563P105810098 ALL DU 19 MARS 1962           00000000000000000000000000000000000000000000000000          00000000000000001489          000000000000000000000000000000000000         000000000000000000000000167         000000167P                                                                       
380565 000042L563P105810099 ALL DU 19 MARS 1962           00000000000000000000000000000000000000000000000000          00000000000000001489          000000000000000000000000000000000000         000000000000000000000000167         000000167P                                                                       
380565 000042L563P105810113 ALL DU 19 MARS 1962           00000000000000000000000000000000000000000000000000          00000000000000001489          000000000000000000000000000000000000         000000000000000000000000167         000000167P                                                                       
380565 000042L563P105810114 ALL DU 19 MARS 1962           00000000000000000000000000000000000000000000000000          00000000000000001489          000000000000000000000000000000000000         000000000000000000000000167         000000167P                                                                       
380565 000042L563P105810115 ALL DU 19 MARS 1962           00000000000000000000000000000000000000000000000000          00000000000000001333          000000000000000000000000000000000000         000000000000000000000000149         000000149P                                                                       
380565 000042L563P105810116 ALL DU 19 MARS 1962           00000000000000000000000000000000000000000000000000          00000000000000001489          000000000000000000000000000000000000         000000000000000000000000167         000000167P                                                                       
380565 000042L563P105810125 ALL DU 19 MARS 1962           00000000000000000000000000000000000000000000000000          00000000000000001333          000000000000000000000000000000000000         000000000000000000000000149         000000149P                                                                       
380565 000042L563P105810127 ALL DU 19 MARS 1962           00000000000000000000000000000000000000000000000000          00000000000000001489          000000000000000000000000000000000000         000000000000000000000000167         000000167P                                                                       
380565 000042L563P105810130 ALL DU 19 MARS 1962           00000000000000000000000000000000000000000000000000          00000000000000001489          000000000000000000000000000000000000         000000000000000000000000167         000000167P                                                                       
380565 000042L563P105810132 ALL DU 19 MARS 1962           00000000000000000000000000000000000000000000000000          00000000000000001489          000000000000000000000000000000000000         000000000000000000000000167         000000167P                                                                       
380565 000042L563P105810143 ALL DU 19 MARS 1962           00000000000000000000000000000000000000000000000000          00000000000000001489          000000000000000000000000000000000000         000000000000000000000000167         000000167P                                                                       
380565 000042L563P105810145 ALL DU 19 MARS 1962           00000000000000000000000000000000000000000000000000          00000000000000001333          000000000000000000000000000000000000         000000000000000000000000149         000000149P                                                                       
380565 000042L563P105810152 ALL DU 19 MARS 1962           00000000000000000000000000000000000000000000000000          00000000000000001489          000000000000000000000000000000000000         000000000000000000000000167         000000167P                                                                       
380565 000042L563P105810155 ALL DU 19 MARS 1962           00000000000000000000000000000000000000000000000000          00000000000000001333          000000000000000000000000000000000000         000000000000000000000000149         000000149P                                                                       
380565 000042L563P105810157 ALL DU 19 MARS 1962           00000000000000000000000000000000000000000000000000          00000000000000001489          000000000000000000000000000000000000         000000000000000000000000167         000000167P                                                                       
380565 000042L563P105810166 ALL DU 19 MARS 1962           00000000000000000000000000000000000000000000000000          00000000000000001489          000000000000000000000000000000000000         000000000000000000000000167         000000167P                                                                       
380565 000042L563P105810168 ALL DU 19 MARS 1962           00000000000000000000000000000000000000000000000000          00000000000000001489          000000000000000000000000000000000000         000000000000000000000000167         000000167P                                                                       
380565 000042L563P105810173 ALL DU 19 MARS 1962           00000000000000000000000000000000000000000000000000          00000000000000001489          000000000000000000000000000000000000         000000000000000000000000167         000000167P                                                                       
380565 000042L563P105810175 ALL DU 19 MARS 1962           00000000000000000000000000000000000000000000000000          00000000000000001333          000000000000000000000000000000000000         000000000000000000000000149         000000149P                                                                       
380565 000042L563P105810180 ALL DU 19 MARS 1962           00000000000000000000000000000000000000000000000000          00000000000000001489          000000000000000000000000000000000000         000000000000000000000000167         000000167P                                                                       
380565 000042L563P105810183 ALL DU 19 MARS 1962           00000000000000000000000000000000000000000000000000          00000000000000001333          000000000000000000000000000000000000         000000000000000000000000149         000000149P                                                                       
380565 000042L563P105810184 ALL DU 19 MARS 1962           00000000000000000000000000000000000000000000000000          00000000000000001489          000000000000000000000000000000000000         000000000000000000000000167         000000167P                                                                       
380565 000042L563P105810185 ALL DU 19 MARS 1962           00000000000000000000000000000000000000000000000000          00000000000000001489          000000000000000000000000000000000000         000000000000000000000000167         000000167P                                                                       
380565 000042L563P105810186 ALL DU 19 MARS 1962           00000000000000000000000000000000000000000000000000          00000000000000001489          000000000000000000000000000000000000         000000000000000000000000167         000000167P                                                                       
380565 000042L563P105810201 ALL DU 19 MARS 1962           00000000000000000000000000000000000000000000000000          00000000000000001489          000000000000000000000000000000000000         000000000000000000000000167         000000167P                                                                       
380565 000042L563P105810203 ALL DU 19 MARS 1962           00000000000000000000000000000000000000000000000000          00000000000000001333          000000000000000000000000000000000000         000000000000000000000000149         000000149P                                                                       
380565 000042L563P105820003 ALL DU GRAND SOM              00000000000000000000000000000000000000000000000000          00000000000000001489          000000000000000000000000000000000000         000000000000000000000000167         000000167P                                                                       
380565 000042L563P105820019 ALL DU GRAND SOM              00000000000000000000000000000000000000000000000000          00000000000000001489          000000000000000000000000000000000000         000000000000000000000000167         000000167P                                                                       
380565 000042L563P105820021 ALL DU GRAND SOM              00000000000000000000000000000000000000000000000000          00000000000000001489          000000000000000000000000000000000000         000000000000000000000000167         000000167P                                                                       
380565 000042L563P105820037 ALL DU GRAND SOM              00000000000000000000000000000000000000000000000000          00000000000000001489          000000000000000000000000000000000000         000000000000000000000000167         000000167P                                                                       
380565 000042L563P105820039 ALL DU GRAND SOM              00000000000000000000000000000000000000000000000000          00000000000000001489          000000000000000000000000000000000000         000000000000000000000000167         000000167P                                                                       
380565 000042L563P105820053 ALL DU GRAND SOM              00000000000000000000000000000000000000000000000000          00000000000000001489          000000000000000000000000000000000000         000000000000000000000000167         000000167P                                                                       
380565 000042L563P105820055 ALL DU GRAND SOM              00000000000000000000000000000000000000000000000000          00000000000000001489          000000000000000000000000000000000000         000000000000000000000000167         000000167P                                                                       
380565 000042L563P105820069 ALL DU GRAND SOM              00000000000000000000000000000000000000000000000000          00000000000000001489          000000000000000000000000000000000000         000000000000000000000000167         000000167P                                                                       
380565 000042L563P105820071 ALL DU GRAND SOM              00000000000000000000000000000000000000000000000000          00000000000000001489          000000000000000000000000000000000000         000000000000000000000000167         000000167P                                                                       
380565 000042L563P105820078 ALL DU GRAND SOM              00000000000000000000000000000000000000000000000000          00000000000000001489          000000000000000000000000000000000000         000000000000000000000000167         000000167P                                                                       
380565 000042L563P105820080 ALL DU GRAND SOM              00000000000000000000000000000000000000000000000000          00000000000000001489          000000000000000000000000000000000000         000000000000000000000000167         000000167P                                                                       
380565 000042L563P105820085 ALL DU GRAND SOM              00000000000000000000000000000000000000000000000000          00000000000000001489          000000000000000000000000000000000000         000000000000000000000000167         000000167P                                                                       
380565 000042L563P105820089 ALL DU GRAND SOM              00000000000000000000000000000000000000000000000000          00000000000000001489          000000000000000000000000000000000000         000000000000000000000000167         000000167P                                                                       
380565 000042L563P105820096 ALL DU GRAND SOM              00000000000000000000000000000000000000000000000000          00000000000000001489          000000000000000000000000000000000000         000000000000000000000000167         000000167P                                                                       
380565 000042L563P105820098 ALL DU GRAND SOM              00000000000000000000000000000000000000000000000000          00000000000000001489          000000000000000000000000000000000000         000000000000000000000000167         000000167P                                                                       
380565 000042L563P105820103 ALL DU GRAND SOM              00000000000000000000000000000000000000000000000000          00000000000000001489          000000000000000000000000000000000000         000000000000000000000000167         000000167P                                                                       
380565 000042L563P105820105 ALL DU GRAND SOM              00000000000000000000000000000000000000000000000000          00000000000000001489          000000000000000000000000000000000000         000000000000000000000000167         000000167P                                                                       
380565 000042L563P105820112 ALL DU GRAND SOM              00000000000000000000000000000000000000000000000000          00000000000000001489          000000000000000000000000000000000000         000000000000000000000000167         000000167P                                                                       
380565 000042L563P105820114 ALL DU GRAND SOM              00000000000000000000000000000000000000000000000000          00000000000000001489          000000000000000000000000000000000000         000000000000000000000000167         000000167P                                                                       
380565 000042L563P105820121 ALL DU GRAND SOM              00000000000000000000000000000000000000000000000000          00000000000000001489          000000000000000000000000000000000000         000000000000000000000000167         000000167P                                                                       
380565 000043L563C1         22102441011140000001084000000000043SCI  LA PLAINE                                                                                     375 RUE JACQUES BREL                                            38340 VOREPPE                   P 00000000000000000000                    H   BO    
380565 000043L563P102690375 RUE JACQUES BREL              00000018800000000000000000188000000018800000000000          00000018800000001880          000000492000000000000000031000000299         000000000000000009000000210         000001041P                                                                       
380565 000044L563C1         22102441011140000000096000000000004SA   CEVIM                                                                                         BP 225                                                          38043 GRENOBLE CEDEX 9          P 00000000000000000000                       T  N   
380565 000044L563N1         0000000000000000000000000000000000000000000000000000000000000000000000010000006300000000000000060000000000000000        00000000000000230000000000000000000000009200000000000000000000000000000000000000000000000000000000000000000000008800000088000001100000000000000000000000000       
380565 000045L563C1         22102441011140000014788000000000577SCI  DE L'AVENUE CHAPAYS                                           B P 46                           AV HENRI CHAPAYS                                               38340 VOREPPE                   P 00000000000000000000                     C  BO    
380565 000045L563P102500735 AV  HENRI CHAPAYS             00000256530000000000000002565300000256530000000000          00000256530000025653          000006711000000000000000423000004079         000000000000000127000002871         000014211P                                                                       
380565 000046L563C1         22102441011140000006153000000000186     COMTE DES SOEURS              DOMINICAINES DU MONAS.NTRE DAME                                 BP 128                                                          38343 VOREPPE CEDEX             P 00000000000000000000                    HC TB N   
380565 000046L563N1         0000000000000000000000000000000000000000000000000000000000000000000000350000014600000000000000150000000000000000        00000000000000530000000000000000000000021400000000000000000000000000000000000000000000000000000000000000000000020400000204000002560000000000000000000000000       
380565 000046L563P100774581 RTE DE CHALAIS                00000130120000000000000001301200000130120000000000          00000130120000000000          000003404000000000000000215000002069         000000000000000065000000000         000005753P                                                                       
380565 000047L563C1         22102441011140000004662000000000182SARL GARAGE DE L ECHAILLON                                         RTE NATIONALE 75                CHAMP DE LA COUR                                                38340 VOREPPE                   R 00000000000000000000                     C  BO    
380565 000047L563C2                                            M SOUQUET-GRUMEY RENE JEAN         VICTOR                                                          7 RUE DU RIF TRONCHARD                                          38120 ST EGREVE                 B                     0000                          
380565 000047L563P104689023 RTE NATIONALE 75              00000080900000000000000000809000000080900000000000          00000080900000008090          000002116000000000000000133000001286         000000000000000040000000905         000004480P                                                                       
380565 000048L563C1         22102441011140000023396000000000913SARL SOC INDUSTRIEL                CONDITIONNEMENT OPTIMISE                                        53 AV DE L EUROPE                                               38120 ST EGREVE                 R 00000000000000000000                     C  BO    
380565 000048L563C2                                            SCI  EUROPEENNE                                                                                     RUE DE POMMARIN                                                38430 MOIRANS                   B                     0000                          
380565 000048L563P105760977 RUE DU POMMARIN               00000405850000000000000004058500000405850000000000          00000405850000040585          000010617000000000000000670000006453         000000000000000202000004541         000022483P                                                                       
380565 000049L563C1         22102441011140000467356000000013925SAS  CONSTELLIUM CRV                                                                               BP 27                                                           38340 VOREPPE CEDEX             P 00000000000000000000                     CNTB N   
380565 000049L563N1         0000155000001550000015500000000000001550000015500000000000000000000000000000111900000000000001120000065800000000        00000016000003250000000000000000000000223000000000000000000000000000000000000000000000000000000000000000000000001700000017000000210000000000000000000000000       
380565 000049L563P100150725 RUE ARISTIDE BERGES           00010206520000000000000102065200010206520000000000          00010206520000000000          000267003000000000000016841000162284         000000000000005073000000000         000451201                                                                        
380565 000050L563C1         22102441011140000007335000000000218SNC  STE IRB BETON                                                                                 BP 2538                                                         68058 MULHOUSE CEDEX            P 00000000000000000000                     C  B     
380565 000050L563P1B0019001 LES BALMES                    00000070250000000000000000702500000070250000000000          00000070250000000000          000001838000000000000000116000001117         000000000000000035000000000         000003106                                                                        
380565 000050L563P1B0019002 LES BALMES                    00000090730000000000000000907300000090730000000000          00000090730000000000          000002373000000000000000150000001443         000000000000000045000000000         000004011                                                                        
380565 000051L563C1         22102441011140000002055000000000081SC   STE GEMUPI                                                                                    90 RUE VICTOR CASSIEN                                           38340 VOREPPE                   P 00000000000000000000                    HC TBON   
380565 000051L563N1         0000000000000000000000000000000000000000000000000000000000000000000000000000000400000000000000000000000000000000        00000000000000020000000000000000000000000600000000000000000000000000000000000000000000000000000000000000000000000600000006000000080000000000000000000000000       
380565 000051L563P100610090 RUE VICTOR CASSIEN            00000035520000000000000000355200000035520000000000          00000035520000003552          000000929000000000000000059000000565         000000000000000018000000397         000001968P                                                                       
380565 000052L563C1         22102441011140000000000060000000000SCI  DU 8 RUE POGNIENT                                             LE CERF                         1854 RTE DE GIRARDIERE                                          38450 VIF                       P 00000000000000000000                    H   BO D  
380565 000052L563P104000014 RUE POGNIENT                  00000000110000000000000000001100000000110000000000          00000000110000000011          000000003000000000000000000000000002         000000000000000000000000001         000000006P                                                                       
380565 000053L563C1         22102441011140000001337000000000051SA   SOCIETE D'HABITATIONS DES     ALPES SA HLM                    BP 229                                                                                          38506 VOIRON CEDEX              E 00000000000000000000                    H N BON   
380565 000053L563C2                                                 ASS FAMILIALE ISERE AIDE      ENFANTS INFIRMES MENTAUX                                        3 AV MARIE REYNOARD                                             38029 GRENOBLE CEDEX            P                     0000                          
380565 000053L563N1         0000000800000008000000080000000000000008000000080000000000000000000000000000000600000000000000010000000300000000        00000000000000020000000000000000000000001200000000000000000000000000000000000000000000000000000000000000000000000000000000000000000000000000000000000000000       
380565 000053L563P102450250 RUE DE GACHETIERE             00000023210000000000000000232100000023210000000000          00000000000000002321          000000607000000000000000038000000369         000000000000000000000000260         000001274P                                                                       
380565 000054L563C1         22102441011140000002071000000000080     ASS D EDUCATION POPULAIRE     DE VOREPPE                                                      40 RUE MOUILLE SOL                                              38340 VOREPPE                   P 00000000000000000000                    HC  BO    
380565 000054L563P102809003 RUE JEAN ACHARD               00000031540000000000000000315400000031540000000000          00000031540000003154          000000825000000000000000052000000501         000000000000000016000000353         000001747P                                                                       
380565 000054L563P103000101 RUE LAMBOURNAY                00000004420000000000000000044200000004420000000000          00000004420000000442          000000116000000000000000007000000070         000000000000000002000000049         000000244P                                                                       
380565 000055L563C1         22102441011140000000605000000000023SCI  ATHENA                                                        CHEZ REY RENE                   518 RTE DE LA TIVOLLIERE                                        38500 COUBLEVIE                 P 00000000000000000000                     C  BO    
380565 000055L563P102600086 RUE DE L ISLE                 00000010510000000000000000105100000010510000000000          00000010510000001051          000000275000000000000000017000000167         000000000000000005000000118         000000582P                                                                       
380565 000056L563C1         22102441011140000000953000000000038SCI  DE LA RUE PIERRE ET           MARIE CURIE                                                     126 RUE PIERRE ET MARIE CURIE                                   38340 VOREPPE                   P 00000000000000000000                    H   BO    
380565 000056L563P103920126 RUE PIERRE ET MARIE CURIE     00000016530000000000000000165300000016530000000000          00000016530000001653          000000432000000000000000027000000263         000000000000000008000000185         000000915P                                                                       
380565 000057L563C1         22102441011140000000000010000000000DEPT DEPARTEMENT DE L ISERE                                        BP 1096                         7 RUE FANTIN LATOUR                                             38022 GRENOBLE CEDEX 1          P 00000000000000000000                      NT  ND  
380565 000057L563N1         0000000000000000000000000000000000000000000000000000000000000000000000010000000100000000000000000000000000000000        00000000000000000000000000000000000000000100000000000000000000000000000000000000000000000000000000000000000000000100000001000000010000000000000000000000000       
380565 000058L563C1         22102441011140000006959000000000245EPIC SNCF SOCIETE NATIONALE DES    CHEMINS DE FE                   DIVISION APPLICATIONS FISCALES  45 RUE DE LONDRES                                               75379 PARIS CEDEX 08            P 00000000000000000000                    HCNTBON   
380565 000058L563N1         0000178000001780000017800000000000001780000017800000000000000000000000020000128900000000000001290000075500000000        00000019000003750000000000000000000000256700000000000000000000000000000000000000000000000000000000000000000000002600000026000000320000000000000000000000000       
380565 000058L563P1B0360899BLA GARE                       00000031730000000000000000317300000031730000000000          00000031730000000018          000000830000000000000000052000000505         000000000000000016000000002         000001405P                                                                       
380565 000058L563P1B0559001 L ILE PLANCON                 00000006770000000000000000067700000006770000000000          00000006770000000000          000000177000000000000000011000000108         000000000000000003000000000         000000299                                                                        
380565 000058L563P1B0589047 LES JACQUINS                  00000005880000000000000000058800000005880000000000          00000005880000000000          000000154000000000000000010000000093         000000000000000003000000000         000000260                                                                        
380565 000058L563P100299001 RUE DE BEAUVILLAGE            00000009030000000000000000090300000009030000000000          00000009030000000903          000000236000000000000000015000000144         000000000000000004000000101         000000500P                                                                       
380565 000058L563P100309004 CHE DES BLOCKHAUS             00000030400000000000000000304000000030400000000000          00000030400000003040          000000795000000000000000050000000483         000000000000000015000000340         000001683P                                                                       
380565 000059L563C1         22102441011140000001791000000000070SCI  STE CIVILE IMMOB SAYAGH                                                                       5 RUE DU BOUTET                                                 38340 VOREPPE                   P 00000000000000000000                     C  BO    
380565 000059L563P100370005 RUE DU BOUTET                 00000031060000000000000000310600000031060000000000          00000031060000003106          000000813000000000000000051000000494         000000000000000015000000348         000001721P                                                                       
380565 000060L563C1         22102441011140000000012000000000000SEM  S A V V STE AMENAG VILLE D    VOREPPE                         MAIRIE DE VOREPPE                QUAI DOCTEUR JACQUIN                                           38340 VOREPPE                   P 00000000000000000000                      N   N   
380565 000060L563N1         0000000800000008000000080000000000000008000000080000000000000000000000000000000600000000000000010000000300000000        00000000000000020000000000000000000000001200000000000000000000000000000000000000000000000000000000000000000000000000000000000000000000000000000000000000000       
380565 000061L563C1         22102441011140000000000040000000000SA   PROCIVIS ALPES-DAUPHINE                                                                       42 B QUAI DE FRANCE                                             38000 GRENOBLE                  P 00000000000000000000                      NT  ND  
380565 000061L563N1         0000000300000003000000030000000000000003000000030000000000000000000000000000000200000000000000000000000100000000        00000000000000010000000000000000000000000400000000000000000000000000000000000000000000000000000000000000000000000000000000000000000000000000000000000000000       
380565 000062L563C1         22102441011140000012827000000000501SCI  GRANDE RUE                                                    CHES EPERGOS                    1 SQ PIERRE-RUIBET                                              38500 VOIRON                    P 00000000000000000000                    HC  BO    
380565 000062L563P104000013 RUE POGNIENT                  00000030160000000000000000301600000030160000000000          00000030160000003016          000000789000000000000000050000000480         000000000000000015000000337         000001671P                                                                       
380565 000062L563P104000027 RUE POGNIENT                  00000121140000000000000001211400000121140000000000          00000121140000012114          000003169000000000000000200000001926         000000000000000060000001356         000006711P                                                                       
380565 000062L563P104800054 GR  GRANDE RUE                00000014380000000000000000143800000014380000000000          00000014380000001438          000000376000000000000000024000000229         000000000000000007000000161         000000797P                                                                       
380565 000062L563P104800060 GR  GRANDE RUE                00000011470000000000000000114700000011470000000000          00000011470000001147          000000300000000000000000019000000182         000000000000000006000000128         000000635P                                                                       
380565 000062L563P104800070 GR  GRANDE RUE                00000045320000000000000000453200000045320000000000          00000045320000004532          000001186000000000000000075000000721         000000000000000023000000507         000002512P                                                                       
380565 000063L563C1         22102441011140000000881000000000035SCI  MALOSSANNE 3J                                                 PAR MME CHAUVIN MARIE CHIRSTIN  10 RUE DAUPHINE                                                 36000 CHATEAUROUX               P 00000000000000000000                    H  TBON   
380565 000063L563N1         0000000000000000000000000000000000000000000000000000000000000000000000000000000000000000000000000000000000000000        00000000000000000000000000000000000000000000000000000000000000000000000000000000000000000000000000000000000000000000000000000000010000000000000000000000000       
380565 000063L563P103210325 CHE DE MALOSSANE              00000015260000000000000000152600000015260000000000          00000015260000001526          000000399000000000000000025000000243         000000000000000008000000171         000000846P                                                                       
380565 000064L563C1         22102441011140000000073000000000003SCI  PLEIN CENTRE                                                  PAR M.AZARIO CHRYSANTE          BADIEU                                                          38110 LA TOUR DU PIN            P 00000000000000000000                    H   BO    
380565 000064L563P102500394 AV  HENRI CHAPAYS             00000001260000000000000000012600000001260000000000          00000001260000000126          000000033000000000000000002000000020         000000000000000001000000014         000000070P                                                                       
380565 000065L563C1         22102441011140000087812000000002761SAS  POMAGALSKI                                                                                    11 RUE RENE CAMPHIN                                             38600 FONTAINE                  P 00000000000000000000                     CN BON   
380565 000065L563N1         0000096000000960000009600000000000000960000009600000000000000000000000000000068500000000000000690000040700000000        00000010000001990000000000000000000000137000000000000000000000000000000000000000000000000000000000000000000000000000000000000000000000000000000000000000000       
380565 000065L563P100150109 RUE ARISTIDE BERGES           00000254880000000000000002548800000254880000000000          00000254880000025488          000006668000000000000000421000004053         000000000000000127000002852         000014121P                                                                       
380565 000065L563P103109004 RUE LOUIS ARMAND              00001657160000000000000016571600001424620000000000          00001657160000000000          000043351000000000000002734000022651         000000000000000824000000000         000069560                                                                        
380565 000066L563C1         22102441011140000000209000000000007     ASSOCIATION SYNDICALE LIBR    DU LOT LA ROCHE                                                 394 AV HENRI CHAPAYS                                            38340 VOREPPE                   P 00000000000000000000                      N   N   
380565 000066L563N1         0000014200000142000001420000000000000142000001420000000000000000000000000000010100000000000000100000006000000000        00000002000000290000000000000000000000020200000000000000000000000000000000000000000000000000000000000000000000000000000000000000000000000000000000000000000       
380565 000067L563C1         22102441011140000001999000000000078SCI  LAVOISIER                                                                                     BP 74                                                           38340 VOREPPE CEDEX             P 00000000000000000000                    HCN BON   
380565 000067L563N1         0000000100000001000000010000000000000001000000010000000000000000000000000000000100000000000000000000000000000000        00000000000000000000000000000000000000000100000000000000000000000000000000000000000000000000000000000000000000000000000000000000000000000000000000000000000       
380565 000067L563P102500610 AV  HENRI CHAPAYS             00000034670000000000000000346700000034670000000000          00000034670000003467          000000907000000000000000057000000551         000000000000000017000000388         000001920P                                                                       
380565 000068L563C1         22102441011140000023943000000000925SA   SCIC HABITAT RHONE ALPES      SA DE HLM                       IMMEUBLE LE FIRST               2 AVENUE LACASSAGNE                                             69425 LYON CEDEX 03             P 00000000000000000000                    H   BO    
380565 000068L563P105220020 ALL JEAN FRANCOIS THORAND     00000139780000000000000001397800000139780000000000          00000000000000013978          000003657000000000000000231000002223         000000000000000000000001564         000007675P                                                                       
380565 000068L563P105220030 ALL JEAN FRANCOIS THORAND     00000139130000000000000001391300000139130000000000          00000000000000013913          000003640000000000000000230000002212         000000000000000000000001557         000007639P                                                                       
380565 000068L563P105220050 ALL JEAN FRANCOIS THORAND     00000140310000000000000001403100000140310000000000          00000000000000014031          000003671000000000000000232000002231         000000000000000000000001570         000007704P                                                                       
380565 000069L563C1         22102441011140000000000040000000000     ASSOCIATION SYND DE L         EMBRANCHEMENT FERRE DE VOREPPE MCENTR ALP                       347 RUE ARISTIDE BERGES                                         38340 VOREPPE                   P 00000000000000000000                      NT  ND  
380565 000069L563N1         0000000200000002000000020000000000000002000000020000000000000000000000000000000200000000000000000000000100000000        00000000000000010000000000000000000000000400000000000000000000000000000000000000000000000000000000000000000000000100000001000000010000000000000000000000000       
380565 000070L563C1         22102441011140000002186000000000085SCI  BALLON ROUGE                                                                                  839 RTE DE CHARTREUSE                                           38340 VOREPPE                   P 00000000000000000000                    HC  BO    
380565 000070L563C2                                            MME ZANIER MARTINE ALICE           MADELEINE           GESTIONNAIRE839 ROUTE DE CHARTREUSE         839 RTE DE CHARTREUSE                                           38340 VOREPPE                   G                     0000                          
380565 000070L563P101600054 PL  DEBELLE                   00000012430000000000000000124300000012430000000000          00000012430000001243          000000325000000000000000021000000198         000000000000000006000000139         000000689P                                                                       
380565 000070L563P102200094 PL  DOCTEUR THEVENET          00000001710000000000000000017100000001710000000000          00000001710000000171          000000045000000000000000003000000027         000000000000000001000000019         000000095P                                                                       
380565 000070L563P102200098 PL  DOCTEUR THEVENET          00000023780000000000000000237800000023780000000000          00000023780000002378          000000622000000000000000039000000378         000000000000000012000000266         000001317P                                                                       
380565 000071L563C1         22102441011140000014295000000000558SCI  LELY GABRIEL ET MARCEL                                                                         RUE DES GRANDS CHAMPS                                          38360 SASSENAGE                 P 00000000000000000000                     C  BO    
380565 000071L563C2                                            M LELY MARCEL EDOUARD LEON                             GESTIONNAIRE                                14 RUE DU ROUTOIR                                               38360 SASSENAGE                 G                     0000                          
380565 000071L563P103290541 CHE DES MARINIERS             00000247990000000000000002479900000247990000000000          00000247990000024799          000006487000000000000000409000003943         000000000000000123000002775         000013737P                                                                       
380565 000072L563C1         22102441011140000010601000000000413SCI  GRISA FRERES                                                                                  15 CHEM DE MOLLARD CEVAL                                        38140 BEAUCROISSANT             P 00000000000000000000                     C TBON   
380565 000072L563C2                                            M CRISACI JACQUES EDOUARD ADRIEN                       GESTIONNAIRE                                LE BOIS                                                         38140 BEAUCROISSANT             G                     0000                          
380565 000072L563N1         0000000000000000000000000000000000000000000000000000000000000000000000000000000500000000000000010000000000000000        00000000000000020000000000000000000000000800000000000000000000000000000000000000000000000000000000000000000000000700000007000000080000000000000000000000000       
380565 000072L563P103100141 RUE LOUIS ARMAND              00000183780000000000000001837800000183780000000000          00000183780000018378          000004808000000000000000303000002922         000000000000000091000002056         000010180P                                                                       
380565 000073L563C1         22102441011140000001753000000000068SCI  DE L ECLUSE                                                   CHEZ BUSI SYLVAIN               370 RUE DES CARTEUX                                             38340 VOREPPE                   P 00000000000000000000                    H   BO    
380565 000073L563C2                                            M BUSI SYLVAIN                                         GESTIONNAIRE                                370 RUE DES CARTEUX                                             38340 VOREPPE                   G                     0000                          
380565 000073L563P102390021 PL  DE L ECLUSE               00000030420000000000000000304200000030420000000000          00000030420000003042          000000796000000000000000050000000484         000000000000000015000000340         000001685P                                                                       
380565 000074L563C1         22102441011140000001923000000000076SCI  DUBEAUCHENE                                                   CHEZ AABIS                      212 RUE ARISTIDE BERGES                                         38340 VOREPPE                   P 00000000000000000000                     C  BO    
380565 000074L563C2                                            M BEAUMIER NOEL AIME PAUL                              GESTIONNAIRERESIDENCE LES CORNELLES         161 RUE DE LA FRANQUETTE                                        38430 ST JEAN DE MOIRANS        G                     0000                          
380565 000074L563P100150212 RUE ARISTIDE BERGES           00000033340000000000000000333400000033340000000000          00000033340000003334          000000872000000000000000055000000530         000000000000000017000000373         000001847P                                                                       
380565 000075L563C1         22102441011140000000957000000000038SCI  HORSE MED                                                                                     31 RUE ROGER DU MARAIS                                          38430 MOIRANS                   P 00000000000000000000                    H   BO    
380565 000075L563C2                                            M FERRER JEAN-MARIE                                    GESTIONNAIREBAT LE FRESNE RES DU PARC       31 RUE ROGER DU MARAIS                                          38430 MOIRANS                   G                     0000                          
380565 000075L563P100349003 RUE BEYLE STENDHAL            00000016590000000000000000165900000016590000000000          00000016590000001659          000000434000000000000000027000000264         000000000000000008000000186         000000919P                                                                       
380565 000076L563C1         22102441011140000001611000000000063SCI  MACODES                                                                                       100 ALL DE LA CHENAIE                                           38340 VOREPPE                   P 00000000000000000000                    H   BO    
380565 000076L563P101460100 ALL DE LA CHENAIE             00000027930000000000000000279300000027930000000000          00000027930000002793          000000731000000000000000046000000444         000000000000000014000000313         000001548P                                                                       
380565 000077L563C1         22102441011140000005744000000000225SCI  AJCM                                                                                          360 RUE EMILE ROMANET                                           38340 VOREPPE                   P 00000000000000000000                     C  BO    
380565 000077L563P102430360 RUE EMILE ROMANET             00000099620000000000000000996200000099620000000000          00000099620000009962          000002606000000000000000164000001584         000000000000000050000001115         000005519P                                                                       
380565 000078L563C1         22102441011140000001973000000000081     ETAT MINISTERE DE L           AGRICULTURE DE LA PECHE DE LA FO                                44 AV MARCELIN BERTHELOT                                        38100 GRENOBLE                  P 00000000000000000000                       T  N   
380565 000078L563C2                                                 OFFICE NATIONAL DES FORETS    CENTRE DE GESTION D GESTIONNAIREHOTEL DES ADMINISTRATIONS       9 QUAI CREQUI                                                   38026 GRENOBLE CEDEX            G                     0000                          
380565 000078L563N1         0000000000000000000000000000000000000000000000000000000000000000000022350000127800000000000001280000000000000000        00000023000004630000000000000000000000189200000000000000000000000000000000000000000000000000000000000000000000179000001790000022380000000000002192000000000       
380565 000079L563C1         22102441011140000000646000000000026SCI  J.P.S                                                                                         85 CHE DE MALSOUCHE                                             38340 VOREPPE                   P 00000000000000000000                    H  TBON   
380565 000079L563N1         0000000000000000000000000000000000000000000000000000000000000000000000000000000100000000000000000000000000000000        00000000000000010000000000000000000000000200000000000000000000000000000000000000000000000000000000000000000000000200000002000000030000000000000000000000000       
380565 000079L563P103339001 IMP DES FRERES MONTGOLFIER    00000011160000000000000000111600000011160000000000          00000011160000001116          000000292000000000000000018000000177         000000000000000006000000125         000000618P                                                                       
380565 000080L563C1         22102441011140000002705000000000105SCI  DES PALLACHES                                                 CHEZ MR TOUSSANT MARIUS          CHE DES ACACIAS                                                38430 ST JEAN DE MOIRANS        P 00000000000000000000                    H   BO    
380565 000080L563P103609001 RUE DES PALLACHES             00000010080000000000000000100800000010080000000000          00000010080000001008          000000264000000000000000017000000160         000000000000000005000000113         000000559P                                                                       
380565 000080L563P104800055 GR  GRANDE RUE                00000036860000000000000000368600000036860000000000          00000036860000003686          000000964000000000000000061000000586         000000000000000018000000412         000002041P                                                                       
380565 000081L563C1         22102441011140000000000010000000000SCI  S R D                                                         PAR M ET MME DETROYAT           294 CHE DE LA CARLE                                             38500 LA BUISSE                 P 00000000000000000000                       T  ND  
380565 000081L563N1         0000000000000000000000000000000000000000000000000000000000000000000000000000000100000000000000000000000000000000        00000000000000000000000000000000000000000100000000000000000000000000000000000000000000000000000000000000000000000100000001000000020000000000000000000000000       
380565 000082L563C1         22102441011140000108211000000003220SA   RECTOR LESAGE                                                                                 RUE DE HIRTZACH                                                 68000 MULHOUSE                  P 00000000000000000000                     C TB N   
