380565       L563           TF201320131011ISERE                         VOREPPE                                                          C000000000000000000000000000000000000000000000000159000000000000000000000000000002070000                                                                                     
380565       L563A1         PVOREPPE                       2212013083120131015                               0424300002616000000000000016500000000000000497000111900000000000000000000000000000000000G071400000000000000715000000000000010600000000000PAYS VOIRONNAIS               CCC L563 243800984     L563       
380565 000001L563C1         22102441011140000040675000000001584     COMMUNE DE VOREPPE                                            MAIRIE                          1 PL CHARLES DE GAULLE                                          38340 VOREPPE                   P 00000000000000000000                    HCNTBON   
380565 000001L563N1         0000063400000634000006340000000000000634000006340000000000000000000017600000210400000000000002110000026900000000        00000007000007300000000000000000000000332100000000000000000000000000000000000000000000000000000000000000000000231300002313000028920000000000000000000000000       
380565 003651L563C1         22102441011140000000047000000000002M YVRAI JACQUES NOEL                                                                               104 CHE DE BAGODE                                               38330 ST ISMIER                 PI00000000000000000000                       T  N   
380565 003651L563C2                                            MME TAVERNIER MARIE LAURE          NEE YVRAI                                                       131 CHE DE CHANTEGRILLET                                        69110 STE FOY LES LYON          PI                    0000                          
380565 003651L563N1         0000000000000000000000000000000000000000000000000000000000000000000000000000003100000000000000030000000000000000        00000000000000110000000000000000000000004500000000000000000000000000000000000000000000000000000000000000000000004400000044000000550000000000000000000000000       
380565 003652L563C1         22102441011140000000084000000000006M ZAMPARINI BENIAMINO                                                                              9001 RUE DES TUPINIERES                                         38340 VOREPPE                   P 00000006700000000000                    H  T ON   
380565 003652L563N1         0000000000000000000000000000000000000000000000000000000000000000000000000000000200000000000000000000000000000000        00000000000000010000000000000000000000000300000000000000000000000000000000000000000000000000000000000000000000000300000003000000030000000000000000000000000       
380565 003652L563P105209001 RUE DES TUPINIERES            00000000000000000000000000000000000000000000000000          00000000000000000670          000000000000000000000000000000000000         000000000000000000000000075         000000075P                                                                       
380565 003653L563C1         22102441011140000001579000000000061M ZANARDI GILBERT MICHEL                                                                           20 CHE DU MORTIER                                               38340 VOREPPE                   PI00000000000000000000                    H   BO    
380565 003653L563C2                                            MME ZANARDI RACHELLE MARGUE        NEE MASCHIO                                                     20 CHE DU MORTIER                                               38340 VOREPPE                   PI                    0000                          
380565 003653L563P103370020 CHE DU MORTIER                00000027390000000000000000273900000027390000000000          00000027390000002739          000000717000000000000000045000000436         000000000000000014000000306         000001518P                                                                       
380565 003654L563C1         22102441011140000000968000000000038M ZONTA GUI                                                                                        351 CHE DES BALMES                                              38340 VOREPPE                   PI00000000000000000000                    H   BO    
380565 003654L563C2                                            MME ZONTA MARIE                    NEE FAVRO                                                       351 CHE DES BALMES                                              38340 VOREPPE                   PI                    0000                          
380565 003654L563P100240350 CHE DES BALMES                00000016790000000000000000167900000016790000000000          00000016790000001679          000000439000000000000000028000000267         000000000000000008000000188         000000930P                                                                       
380565 003655L563C1         22102441011140000001571000000000061M ZAPLANA JOSE                                                                                     120 GR GRANDE RUE                                               38340 VOREPPE                   PI00000000000000000000                    HC  BO    
380565 003655L563C2                                            MME ZAPLANA-NAVARRO PATRICIA       NEE CAYSSIALS                                                   120 GR GRANDE RUE                                               38340 VOREPPE                   PI                    0000                          
380565 003655L563P104800120 GR  GRANDE RUE                00000027260000000000000000272600000027260000000000          00000027260000002726          000000713000000000000000045000000433         000000000000000014000000305         000001510P                                                                       
380565 003656L563C1         22102441011140000001329000000000052MME TRUCHET NOEMIE PIERINA         NEE ZORZI                                                       61 ALL DES JASMINS                                              38340 VOREPPE                   P 00000000000000000000                    H   BO    
380565 003656L563P102810061 ALL DES JASMINS               00000023060000000000000000230600000023060000000000          00000023060000002306          000000603000000000000000038000000367         000000000000000011000000258         000001277P                                                                       
380565 003657L563C1         22102441011140000002694000000000105MME ZANIER MARTINE ALICE           MADELEINE                       839 ROUTE DE CHARTREUSE         839 RTE DE CHARTREUSE                                           38340 VOREPPE                   P 00000000000000000000                    H  TBON   
380565 003657L563N1         0000000000000000000000000000000000000000000000000000000000000000000000000000000400000000000000000000000000000000        00000000000000010000000000000000000000000500000000000000000000000000000000000000000000000000000000000000000000000500000005000000060000000000000000000000000       
380565 003657L563P102200098 PL  DOCTEUR THEVENET          00000011700000000000000000117000000011700000000000          00000011700000001170          000000306000000000000000019000000186         000000000000000006000000131         000000648P                                                                       
380565 003657L563P104700839 RTE NATIONALE 520             00000023830000000000000000238300000023830000000000          00000023830000002383          000000623000000000000000039000000379         000000000000000012000000267         000001320P                                                                       
380565 003657L563P104800001 GR  GRANDE RUE                00000011110000000000000000111100000011110000000000          00000011110000001111          000000291000000000000000018000000177         000000000000000006000000124         000000616P                                                                       
380565 003658L563C1         22102441011140000002582000000000100MME PISICCHIO CHANTAL YVETTE       NEE ZANIER                                                      195 QUAI DOCTEUR JACQUIN                                        38340 VOREPPE                   P 00000000000000000000                    H  TBON   
380565 003658L563N1         0000000000000000000000000000000000000000000000000000000000000000000000000000000600000000000000010000000000000000        00000000000000020000000000000000000000000900000000000000000000000000000000000000000000000000000000000000000000000800000008000000100000000000000000000000000       
380565 003658L563P101800195 QUAI DOCTEUR JACQUIN          00000026270000000000000000262700000026270000000000          00000026270000002627          000000687000000000000000043000000418         000000000000000013000000294         000001455P                                                                       
380565 003658L563P102200098 PL  DOCTEUR THEVENET          00000018380000000000000000183800000018380000000000          00000018380000001838          000000481000000000000000030000000292         000000000000000009000000206         000001018P                                                                       
380565 003659L563C1         22102441011140000002635000000000103MME ZANIER MARTINE ALICE           MADELEINE                       839 ROUTE DE CHARTREUSE         839 RTE DE CHARTREUSE                                           38340 VOREPPE                   PI00000000000000000000                     C  BO    
380565 003659L563C2                                            MME PISICCHIO CHANTAL YVETTE       NEE ZANIER                                                      195 QUAI DOCTEUR JACQUIN                                        38340 VOREPPE                   PI                    0000                          
380565 003659L563P101600042 PL  DEBELLE                   00000045710000000000000000457100000045710000000000          00000045710000004571          000001196000000000000000075000000727         000000000000000023000000511         000002532P                                                                       
380565 003660L563C1         22102441011140000001819000000000070M ZAMMIT ROLAND ANGEL MARIE                                                                        841 RUE DE BOURG VIEUX                                          38340 VOREPPE                   PI00000000000000000000                    H   BO    
380565 003660L563C2                                            MME ZAMMIT JOELLE MARIE-LO         NEE JACOB                                                       841 RUE DE BOURG VIEUX                                          38340 VOREPPE                   PI                    0000                          
380565 003660L563P1B0050841 BOURG VIEUX                   00000031580000000000000000315800000031580000000000          00000031580000003158          000000826000000000000000052000000502         000000000000000016000000353         000001749P                                                                       
380565 003661L563C1         22102441011140000000696000000000028MME ZANARDI ESTELLE NADEGE                                                                         86 RUE DE L ISLE                                                38340 VOREPPE                   P 00000000000000000000                    H   BO    
380565 003661L563P102600086 RUE DE L ISLE                 00000012060000000000000000120600000012060000000000          00000012060000001206          000000315000000000000000020000000192         000000000000000006000000135         000000668P                                                                       
380565 003662L563C1         22102441011140000001041000000000041MME ZANON LAURENCE REGINE                                          DOMAINE DU COTEAU               1055 J RTE DE CHAMP CHABERT                                     38500 LA BUISSE                 P 00000000000000000000                    H   BO    
380565 003662L563P105800129AALL DE BEAUREGARD             00000018040000000000000000180400000018040000000000          00000018040000001804          000000472000000000000000030000000287         000000000000000009000000202         000001000P                                                                       
380565 003663L563C1         22102441011140000001054000000000042M ZANESE JEAN-CLAUDE ALAIN                                                                         179 B ALL JEAN PAIN                                             38340 VOREPPE                   PI00000000000000000000                    H   BO    
380565 003663L563C2                                            MME ZANESE LUCRETIA                NEE DANCIU                                                      179 B ALL JEAN PAIN                                             38340 VOREPPE                   PI                    0000                          
380565 003663L563P105840179AALL JEAN PAIN                 00000001810000000000000000018100000001810000000000          00000001810000000181          000000047000000000000000003000000029         000000000000000001000000020         000000100P                                                                       
380565 003663L563P105840179BALL JEAN PAIN                 00000016480000000000000000164800000016480000000000          00000016480000001648          000000431000000000000000027000000262         000000000000000008000000184         000000912P                                                                       
380565 003664L563C1         22102441011140000000000080000000000M ZAMMIT MARIUS                                                                                    112 CHE DU FANGEAT                                              38330 ST ISMIER                 PI00000000000000000000                       T  ND  
380565 003664L563C2                                            MME GACHON ANNE-MARIE              NEE BALZANO                                                     2 CHE DES VIGNES                                                38190 VILLARD BONNOT            PI                    0000                          
380565 003664L563N1         0000000000000000000000000000000000000000000000000000000000000000000000000000000500000000000000010000000000000000        00000000000000020000000000000000000000000800000000000000000000000000000000000000000000000000000000000000000000000700000007000000090000000000000000000000000       
380565 003665L563C1         22102441011140000002032000000000080M ZANARDI RAPHAEL JULIEN                                                                           9 CHE DES SOURCES                                               38340 VOREPPE                   PI00000000000000000000                    H   BO    
380565 003665L563C2                                            MME ZANARDI MARIE-EMMANUELL        NEE MOLLET                                                      9 CHE DES SOURCES                                               38340 VOREPPE                   PI                    0000                          
380565 003665L563P104990009 CHE DES SOURCES               00000036300000000000000000329800000032980000000000          00000036300000003630          000000950000000000000000054000000524         000000000000000018000000406         000001952P                                                                       
380565 003666L563C1         22102441011140000000697000000000028MME MUSSO ELEONORA                 NEE ZAMPARINI                                                   118 RUE MOUILLE SOL                                             38340 VOREPPE                   PI00000000000000000000                    H  TBON   
380565 003666L563C2                                            M MUSSO JULIEN                                                                                     508 RUE GENERAL DE GAULLE                                       38330 MONTBONNOT ST MARTIN      PI                    0000                          
380565 003666L563N1         0000000000000000000000000000000000000000000000000000000000000000000000000000000100000000000000000000000000000000        00000000000000000000000000000000000000000100000000000000000000000000000000000000000000000000000000000000000000000100000001000000010000000000000000000000000       
380565 003666L563P103200118 RUE MOUILLE SOL               00000012060000000000000000120600000012060000000000          00000012060000001206          000000315000000000000000020000000192         000000000000000006000000135         000000668P                                                                       
380565 003667L563C1         22102441011140000000016000000000000M ZAMBELLI DANIEL ARMAND                                                                           61 RUE DU VERCORS                                               38500 VOIRON                    PI00000000000000000000                       T  N   
380565 003667L563C2                                            MME BOFFELLI CLAUDETTE HELEN       NEE ZAMBELLI                                                    19 RUE DES BUISSONS                                             38500 VOIRON                    PI                    0000                          
380565 003667L563N1         0000000000000000000000000000000000000000000000000000000000000000000000010000001100000000000000010000000000000000        00000000000000040000000000000000000000001600000000000000000000000000000000000000000000000000000000000000000000001600000016000000190000000000000000000000000       
380565 003668L563C1         22102441011140000001366000000000053M ZERGAINOH ALAIN NASSERDINE                                                                       190 ALL DE LA CHENAIE                                           38340 VOREPPE                   P 00000000000000000000                    H   BO    
380565 003668L563P101460190 ALL DE LA CHENAIE             00000023710000000000000000237100000023710000000000          00000023710000002371          000000620000000000000000039000000377         000000000000000012000000265         000001313P                                                                       
380565 003669L563C1         22102441011140000000765000000000031M ZENAT ABDELKADER                                                                                 245 RTE DE LYON                                                 38340 VOREPPE                   PI00000000000000000000                    H  TBON   
380565 003669L563C2                                            MME ZENAT FATMA                    NEE AISSANI                                                     245 RTE DE LYON                                                 38340 VOREPPE                   PI                    0000                          
380565 003669L563N1         0000000000000000000000000000000000000000000000000000000000000000000000000000002100000000000000020000000000000000        00000000000000070000000000000000000000003000000000000000000000000000000000000000000000000000000000000000000000002900000029000000360000000000000000000000000       
380565 003669L563P104699001 RTE NATIONALE 85              00000012720000000000000000127200000012720000000000          00000012720000001272          000000333000000000000000021000000202         000000000000000006000000142         000000704P                                                                       
380565 003670L563C1         22102441011140000000749000000000030MME TRUCHET NOEMIE PIERINA         NEE ZORZI                                                       61 ALL DES JASMINS                                              38340 VOREPPE                   PI00000000000000000000                    H   BO    
380565 003670L563C2                                            MME TRUCHET ESTHER CHRISTIANE      MELINA                                                          273 RUE JOSEPH VIALLAZ                                          01110 HAUTEVILLE LOMPNES        PI                    0000                          
380565 003670L563P100370046 RUE DU BOUTET                 00000012990000000000000000129900000012990000000000          00000012990000001299          000000340000000000000000021000000207         000000000000000006000000145         000000719P                                                                       
380565A      L563A2         P001250677100032717560000000000000000000000124141680000204797001238954500019699450000000000000000000000118331810000058890000000000000000000000009148278000102365900000000000000000000000000000000000000000000000000000000000000000000000000000000024                                      
380565A      L563A3         P0000081597000005827800000000000000000000000008159700000058670000019966000000845700000000000000000000000002236100000002080000000000000000000000000970150000020042000000000000000000000000000000000025437900068762780000003100000000000000000000000000000747                               
