380565       L563           TH201120111018ISERE                         VOREPPE                                                                                                                          0000048100000321000004810000000000000000                                                                                     
380565       L563A1         PVOREPPE                       77030092011151120117803110201115122011   000032070000320700003207         01615000000000000088900000000000        PAYS VOIRONNAIS               CC 00000481        00000321        00000481        00000000        00000000        0000000000000000000000000000000000000000
380565       L563A3         P001009625100016305080000000000000000000000100962510000897605000000000000000000000000000000                              0000026333000000443200000007810002559659000000022100002960570000000368                     243800984                                                                             
380565       L563A4         P01615000000000000000012442000000200800000000000000000000000000016100000000000000002169          VOREPPE                       ISERE                         780   31102011151220112011                                                                                                                   
380565 604378L563C1A0460065 77002408510230000001141000000000011M OU MME RIGGIO ROGER                                                                                                                                                                                  P                                                               
380565 604378L563P1A0460065 ALLEE DU PRE DE LA MADONE     00000045130000000000000000451300000045130000000000                                        000000729000000000000000401000000000000000000 00000000        000001130000000000000000000000001141000000000000000499400000000000000000000          0000                           
380565 604378L563P2A0460065                                     000004810000048100000000000000000000000000000000000000000000000000000000000000000000000000000000                               5650533690P00004994MA                                                               0001                                               
380565 604379L563C1A0461    77002408510230000001148000000000011M OU MME BOEHM PASCAL                                                                                                                                                                                  P                                                               
380565 604379L563P1A0461    ALLEE DU PRE DE LA MADONE     00000045390000000000000000453900000045390000000000                                        000000733000000000000000404000000000000000000 00000000        000001137000000000000000000000001148000000000000000534100000000000000000000          0100                           
380565 604379L563P2A0461                                        000004810000048100000000000003210000032100000000000000000000000000000000000000000000000000000000                               5650533678T00005341MA                                                               0001                                               
380565 604380L563C1A046111  77002408510230000001068000000000015M OU MME GERIN PASCAL                                                                                                                                                                                  P                                                               
380565 604380L563P1A046111  ALLEE DU PRE DE LA MADONE     00000059110000000000000000591100000059110000000000                                        000000955000000000000000525000000000000000000 00000000        000001480000000000000000000000001495000000427000000703400000000000000000000          0200PA                         
380565 604380L563P2A046111                                      000004810000048100000000000006420000064200000000000000000000000000000000000000000000000000000000                               5650534657X00007034MA                                                               0001                                               
380565 604381L563C1A046135  77002408510230000000935000000000013M OU MME LOCATELLI DIDIER                                                                                                                                                                              P                                                               
380565 604381L563P1A046135  ALLEE DU PRE DE LA MADONE     00000052380000000000000000523800000052380000000000                                        000000846000000000000000466000000000000000000 00000000        000001312000000000000000000000001325000000390000000571900000000000000000000          0000PA                         
380565 604381L563P2A046135                                      000004810000048100000000000000000000000000000000000000000000000000000000000000000000000000000000                               5650525239Z00005719MA                                                               0001                                               
380565 604382L563C1A046136  78002408510230000000000000000000000M OU MME GENEVE PAUL ANDRE ROGER                                                                                                                                                                       P                                                               
380565 604382L563P1A046136  ALLEE DU PRE DE LA MADONE     00000062470000000000000000624700000062470000000000                                        000000000000000000000000000000000000000000000 00000000        000000000000000000000000000000000000000000000000000672800000000000000000000          0000EX                         
380565 604382L563P2A046136                                      000004810000048100000000000000000000000000000000000000000000000000000000000000000000000000000000                               5650525418V00006728MA                                                               0001                                               
380565 604383L563C1A04662   77002408510230000000629000000000010M OU MME RECOURA CHRISTOPHE                                                                                                                                                                            P                                                               
380565 604383L563P1A04662   ALLEE DU PRE DE LA MADONE     00000039460000000000000000394600000039460000000000                                        000000637000000000000000351000000000000000000 00000000        000000988000000000000000000000000998000000369000000506900000000000000000000          0200PA                         
380565 604383L563P2A04662                                       000004810000048100000000000006420000064200000000000000000000000000000000000000000000000000000000                               5650533684D00005069MA                                                               0001                                               
380565 604384L563C1B0050000078002408510230000000082000000000001M OU MME TREVISSON JEAN FRANCOIS                                                                                                                                                                       E                                                               
380565 604384L563P1B00500000BOURG VIEUX                   00000003240000000000000000032400000003240000000000                                        000000052000000000000000029000000000000000000 00000000        000000081000000000000000000000000082000000000000000032400000000000000000000          0000                           
380565 604384L563P2B00500000                                    000000000000000000000000000000000000000000000000000000000000000000000000000000000000000000000000                               5650339489P00000324GA                                                               0001                                               
380565 604385L563C1B0050000078002408510230000000015000000000001M OU MME VILARROSA JACQUES                                                                                                                                                                             E                                                               
380565 604385L563P1B00500000BOURG VIEUX                   00000002770000000000000000027700000002770000000000                                        000000045000000000000000025000000000000000000 00000000        000000070000000000000000000000000071000000056000000027700000000000000000000          0000PA                         
380565 604385L563P2B00500000                                    000000000000000000000000000000000000000000000000000000000000000000000000000000000000000000000000                               5650339677H00000277GP                                                               0001                                               
380565 604386L563C1B0050000078002408510230000000000000000000000M OU MME BERTHELOT ALAIN JEAN                                                                                                                                                                          E                                                               
380565 604386L563P1B00500000BOURG VIEUX                   00000003240000000000000000032400000003240000000000                                        000000000000000000000000000000000000000000000 00000000        000000000000000000000000000000000000000000000000000032400000000000000000000          0000EX                         
380565 604386L563P2B00500000                                    000000000000000000000000000000000000000000000000000000000000000000000000000000000000000000000000                               5650339539L00000324GA                                                               0001                                               
380565 604387L563C1B0050000078002408510230000000117000000000001M OU MME SYAD MOHAMED                                                                                                                                                                                  E                                                               
380565 604387L563P1B00500000BOURG VIEUX                   00000004650000000000000000046500000004650000000000                                        000000075000000000000000041000000000000000000 00000000        000000116000000000000000000000000117000000000000000046500000000000000000000          0000                           
380565 604387L563P2B00500000                                    000000000000000000000000000000000000000000000000000000000000000000000000000000000000000000000000                               5650435144C00000465GA                                                               0001                                               
380565 604388L563C1B0050000078002408510230000000071000000000001M OU MME FERRY PATRICK                                                                                                                                                                                 E                                                               
380565 604388L563P1B00500000BOURG VIEUX                   00000002770000000000000000027700000002770000000000                                        000000045000000000000000025000000000000000000 00000000        000000070000000000000000000000000071000000000000000027700000000000000000000          0000                           
380565 604388L563P2B00500000                                    000000000000000000000000000000000000000000000000000000000000000000000000000000000000000000000000                               5650339673A00000277GP                                                               0001                                               
380565 604389L563C1B0050000078002408510230000000082000000000001M OU MME HEDDAD ABDELAAZIZ                                                                                                                                                                             E                                                               
380565 604389L563P1B00500000BOURG VIEUX                   00000003240000000000000000032400000003240000000000                                        000000052000000000000000029000000000000000000 00000000        000000081000000000000000000000000082000000000000000032400000000000000000000          0000                           
380565 604389L563P2B00500000                                    000000000000000000000000000000000000000000000000000000000000000000000000000000000000000000000000                               5650339507P00000324GA                                                               0001                                               
380565 604390L563C1B0050000078002408510230000000071000000000001M OU MME BELOT MARCEL                                                                                                                                                                                  E                                                               
380565 604390L563P1B00500000BOURG VIEUX                   00000002770000000000000000027700000002770000000000                                        000000045000000000000000025000000000000000000 00000000        000000070000000000000000000000000071000000000000000027700000000000000000000          0000                           
380565 604390L563P2B00500000                                    000000000000000000000000000000000000000000000000000000000000000000000000000000000000000000000000                               5650339678D00000277GP                                                               0001                                               
380565 604391L563C1B0050000078002408510230000000071000000000001M        VILLARD PAUL              ET MME ROZAND MARIE CHRISTINE                                                                                                                                       E                                                               
380565 604391L563P1B00500000BOURG VIEUX                   00000002770000000000000000027700000002770000000000                                        000000045000000000000000025000000000000000000 00000000        000000070000000000000000000000000071000000000000000027700000000000000000000          0000                           
380565 604391L563P2B00500000                                    000000000000000000000000000000000000000000000000000000000000000000000000000000000000000000000000                               5650339687B00000277GP                                                               0001                                               
380565 604392L563C1B0050000078002408510230000000071000000000001MME      PEREZ ELISABETH                                                                                                                                                                               E                                                               
380565 604392L563P1B00500000BOURG VIEUX                   00000002770000000000000000027700000002770000000000                                        000000045000000000000000025000000000000000000 00000000        000000070000000000000000000000000071000000000000000027700000000000000000000          0000                           
380565 604392L563P2B00500000                                    000000000000000000000000000000000000000000000000000000000000000000000000000000000000000000000000                               5650339652T00000277GP                                                               0001                                               
380565 604393L563C1B0050000078002408510230000000000000000000000M OU MME HENRIQUES FRAQUEIRO       DOMINGOS                                                                                                                                                            E                                                               
380565 604393L563P1B00500000BOURG VIEUX                   00000003240000000000000000032400000003240000000000                                        000000000000000000000000000000000000000000000 00000000        000000000000000000000000000000000000000000000000000032400000000000000000000          0000EX                         
380565 604393L563P2B00500000                                    000000000000000000000000000000000000000000000000000000000000000000000000000000000000000000000000                               5650339527B00000324GA                                                               0001                                               
380565 604394L563C1B0050000078002408510230000000000000000000000MME      CATTANEO PAULETTE         GABRIELLE                                                                                                                                                           E                                                               
380565 604394L563P1B00500000BOURG VIEUX                   00000002770000000000000000027700000002770000000000                                        000000000000000000000000000000000000000000000 00000000        000000000000000000000000000000000000000000000000000027700000000000000000000          0000EX                         
380565 604394L563P2B00500000                                    000000000000000000000000000000000000000000000000000000000000000000000000000000000000000000000000                               5650339698R00000277GP                                                               0001                                               
380565 604395L563C1B0050000078002408510230000000071000000000001M OU MME LEPRETRE MICHEL                                                                                                                                                                               E                                                               
380565 604395L563P1B00500000BOURG VIEUX                   00000002770000000000000000027700000002770000000000                                        000000045000000000000000025000000000000000000 00000000        000000070000000000000000000000000071000000000000000027700000000000000000000          0000                           
380565 604395L563P2B00500000                                    000000000000000000000000000000000000000000000000000000000000000000000000000000000000000000000000                               5650339683U00000277GP                                                               0001                                               
380565 604396L563C1B0050000078002408510230000000082000000000001MME      NORONHA ANNA DE JESUS                                                                                                                                                                         E                                                               
380565 604396L563P1B00500000BOURG VIEUX                   00000003240000000000000000032400000003240000000000                                        000000052000000000000000029000000000000000000 00000000        000000081000000000000000000000000082000000000000000032400000000000000000000          0000                           
380565 604396L563P2B00500000                                    000000000000000000000000000000000000000000000000000000000000000000000000000000000000000000000000                               5650339521C00000324GA                                                               0001                                               
380565 604397L563C1B0050000078002408510230000000071000000000001MME      DETROYAT ANNIE ISABELLE                                                                                                                                                                       E                                                               
380565 604397L563P1B00500000BOURG VIEUX                   00000002770000000000000000027700000002770000000000                                        000000045000000000000000025000000000000000000 00000000        000000070000000000000000000000000071000000000000000027700000000000000000000          0000                           
380565 604397L563P2B00500000                                    000000000000000000000000000000000000000000000000000000000000000000000000000000000000000000000000                               5650339675S00000277GP                                                               0001                                               
380565 604398L563C1B0050000078002408510230000000056000000000001M OU MME MANSOUL NORDINE                                                                                                                                                                               E                                                               
380565 604398L563P1B00500000BOURG VIEUX                   00000003240000000000000000032400000003240000000000                                        000000052000000000000000029000000000000000000 00000000        000000081000000000000000000000000082000000026000000032400000000000000000000          0000PA                         
380565 604398L563P2B00500000                                    000000000000000000000000000000000000000000000000000000000000000000000000000000000000000000000000                               5650339223B00000324GA                                                               0001                                               
380565 604399L563C1B0050000078002408510230000000117000000000001MLE      GABORIT DOMINIQUE                                                                                                                                                                             E                                                               
380565 604399L563P1B00500000BOURG VIEUX                   00000004650000000000000000046500000004650000000000                                        000000075000000000000000041000000000000000000 00000000        000000116000000000000000000000000117000000000000000046500000000000000000000          0000                           
380565 604399L563P2B00500000                                    000000000000000000000000000000000000000000000000000000000000000000000000000000000000000000000000                               5650435149F00000465GA                                                               0001                                               
380565 604400L563C1B0050000078002408510230000000082000000000001MME      TREVISSON MICHELE                                                                                                                                                                             E                                                               
380565 604400L563P1B00500000BOURG VIEUX                   00000003240000000000000000032400000003240000000000                                        000000052000000000000000029000000000000000000 00000000        000000081000000000000000000000000082000000000000000032400000000000000000000          0000                           
380565 604400L563P2B00500000                                    000000000000000000000000000000000000000000000000000000000000000000000000000000000000000000000000                               5650339510N00000324GA                                                               0001                                               
380565 604401L563C1B0050000078002408510230000000082000000000001M OU MME MEDOUKALI SAADI                                                                                                                                                                               E                                                               
380565 604401L563P1B00500000BOURG VIEUX                   00000003240000000000000000032400000003240000000000                                        000000052000000000000000029000000000000000000 00000000        000000081000000000000000000000000082000000000000000032400000000000000000000          0000                           
380565 604401L563P2B00500000                                    000000000000000000000000000000000000000000000000000000000000000000000000000000000000000000000000                               5650339529T00000324GA                                                               0001                                               
380565 604402L563C1B0050000078002408510230000000000070000000001M        DUTERTRE RICHARD EMILIEN                                                                                                                                                                      E                                                               
380565 604402L563P1B00500000BOURG VIEUX                   00000003240000000000000000032400000003240000000000                                        000000052000000000000000029000000000000000000 00000000        000000081000000000000000000000000082000000075000000032400000000000000000000          0000PA                         
380565 604402L563P2B00500000                                    000000000000000000000000000000000000000000000000000000000000000000000000000000000000000000000000                               5650339502L00000324GA                                                               0001                                               
380565 604403L563C1B0050000078002408510230000000000000000000001MLE      ALVES LUCIE                                                                                                                                                                                   E                                                               
380565 604403L563P1B00500000BOURG VIEUX                   00000002770000000000000000027700000002770000000000                                        000000045000000000000000025000000000000000000 00000000        000000070000000000000000000000000071000000071000000027700000000000000000000          0000PA                         
380565 604403L563P2B00500000                                    000000000000000000000000000000000000000000000000000000000000000000000000000000000000000000000000                               5650339665Y00000277GP                                                               0001                                               
380565 604404L563C1B0050000078002408510230000000082000000000001M OU MME HADJADJI LEMTAICHE                                                                                                                                                                            E                                                               
380565 604404L563P1B00500000BOURG VIEUX                   00000003240000000000000000032400000003240000000000                                        000000052000000000000000029000000000000000000 00000000        000000081000000000000000000000000082000000000000000032400000000000000000000          0000                           
380565 604404L563P2B00500000                                    000000000000000000000000000000000000000000000000000000000000000000000000000000000000000000000000                               5650339537V00000324GA                                                               0001                                               
380565 604405L563C1B0050000078002408510230000000071000000000001M OU MME GONCALVES MARIO                                                                                                                                                                               E                                                               
380565 604405L563P1B00500000BOURG VIEUX                   00000002770000000000000000027700000002770000000000                                        000000045000000000000000025000000000000000000 00000000        000000070000000000000000000000000071000000000000000027700000000000000000000          0000                           
380565 604405L563P2B00500000                                    000000000000000000000000000000000000000000000000000000000000000000000000000000000000000000000000                               5650339667P00000277GP                                                               0001                                               
380565 604406L563C1B0050000078002408510230000000117000000000001M OU MME LOMBARDO SEBASTIANO                                                                                                                                                                           E                                                               
380565 604406L563P1B00500000BOURG VIEUX                   00000004650000000000000000046500000004650000000000                                        000000075000000000000000041000000000000000000 00000000        000000116000000000000000000000000117000000000000000046500000000000000000000          0000                           
380565 604406L563P2B00500000                                    000000000000000000000000000000000000000000000000000000000000000000000000000000000000000000000000                               5650435148K00000465GA                                                               0001                                               
380565 604407L563C1B0050000078002408510230000000000070000000001M OU MME YOCCOZ JEAN PIERRE                                                                                                                                                                            E                                                               
380565 604407L563P1B00500000BOURG VIEUX                   00000003240000000000000000032400000003240000000000                                        000000052000000000000000029000000000000000000 00000000        000000081000000000000000000000000082000000075000000032400000000000000000000          0000PA                         
380565 604407L563P2B00500000                                    000000000000000000000000000000000000000000000000000000000000000000000000000000000000000000000000                               5650339485G00000324GA                                                               0001                                               
380565 604408L563C1B0050000078002408510230000000046000000000001M OU MME GONCALVES DIAMANTINO                                                                                                                                                                          E                                                               
380565 604408L563P1B00500000BOURG VIEUX                   00000002770000000000000000027700000002770000000000                                        000000045000000000000000025000000000000000000 00000000        000000070000000000000000000000000071000000025000000027700000000000000000000          0000PA                         
380565 604408L563P2B00500000                                    000000000000000000000000000000000000000000000000000000000000000000000000000000000000000000000000                               5650339662L00000277GP                                                               0001                                               
380565 604409L563C1B0050000078002408510230000000000000000000000M OU MME ROKICKI JEAN                                                                                                                                                                                  E                                                               
380565 604409L563P1B00500000BOURG VIEUX                   00000004650000000000000000046500000004650000000000                                        000000000000000000000000000000000000000000000 00000000        000000000000000000000000000000000000000000000000000046500000000000000000000          0000EX                         
380565 604409L563P2B00500000                                    000000000000000000000000000000000000000000000000000000000000000000000000000000000000000000000000                               5650435147P00000465GA                                                               0001                                               
380565 604410L563C1B0050000078002408510230000000000060000000001M OU MME DALBEPIERRE DIDIER                                                                                                                                                                            E                                                               
380565 604410L563P1B00500000BOURG VIEUX                   00000002770000000000000000027700000002770000000000                                        000000045000000000000000025000000000000000000 00000000        000000070000000000000000000000000071000000065000000027700000000000000000000          0000PA                         
380565 604410L563P2B00500000                                    000000000000000000000000000000000000000000000000000000000000000000000000000000000000000000000000                               5650339655E00000277GP                                                               0001                                               
380565 604411L563C1B0050000078002408510230000000012000000000001M OU MME BELAZ HAMLAOUI                                                                                                                                                                                E                                                               
380565 604411L563P1B00500000BOURG VIEUX                   00000002770000000000000000027700000002770000000000                                        000000045000000000000000025000000000000000000 00000000        000000070000000000000000000000000071000000059000000027700000000000000000000          0000PA                         
380565 604411L563P2B00500000                                    000000000000000000000000000000000000000000000000000000000000000000000000000000000000000000000000                               5650339682Y00000277GP                                                               0001                                               
380565 604412L563C1B0050000078002408510230000000000000000000000M OU MME SOLTANI ABDELAZIZ                                                                                                                                                                             E                                                               
380565 604412L563P1B00500000BOURG VIEUX                   00000003240000000000000000032400000003240000000000                                        000000000000000000000000000000000000000000000 00000000        000000000000000000000000000000000000000000000000000032400000000000000000000          0000EX                         
380565 604412L563P2B00500000                                    000000000000000000000000000000000000000000000000000000000000000000000000000000000000000000000000                               5650339513A00000324GA                                                               0001                                               
380565 604413L563C1B0050000078002408510230000000071000000000001M OU MME CARREZ JEAN MARC                                                                                                                                                                              E                                                               
380565 604413L563P1B00500000BOURG VIEUX                   00000002770000000000000000027700000002770000000000                                        000000045000000000000000025000000000000000000 00000000        000000070000000000000000000000000071000000000000000027700000000000000000000          0000                           
380565 604413L563P2B00500000                                    000000000000000000000000000000000000000000000000000000000000000000000000000000000000000000000000                               5650339676M00000277GP                                                               0001                                               
380565 604414L563C1B0050000078002408510230000000082000000000001M OU MME ZAOUALI ANOUAR                                                                                                                                                                                E                                                               
380565 604414L563P1B00500000BOURG VIEUX                   00000003240000000000000000032400000003240000000000                                        000000052000000000000000029000000000000000000 00000000        000000081000000000000000000000000082000000000000000032400000000000000000000          0000                           
380565 604414L563P2B00500000                                    000000000000000000000000000000000000000000000000000000000000000000000000000000000000000000000000                               5650339499H00000324GA                                                               0001                                               
380565 604415L563C1B0050000078002408510230000000000000000000000M OU MME ZOUAOUI BRAHIM                                                                                                                                                                                E                                                               
380565 604415L563P1B00500000BOURG VIEUX                   00000002770000000000000000027700000002770000000000                                        000000000000000000000000000000000000000000000 00000000        000000000000000000000000000000000000000000000000000027700000000000000000000          0000EX                         
380565 604415L563P2B00500000                                    000000000000000000000000000000000000000000000000000000000000000000000000000000000000000000000000                               5650339679Z00000277GP                                                               0001                                               
380565 604416L563C1B0050000078002408510230000000082000000000001MME      REVEL COLETTE ANDREE                                                                                                                                                                          E                                                               
380565 604416L563P1B00500000BOURG VIEUX                   00000003240000000000000000032400000003240000000000                                        000000052000000000000000029000000000000000000 00000000        000000081000000000000000000000000082000000000000000032400000000000000000000          0000                           
380565 604416L563P2B00500000                                    000000000000000000000000000000000000000000000000000000000000000000000000000000000000000000000000                               5650339474T00000324GA                                                               0001                                               
380565 604417L563C1B0050000078002408510230000000082000000000001M OU MME HARANCZYK BOGDAN                                                                                                                                                                              E                                                               
380565 604417L563P1B00500000BOURG VIEUX                   00000003240000000000000000032400000003240000000000                                        000000052000000000000000029000000000000000000 00000000        000000081000000000000000000000000082000000000000000032400000000000000000000          0000                           
380565 604417L563P2B00500000                                    000000000000000000000000000000000000000000000000000000000000000000000000000000000000000000000000                               5650339536Z00000324GA                                                               0001                                               
380565 604418L563C1B0050000078002408510230000000000070000000001MME      GUILHEN LEONE ANGELE                                                                                                                                                                          E                                                               
380565 604418L563P1B00500000BOURG VIEUX                   00000003240000000000000000032400000003240000000000                                        000000052000000000000000029000000000000000000 00000000        000000081000000000000000000000000082000000075000000032400000000000000000000          0000PA                         
380565 604418L563P2B00500000                                    000000000000000000000000000000000000000000000000000000000000000000000000000000000000000000000000                               5650339473X00000324GA                                                               0001                                               
380565 604419L563C1B0050000078002408510230000000071000000000001M OU MME ZOUAOUI DERRADJI                                                                                                                                                                              E                                                               
380565 604419L563P1B00500000BOURG VIEUX                   00000002770000000000000000027700000002770000000000                                        000000045000000000000000025000000000000000000 00000000        000000070000000000000000000000000071000000000000000027700000000000000000000          0000                           
380565 604419L563P2B00500000                                    000000000000000000000000000000000000000000000000000000000000000000000000000000000000000000000000                               5650339663G00000277GP                                                               0001                                               
380565 604420L563C1B0050000078002408510230000000000070000000001M OU MME LOMBARD JOSEPH                                                                                                                                                                                E                                                               
380565 604420L563P1B00500000BOURG VIEUX                   00000003240000000000000000032400000003240000000000                                        000000052000000000000000029000000000000000000 00000000        000000081000000000000000000000000082000000075000000032400000000000000000000          0000PA                         
380565 604420L563P2B00500000                                    000000000000000000000000000000000000000000000000000000000000000000000000000000000000000000000000                               5650339515S00000324GA                                                               0001                                               
380565 604421L563C1B0050000078002408510230000000071000000000001M OU MME PICTON JEAN PAUL                                                                                                                                                                              E                                                               
380565 604421L563P1B00500000BOURG VIEUX                   00000002770000000000000000027700000002770000000000                                        000000045000000000000000025000000000000000000 00000000        000000070000000000000000000000000071000000000000000027700000000000000000000          0000                           
380565 604421L563P2B00500000                                    000000000000000000000000000000000000000000000000000000000000000000000000000000000000000000000000                               5650339671J00000277GP                                                               0001                                               
380565 604422L563C1B0050000078002408510230000000000060000000001M        VEZY LIONEL                                                                                                                                                                                   E                                                               
380565 604422L563P1B00500000BOURG VIEUX                   00000002770000000000000000027700000002770000000000                                        000000045000000000000000025000000000000000000 00000000        000000070000000000000000000000000071000000065000000027700000000000000000000          0000PA                         
380565 604422L563P2B00500000                                    000000000000000000000000000000000000000000000000000000000000000000000000000000000000000000000000                               5650339656A00000277GP                                                               0001                                               
380565 604423L563C1B0050000078002408510230000000071000000000001M OU MME CHAIB ELAID                                                                                                                                                                                   E                                                               
380565 604423L563P1B00500000BOURG VIEUX                   00000002770000000000000000027700000002770000000000                                        000000045000000000000000025000000000000000000 00000000        000000070000000000000000000000000071000000000000000027700000000000000000000          0000                           
380565 604423L563P2B00500000                                    000000000000000000000000000000000000000000000000000000000000000000000000000000000000000000000000                               5650339696Z00000277GP                                                               0001                                               
380565 604424L563C1B0050000078002408510230000000082000000000001M OU MME TISSOLONG GUY                                                                                                                                                                                 E                                                               
380565 604424L563P1B00500000BOURG VIEUX                   00000003240000000000000000032400000003240000000000                                        000000052000000000000000029000000000000000000 00000000        000000081000000000000000000000000082000000000000000032400000000000000000000          0000                           
380565 604424L563P2B00500000                                    000000000000000000000000000000000000000000000000000000000000000000000000000000000000000000000000                               5650339533M00000324GA                                                               0001                                               
380565 604425L563C1B0050000078002408510230000000082000000000001M OU MME ICHBA ABDERRAZAK                                                                                                                                                                              E                                                               
380565 604425L563P1B00500000BOURG VIEUX                   00000003240000000000000000032400000003240000000000                                        000000052000000000000000029000000000000000000 00000000        000000081000000000000000000000000082000000000000000032400000000000000000000          0000                           
380565 604425L563P2B00500000                                    000000000000000000000000000000000000000000000000000000000000000000000000000000000000000000000000                               5650339531W00000324GA                                                               0001                                               
380565 604426L563C1B0050000078002408510230000000000000000000000M OU MME HADJADJI AHMED                                                                                                                                                                                E                                                               
380565 604426L563P1B00500000BOURG VIEUX                   00000003240000000000000000032400000003240000000000                                        000000000000000000000000000000000000000000000 00000000        000000000000000000000000000000000000000000000000000032400000000000000000000          0000EX                         
380565 604426L563P2B00500000                                    000000000000000000000000000000000000000000000000000000000000000000000000000000000000000000000000                               5650339231D00000324GA                                                               0001                                               
380565 604427L563C1B0050000078002408510230000000000070000000001M        VILAYPHIOU FRANCK                                                                                                                                                                             E                                                               
380565 604427L563P1B00500000BOURG VIEUX                   00000003240000000000000000032400000003240000000000                                        000000052000000000000000029000000000000000000 00000000        000000081000000000000000000000000082000000075000000032400000000000000000000          0000PA                         
380565 604427L563P2B00500000                                    000000000000000000000000000000000000000000000000000000000000000000000000000000000000000000000000                               5650339493J00000324GA                                                               0001                                               
380565 604428L563C1B0050000078002408510230000000082000000000001M OU MME HAMLAOUI SAID                                                                                                                                                                                 E                                                               
380565 604428L563P1B00500000BOURG VIEUX                   00000003240000000000000000032400000003240000000000                                        000000052000000000000000029000000000000000000 00000000        000000081000000000000000000000000082000000000000000032400000000000000000000          0000                           
380565 604428L563P2B00500000                                    000000000000000000000000000000000000000000000000000000000000000000000000000000000000000000000000                               5650339520G00000324GA                                                               0001                                               
380565 604429L563C1B0050000078002408510230000000082000000000001M        PITOT GABRIEL                                                                                                                                                                                 E                                                               
380565 604429L563P1B00500000BOURG VIEUX                   00000003240000000000000000032400000003240000000000                                        000000052000000000000000029000000000000000000 00000000        000000081000000000000000000000000082000000000000000032400000000000000000000          0000                           
380565 604429L563P2B00500000                                    000000000000000000000000000000000000000000000000000000000000000000000000000000000000000000000000                               5650339497S00000324GA                                                               0001                                               
380565 604430L563C1B0050000078002408510230000000082000000000001M        BOROJEVIC RADOVAN                                                                                                                                                                             E                                                               
380565 604430L563P1B00500000BOURG VIEUX                   00000003240000000000000000032400000003240000000000                                        000000052000000000000000029000000000000000000 00000000        000000081000000000000000000000000082000000000000000032400000000000000000000          0000                           
380565 604430L563P2B00500000                                    000000000000000000000000000000000000000000000000000000000000000000000000000000000000000000000000                               5650339506U00000324GA                                                               0001                                               
380565 604431L563C1B0050000078002408510230000000066000000000001M OU MME KATGELY JEAN-YVES                                                                                                                                                                             E                                                               
380565 604431L563P1B00500000BOURG VIEUX                   00000003240000000000000000032400000003240000000000                                        000000052000000000000000029000000000000000000 00000000        000000081000000000000000000000000082000000016000000032400000000000000000000          0000PA                         
380565 604431L563P2B00500000                                    000000000000000000000000000000000000000000000000000000000000000000000000000000000000000000000000                               5650339501R00000324GA                                                               0001                                               
380565 604432L563C1B0050000078002408510230000000000070000000001M OU MME DI PASQUALE ANDRE                                                                                                                                                                             E                                                               
380565 604432L563P1B00500000BOURG VIEUX                   00000003240000000000000000032400000003240000000000                                        000000052000000000000000029000000000000000000 00000000        000000081000000000000000000000000082000000075000000032400000000000000000000          0000PA                         
380565 604432L563P2B00500000                                    000000000000000000000000000000000000000000000000000000000000000000000000000000000000000000000000                               5650339530A00000324GA                                                               0001                                               
380565 604433L563C1B0050000078002408510230000000000060000000001M OU MME LAMARQUE SIMON                                                                                                                                                                                E                                                               
380565 604433L563P1B00500000BOURG VIEUX                   00000002770000000000000000027700000002770000000000                                        000000045000000000000000025000000000000000000 00000000        000000070000000000000000000000000071000000065000000027700000000000000000000          0000PA                         
380565 604433L563P2B00500000                                    000000000000000000000000000000000000000000000000000000000000000000000000000000000000000000000000                               5650339659M00000277GP                                                               0001                                               
380565 604434L563C1B0050000078002408510230000000082000000000001MME      GAUTIEZ ARLETTE                                                                                                                                                                               E                                                               
380565 604434L563P1B00500000BOURG VIEUX                   00000003240000000000000000032400000003240000000000                                        000000052000000000000000029000000000000000000 00000000        000000081000000000000000000000000082000000000000000032400000000000000000000          0000                           
380565 604434L563P2B00500000                                    000000000000000000000000000000000000000000000000000000000000000000000000000000000000000000000000                               5650339486C00000324GA                                                               0001                                               
380565 604435L563C1B0050000078002408510230000000071000000000001MME      BESSON GHISLAINE                                                                                                                                                                              E                                                               
380565 604435L563P1B00500000BOURG VIEUX                   00000002770000000000000000027700000002770000000000                                        000000045000000000000000025000000000000000000 00000000        000000070000000000000000000000000071000000000000000027700000000000000000000          0000                           
380565 604435L563P2B00500000                                    000000000000000000000000000000000000000000000000000000000000000000000000000000000000000000000000                               5650339686F00000277GP                                                               0001                                               
380565 604436L563C1B0050000078002408510230000000000000000000000M OU MME GIOVALLE RENE                                                                                                                                                                                 E                                                               
380565 604436L563P1B00500000BOURG VIEUX                   00000002770000000000000000027700000002770000000000                                        000000000000000000000000000000000000000000000 00000000        000000000000000000000000000000000000000000000000000027700000000000000000000          0000EX                         
380565 604436L563P2B00500000                                    000000000000000000000000000000000000000000000000000000000000000000000000000000000000000000000000                               5650339685K00000277GP                                                               0001                                               
380565 604437L563C1B0050000078002408510230000000000000000000000M OU MME BENNOURINE MOHAMED                                                                                                                                                                            E                                                               
380565 604437L563P1B00500000BOURG VIEUX                   00000003240000000000000000032400000003240000000000                                        000000000000000000000000000000000000000000000 00000000        000000000000000000000000000000000000000000000000000032400000000000000000000          0000EX                         
380565 604437L563P2B00500000                                    000000000000000000000000000000000000000000000000000000000000000000000000000000000000000000000000                               5650339532S00000324GA                                                               0001                                               
380565 604438L563C1B0050000078002408510230000000071000000000001M OU MME NADOUI MOHAMED                                                                                                                                                                                E                                                               
380565 604438L563P1B00500000BOURG VIEUX                   00000002770000000000000000027700000002770000000000                                        000000045000000000000000025000000000000000000 00000000        000000070000000000000000000000000071000000000000000027700000000000000000000          0000                           
380565 604438L563P2B00500000                                    000000000000000000000000000000000000000000000000000000000000000000000000000000000000000000000000                               5650339689T00000277GP                                                               0001                                               
380565 604439L563C1B0050000078002408510230000000000060000000001M OU MME ZOUAOUI MOHAMED                                                                                                                                                                               E                                                               
380565 604439L563P1B00500000BOURG VIEUX                   00000002770000000000000000027700000002770000000000                                        000000045000000000000000025000000000000000000 00000000        000000070000000000000000000000000071000000065000000027700000000000000000000          0000PA                         
380565 604439L563P2B00500000                                    000000000000000000000000000000000000000000000000000000000000000000000000000000000000000000000000                               5650339691W00000277GP                                                               0001                                               
380565 604440L563C1B0050000078002408510230000000082000000000001MME      MERMET-PEROZ ELISABETH    MARIE                                                                                                                                                               E                                                               
380565 604440L563P1B00500000BOURG VIEUX                   00000003240000000000000000032400000003240000000000                                        000000052000000000000000029000000000000000000 00000000        000000081000000000000000000000000082000000000000000032400000000000000000000          0000                           
380565 604440L563P2B00500000                                    000000000000000000000000000000000000000000000000000000000000000000000000000000000000000000000000                               5650339500V00000324GA                                                               0001                                               
380565 604441L563C1B0050000078002408510230000000082000000000001MLE      LAMOTTE PASCALE                                                                                                                                                                               E                                                               
380565 604441L563P1B00500000BOURG VIEUX                   00000005540000000000000000055400000005540000000000                                        000000089000000000000000049000000000000000000 00000000        000000138000000000000000000000000139000000057000000055400000000000000000000          0000PA                         
380565 604441L563P2B00500000                                    000000000000000000000000000000000000000000000000000000000000000000000000000000000000000000000000                               5650339688X00000277GP5650339692S00000277GP                                          0002                                               
380565 604442L563C1B0050000078002408510230000000000000000000000M        FANTINEL ALAIN                                                                                                                                                                                E                                                               
380565 604442L563P1B00500000BOURG VIEUX                   00000002770000000000000000027700000002770000000000                                        000000000000000000000000000000000000000000000 00000000        000000000000000000000000000000000000000000000000000027700000000000000000000          0000EX                         
380565 604442L563P2B00500000                                    000000000000000000000000000000000000000000000000000000000000000000000000000000000000000000000000                               5650339666U00000277GP                                                               0001                                               
380565 604443L563C1B0050000078002408510230000000071000000000001M        BOUAZIZ NASSER                                                                                                                                                                                E                                                               
380565 604443L563P1B00500000BOURG VIEUX                   00000002770000000000000000027700000002770000000000                                        000000045000000000000000025000000000000000000 00000000        000000070000000000000000000000000071000000000000000027700000000000000000000          0000                           
380565 604443L563P2B00500000                                    000000000000000000000000000000000000000000000000000000000000000000000000000000000000000000000000                               5650339680G00000277GP                                                               0001                                               
380565 604444L563C1B0050000078002408510230000000082000000000001M        ZOUAOUI TOUNSI                                                                                                                                                                                E                                                               
380565 604444L563P1B00500000BOURG VIEUX                   00000003240000000000000000032400000003240000000000                                        000000052000000000000000029000000000000000000 00000000        000000081000000000000000000000000082000000000000000032400000000000000000000          0000                           
380565 604444L563P2B00500000                                    000000000000000000000000000000000000000000000000000000000000000000000000000000000000000000000000                               5650339517H00000324GA                                                               0001                                               
380565 604445L563C1B0050000078002408510230000000000000000000000MME      BOUHOUT ZOHRA                                                                                                                                                                                 E                                                               
380565 604445L563P1B00500000BOURG VIEUX                   00000003240000000000000000032400000003240000000000                                        000000000000000000000000000000000000000000000 00000000        000000000000000000000000000000000000000000000000000032400000000000000000000          0000EX                         
380565 604445L563P2B00500000                                    000000000000000000000000000000000000000000000000000000000000000000000000000000000000000000000000                               5650339512E00000324GA                                                               0001                                               
380565 604446L563C1B0050000078002408510230000000000070000000001M OU MME BENMESTOURA DJAMEL                                                                                                                                                                            E                                                               
380565 604446L563P1B00500000BOURG VIEUX                   00000003240000000000000000032400000003240000000000                                        000000052000000000000000029000000000000000000 00000000        000000081000000000000000000000000082000000075000000032400000000000000000000          0000PA                         
380565 604446L563P2B00500000                                    000000000000000000000000000000000000000000000000000000000000000000000000000000000000000000000000                               5650339504C00000324GA                                                               0001                                               
380565 604447L563C1B0050000078002408510230000000000000000000000M OU MME WIKARYJAK EDMOND                                                                                                                                                                              E                                                               
380565 604447L563P1B00500000BOURG VIEUX                   00000002770000000000000000027700000002770000000000                                        000000000000000000000000000000000000000000000 00000000        000000000000000000000000000000000000000000000000000027700000000000000000000          0000EX                         
380565 604447L563P2B00500000                                    000000000000000000000000000000000000000000000000000000000000000000000000000000000000000000000000                               5650339653N00000277GP                                                               0001                                               
380565 604448L563C1B0050000078002408510230000000082000000000001MME      POPARD RENEE                                                                                                                                                                                  E                                                               
380565 604448L563P1B00500000BOURG VIEUX                   00000003240000000000000000032400000003240000000000                                        000000052000000000000000029000000000000000000 00000000        000000081000000000000000000000000082000000000000000032400000000000000000000          0000                           
380565 604448L563P2B00500000                                    000000000000000000000000000000000000000000000000000000000000000000000000000000000000000000000000                               5650339226N00000324GA                                                               0001                                               
380565 604449L563C1B0050000078002408510230000000082000000000001MME      VITEL DANIELE                                                                                                                                                                                 E                                                               
380565 604449L563P1B00500000BOURG VIEUX                   00000003240000000000000000032400000003240000000000                                        000000052000000000000000029000000000000000000 00000000        000000081000000000000000000000000082000000000000000032400000000000000000000          0000                           
380565 604449L563P2B00500000                                    000000000000000000000000000000000000000000000000000000000000000000000000000000000000000000000000                               5650339508K00000324GA                                                               0001                                               
380565 604450L563C1B0050000078002408510230000000071000000000001M OU MME BOUAZIZ BACHIR                                                                                                                                                                                E                                                               
380565 604450L563P1B00500000BOURG VIEUX                   00000002770000000000000000027700000002770000000000                                        000000045000000000000000025000000000000000000 00000000        000000070000000000000000000000000071000000000000000027700000000000000000000          0000                           
380565 604450L563P2B00500000                                    000000000000000000000000000000000000000000000000000000000000000000000000000000000000000000000000                               5650339693M00000277GP                                                               0001                                               
380565 604451L563C1B0050000078002408510230000000021000000000002M        RAVIER JACQUES                                                                                                                                                                                E                                                               
380565 604451L563P1B00500000BOURG VIEUX                   00000009720000000000000000097200000009720000000000                                        000000157000000000000000086000000000000000000 00000000        000000243000000000000000000000000245000000224000000097200000000000000000000          0000PA                         
380565 604451L563P2B00500000                                    000000000000000000000000000000000000000000000000000000000000000000000000000000000000000000000000                               5650339479W00000324GA5650339482V00000324GA5650339490X00000324GA                     0003                                               
380565 604452L563C1B0050000078002408510230000000028000000000001M OU MME PUERTAS VINCENT                                                                                                                                                                               E                                                               
380565 604452L563P1B00500000BOURG VIEUX                   00000003240000000000000000032400000003240000000000                                        000000052000000000000000029000000000000000000 00000000        000000081000000000000000000000000082000000054000000032400000000000000000000          0000PA                         
380565 604452L563P2B00500000                                    000000000000000000000000000000000000000000000000000000000000000000000000000000000000000000000000                               5650339472B00000324GA                                                               0001                                               
380565 604453L563C1B0050000078002408510230000000082000000000001M        PLANCHE LUCIEN                                                                                                                                                                                E                                                               
380565 604453L563P1B00500000BOURG VIEUX                   00000003240000000000000000032400000003240000000000                                        000000052000000000000000029000000000000000000 00000000        000000081000000000000000000000000082000000000000000032400000000000000000000          0000                           
380565 604453L563P2B00500000                                    000000000000000000000000000000000000000000000000000000000000000000000000000000000000000000000000                               5650339230H00000324GA                                                               0001                                               
380565 604454L563C1B0050000078002408510230000000082000000000001M        BORLA GEORGES                                                                                                                                                                                 E                                                               
380565 604454L563P1B00500000BOURG VIEUX                   00000003240000000000000000032400000003240000000000                                        000000052000000000000000029000000000000000000 00000000        000000081000000000000000000000000082000000000000000032400000000000000000000          0000                           
380565 604454L563P2B00500000                                    000000000000000000000000000000000000000000000000000000000000000000000000000000000000000000000000                               5650339503G00000324GA                                                               0001                                               
380565 604455L563C1B0050000078002408510230000000000000000000000M OU MME GUILLAUMIN GERARD                                                                                                                                                                             E                                                               
380565 604455L563P1B00500000BOURG VIEUX                   00000003240000000000000000032400000003240000000000                                        000000000000000000000000000000000000000000000 00000000        000000000000000000000000000000000000000000000000000032400000000000000000000          0000EX                         
380565 604455L563P2B00500000                                    000000000000000000000000000000000000000000000000000000000000000000000000000000000000000000000000                               5650339228E00000324GA                                                               0001                                               
380565 604456L563C1B0050000078002408510230000000000060000000001M OU MME AMOR YACINE                                                                                                                                                                                   E                                                               
380565 604456L563P1B00500000BOURG VIEUX                   00000002770000000000000000027700000002770000000000                                        000000045000000000000000025000000000000000000 00000000        000000070000000000000000000000000071000000065000000027700000000000000000000          0000PA                         
380565 604456L563P2B00500000                                    000000000000000000000000000000000000000000000000000000000000000000000000000000000000000000000000                               5650339657W00000277GP                                                               0001                                               
380565 604457L563C1B0050000078002408510230000000071000000000001M OU MME ALVES JOAQUIM                                                                                                                                                                                 E                                                               
380565 604457L563P1B00500000BOURG VIEUX                   00000002770000000000000000027700000002770000000000                                        000000045000000000000000025000000000000000000 00000000        000000070000000000000000000000000071000000000000000027700000000000000000000          0000                           
380565 604457L563P2B00500000                                    000000000000000000000000000000000000000000000000000000000000000000000000000000000000000000000000                               5650339690A00000277GP                                                               0001                                               
380565 604458L563C1B0050000078002408510230000000000060000000001M OU MME JHOURI ER REGRAGUI                                                                                                                                                                            E                                                               
380565 604458L563P1B00500000BOURG VIEUX                   00000002770000000000000000027700000002770000000000                                        000000045000000000000000025000000000000000000 00000000        000000070000000000000000000000000071000000065000000027700000000000000000000          0000PA                         
380565 604458L563P2B00500000                                    000000000000000000000000000000000000000000000000000000000000000000000000000000000000000000000000                               5650339699L00000277GP                                                               0001                                               
380565 604459L563C1B0050000078002408510230000000082000000000001MME      ZIAR LOUAZNA                                                                                                                                                                                  E                                                               
380565 604459L563P1B00500000BOURG VIEUX                   00000003240000000000000000032400000003240000000000                                        000000052000000000000000029000000000000000000 00000000        000000081000000000000000000000000082000000000000000032400000000000000000000          0000                           
380565 604459L563P2B00500000                                    000000000000000000000000000000000000000000000000000000000000000000000000000000000000000000000000                               5650339222F00000324GA                                                               0001                                               
380565 604460L563C1B0050000078002408510230000000071000000000001MLE      VINAY CELINE                                                                                                                                                                                  E                                                               
380565 604460L563P1B00500000BOURG VIEUX                   00000002770000000000000000027700000002770000000000                                        000000045000000000000000025000000000000000000 00000000        000000070000000000000000000000000071000000000000000027700000000000000000000          0000                           
380565 604460L563P2B00500000                                    000000000000000000000000000000000000000000000000000000000000000000000000000000000000000000000000                               5650339668K00000277GP                                                               0001                                               
380565 604461L563C1B0050000078002408510230000000000060000000001M OU MME LE CAPON BERNARD                                                                                                                                                                              E                                                               
380565 604461L563P1B00500000BOURG VIEUX                   00000002770000000000000000027700000002770000000000                                        000000045000000000000000025000000000000000000 00000000        000000070000000000000000000000000071000000065000000027700000000000000000000          0000PA                         
380565 604461L563P2B00500000                                    000000000000000000000000000000000000000000000000000000000000000000000000000000000000000000000000                               5650339658S00000277GP                                                               0001                                               
380565 604462L563C1B0050000078002408510230000000000000000000000MME      PEYRARD GILBERTE                                                                                                                                                                              E                                                               
380565 604462L563P1B00500000BOURG VIEUX                   00000003240000000000000000032400000003240000000000                                        000000000000000000000000000000000000000000000 00000000        000000000000000000000000000000000000000000000000000032400000000000000000000          0000EX                         
380565 604462L563P2B00500000                                    000000000000000000000000000000000000000000000000000000000000000000000000000000000000000000000000                               5650339519Z00000324GA                                                               0001                                               
380565 604463L563C1B0050000078002408510230000000071000000000001M OU MME AMOR ALI                                                                                                                                                                                      E                                                               
380565 604463L563P1B00500000BOURG VIEUX                   00000002770000000000000000027700000002770000000000                                        000000045000000000000000025000000000000000000 00000000        000000070000000000000000000000000071000000000000000027700000000000000000000          0000                           
380565 604463L563P2B00500000                                    000000000000000000000000000000000000000000000000000000000000000000000000000000000000000000000000                               5650339669F00000277GP                                                               0001                                               
380565 604464L563C1B0050000078002408510230000000071000000000001MLE      ROUX MARIE-CLAUDE                                                                                                                                                                             E                                                               
380565 604464L563P1B00500000BOURG VIEUX                   00000002770000000000000000027700000002770000000000                                        000000045000000000000000025000000000000000000 00000000        000000070000000000000000000000000071000000000000000027700000000000000000000          0000                           
380565 604464L563P2B00500000                                    000000000000000000000000000000000000000000000000000000000000000000000000000000000000000000000000                               5650339670N00000277GP                                                               0001                                               
380565 604465L563C1B0050000078002408510230000000071000000000001M OU MME CHAIEB KHELIFA                                                                                                                                                                                E                                                               
380565 604465L563P1B00500000BOURG VIEUX                   00000002770000000000000000027700000002770000000000                                        000000045000000000000000025000000000000000000 00000000        000000070000000000000000000000000071000000000000000027700000000000000000000          0000                           
380565 604465L563P2B00500000                                    000000000000000000000000000000000000000000000000000000000000000000000000000000000000000000000000                               5650339694H00000277GP                                                               0001                                               
380565 604466L563C1B0050000078002408510230000000082000000000001MME      GIBON SYLVIA                                                                                                                                                                                  E                                                               
380565 604466L563P1B00500000BOURG VIEUX                   00000003240000000000000000032400000003240000000000                                        000000052000000000000000029000000000000000000 00000000        000000081000000000000000000000000082000000000000000032400000000000000000000          0000                           
380565 604466L563P2B00500000                                    000000000000000000000000000000000000000000000000000000000000000000000000000000000000000000000000                               5650339492N00000324GA                                                               0001                                               
380565 604467L563C1B0050000078002408510230000000082000000000001M        MICHARD PIERRE JEAN                                                                                                                                                                           E                                                               
380565 604467L563P1B00500000BOURG VIEUX                   00000003240000000000000000032400000003240000000000                                        000000052000000000000000029000000000000000000 00000000        000000081000000000000000000000000082000000000000000032400000000000000000000          0000                           
380565 604467L563P2B00500000                                    000000000000000000000000000000000000000000000000000000000000000000000000000000000000000000000000                               5650339528X00000324GA                                                               0001                                               
380565 604468L563C1B0050000078002408510230000000071000000000001M OU MME GISBERT ROLLAND                                                                                                                                                                               E                                                               
380565 604468L563P1B00500000BOURG VIEUX                   00000002770000000000000000027700000002770000000000                                        000000045000000000000000025000000000000000000 00000000        000000070000000000000000000000000071000000000000000027700000000000000000000          0000                           
380565 604468L563P2B00500000                                    000000000000000000000000000000000000000000000000000000000000000000000000000000000000000000000000                               5650339672E00000277GP                                                               0001                                               
380565 604469L563C1B0050000078002408510230000000071000000000001M OU MME BRANCALE GIACOMO                                                                                                                                                                              E                                                               
380565 604469L563P1B00500000BOURG VIEUX                   00000002770000000000000000027700000002770000000000                                        000000045000000000000000025000000000000000000 00000000        000000070000000000000000000000000071000000000000000027700000000000000000000          0000                           
380565 604469L563P2B00500000                                    000000000000000000000000000000000000000000000000000000000000000000000000000000000000000000000000                               5650339674W00000277GP                                                               0001                                               
380565 604470L563C1B0300537 78002408510230000000487000000000014M OU MME BARD MICHEL                                                                                                                                                                                   S                                                               
380565 604470L563P1B0300537 LA DIDONNIERE                 00000018610000000000000000186100000018610000000000                                        000000301000000000000000165000000000000000000 00000000        0000004660000000000000000070000004870000000000000000000          000000186100000000000000                           
380565 604470L563P2B0300537                                     000000000000000000000000000000000000000000000000000000000000000000000000000000000000000000000000                               5650537495M00001861RS                                                               0001                                               
380565 604471L563C1B099793  78002408510230000001123000000000032M OU MME PRASIL VINCENT CHRISTIAN                                                                                                                                                                      S                                                               
380565 604471L563P1B099793  LA TIVOLIERE                  00000042920000000000000000429200000042920000000000                                        000000693000000000000000382000000000000000000 00000000        0000010750000000000000000160000011230000000000000000000          000000429200000000000000                           
380565 604471L563P2B099793                                      000000000000000000000000000000000000000000000000000000000000000000000000000000000000000000000000                               5650514849H00004292MA                                                               0001                                               
380565 604472L563C100030191 77002408510230000001508000000000015M OU MME DE LA FOURNIERE MARC                                                                                                                                                                          P                                                               
380565 604472L563P100030191 CHE DE L ACHARD               00000059120000000000000000591200000059120000000000                                        000000955000000000000000526000000000000000000 00000000        000001481000000012000000000000001508000000000000000639300000000000000000000          0000                           
380565 604472L563P200030191                                     000004810000048100000000000000000000000000000000000000000000000000000000000000000000000000000000                               5650342273T00006185MA5650588251C00000208GA                                          0002                                               
380565 604473L563C100030195 77002408510230000000843000000000012MLE      DI PASQUALE NATHALIE      ET M CERDAN DENIS                                                                                                                                                   P                                                               
380565 604473L563P100030195 CHE DE L ACHARD               00000048530000000000000000485300000048530000000000                                        000000784000000000000000431000000000000000000 00000000        000001215000000000000000000000001227000000384000000597600000000000000000000          0200PA                         
380565 604473L563P200030195                                     000004810000048100000000000006420000064200000000000000000000000000000000000000000000000000000000                               5650513874Y00005378MA5650571112U00000598PS                                          0002                                               
380565 604474L563C100030195 77002408510230000000822000000000012M        CERDAN THIERRY CAMILLE                                                                                                                                                                        P                                                               
380565 604474L563P100030195 CHE DE L ACHARD               00000045960000000000000000459600000045960000000000                                        000000742000000000000000409000000000000000000 00000000        000001151000000000000000000000001163000000341000000571900000000000000000000          0200PA                         
380565 604474L563P200030195                                     000004810000048100000000000006420000064200000000000000000000000000000000000000000000000000000000                               5650519975E00005719MA                                                               0001                                               
380565 604475L563C100030233 77002408510230000000668000000000007M OU MME PORTE EMILE-JEAN                                                                                                                                                                              P                                                               
380565 604475L563P100030233 CHE DE L ACHARD               00000026400000000000000000264000000026400000000000                                        000000426000000000000000235000000000000000000 00000000        000000661000000000000000000000000668000000000000000376300000000000000000000          0200                           
380565 604475L563P200030233                                     000004810000048100000000000006420000064200000000000000000000000000000000000000000000000000000000                               5650433772C00003763MA                                                               0001                                               
380565 604476L563C100030309 77002408510230000000317000000000003M OU MME MARTINEZ LUCIEN                                                                                                                                                                               P                                                               
380565 604476L563P100030309 CHE DE L ACHARD               00000013800000000000000000138000000013800000000000                                        000000223000000000000000123000000000000000000 00000000        000000346000000000000000000000000349000000032000000186100000000000000000000          0000PA                         
380565 604476L563P200030309                                     000004810000048100000000000000000000000000000000000000000000000000000000000000000000000000000000                               5650342272X00001861MA                                                               0001                                               
380565 604477L563C100060000077002408510230000000595000000000006M OU MME PREVOT JEAN MARIE                                                                                                                                                                             P                                                               
380565 604477L563P1000600000IMP ALAIN FOURNIER            00000023510000000000000000235100000023510000000000                                        000000380000000000000000209000000000000000000 00000000        000000589000000000000000000000000595000000000000000283200000000000000000000          0000                           
380565 604477L563P2000600000                                    000004810000048100000000000000000000000000000000000000000000000000000000000000000000000000000000                               5650341087D00002832MA                                                               0001                                               
